:020000040800F2
:100000000000032041AD0008F5A20008FDA2000891
:1000100005A300080DA3000815A3000800000000B8
:10002000000000000000000000000000B1660108B0
:100030001DA30008000000000169010869690108AA
:1000400091AD000891AD000891AD000891AD000898
:1000500091AD000891AD000891AD000891AD000888
:1000600091AD00082BA3000891AD000891AD0008E8
:1000700091AD000891AD000891AD000891AD000868
:1000800091AD000891AD000891AD000891AD000858
:1000900091AD000891AD000891AD000891AD000848
:1000A00091AD000839A3000855A3000891AD0008E0
:1000B00091AD00086DA3000891AD000891AD000856
:1000C00091AD000891AD000891AD000891AD000818
:1000D00091AD000885A3000899A3000891AD000820
:1000E00091AD000891AD000891AD000891AD0008F8
:1000F000ADA3000891AD000891AD000891AD0008D6
:1001000091AD000891AD000891AD000891AD0008D7
:1001100091AD000891AD0008C5A30008DDA300085B
:1001200091AD000891AD000891AD000891AD0008B7
:1001300091AD000891AD000891AD000891AD0008A7
:1001400091AD000891AD000891AD000891AD000897
:1001500091AD000891AD000891AD000891AD000887
:1001600091AD000891AD000891AD000891AD000877
:1001700091AD000891AD000891AD000891AD000867
:1001800091AD000891AD000891AD000891AD000857
:1001900091AD000891AD000891AD000891AD000847
:0C01A000000000000000000091AD00080D
:1001B00010B5054C237833B9044B13B10448AFF3A1
:1001C00000800123237010BDD80300200000000030
:1001D00060CB010808B5034B1BB103490348AFF3DB
:1001E000008008BD00000000DC03002060CB010897
:1001F00001F0FF01102A2BDB10F0070F08D010F8D8
:10020000013B013A8B422DD010F0070F42B3F6D1DB
:10021000F0B441EA012141EA014122F007047FF0F4
:1002200000070023F0E80256083C85EA010586EA4B
:10023000010685FA47F5A3FA87F586FA47F6A5FA87
:1002400087F68EB9EED1F0BC01F0FF0102F0070293
:1002500032B110F8013B013A83EA010313B1F8D13E
:100260000020704701387047002D06BF354603381F
:10027000073815F0010F07D1013015F4807F02BF58
:10028000013015F4C03F0130F0BC0138704700BFA9
:10029000034613F8012B002AFBD1181A01387047C6
:1002A00081F0004102E000BF83F0004330B54FEA27
:1002B00041044FEA430594EA050F08BF90EA020F94
:1002C0001FBF54EA000C55EA020C7FEA645C7FEA27
:1002D000655C00F0E2804FEA5454D4EB5555B8BF4A
:1002E0006D420CDD2C4480EA020281EA030382EABB
:1002F000000083EA010180EA020281EA0303362D4D
:1003000088BF30BD11F0004F4FEA01314FF4801C1F
:100310004CEA113102D0404261EB410113F0004F31
:100320004FEA03334CEA133302D0524263EB4303E8
:1003300094EA050F00F0A780A4F10104D5F1200E86
:100340000DDB02FA0EFC22FA05F2801841F10001E1
:1003500003FA0EF2801843FA05F359410EE0A5F1B5
:1003600020050EF1200E012A03FA0EFC28BF4CF0E6
:10037000020C43FA05F3C01851EBE37101F000459C
:1003800007D54FF0000EDCF1000C7EEB00006EEBA9
:100390000101B1F5801F1BD3B1F5001F0CD3490833
:1003A0005FEA30004FEA3C0C04F101044FEA44528A
:1003B00012F5800F80F09A80BCF1004F08BF5FEA11
:1003C000500C50F1000041EB045141EA050130BDF1
:1003D0005FEA4C0C404141EB0101013C28BFB1F503
:1003E000801FE9D291F0000F04BF01460020B1FA4E
:1003F00081F308BF2033A3F10B03B3F120020CDA21
:100400000C3208DD02F1140CC2F10C0201FA0CF0FE
:1004100021FA02F10CE002F11402D8BFC2F1200C63
:1004200001FA02F120FA0CFCDCBF41EA0C01904019
:10043000E41AA2BF01EB0451294330BD6FEA040462
:100440001F3C1CDA0C340EDC04F11404C4F120024D
:1004500020FA04F001FA02F340EA030021FA04F35F
:1004600045EA030130BDC4F10C04C4F1200220FAB6
:1004700002F001FA04F340EA0300294630BD21FAF4
:1004800004F0294630BD94F0000F83F4801306BFBA
:1004900081F480110134013D4EE77FEA645C18BFAE
:1004A0007FEA655C29D094EA050F08BF90EA020F45
:1004B00005D054EA000C04BF1946104630BD91EA3D
:1004C000030F1EBF0021002030BD5FEA545C05D140
:1004D0004000494128BF41F0004130BD14F580047F
:1004E0003CBF01F5801130BD01F0004545F0FE41F3
:1004F00041F470014FF0000030BD7FEA645C1ABF28
:10050000194610467FEA655C1CBF0B46024650EA5E
:10051000013406BF52EA033591EA030F41F400218A
:1005200030BD00BF90F0000F04BF0021704730B510
:100530004FF4806404F132044FF000054FF00001E5
:1005400050E700BF90F0000F04BF0021704730B5A6
:100550004FF4806404F1320410F0004548BF40427B
:100560004FF000013EE700BF42004FEAE2014FEAD0
:1005700031014FEA02701FBF12F07F4393F07F4FAB
:1005800081F06051704732F07F4208BF704793F0AE
:100590007F4F04BF41F40021704730B54FF46074C1
:1005A00001F0004521F000411CE700BF50EA0102C4
:1005B00008BF704730B54FF000050AE050EA01026D
:1005C00008BF704730B511F0004502D5404261EBDD
:1005D00041014FF4806404F132045FEA915C3FF41E
:1005E000D8AE4FF003025FEADC0C18BF03325FEABB
:1005F000DC0C18BF033202EBDC02C2F1200300FA6C
:1006000003FC20FA02F001FA03FE40EA0E0021FA90
:1006100002F11444BDE600BF70B54FF0FF0C4CF47E
:10062000E06C1CEA11541DBF1CEA135594EA0C0F30
:1006300095EA0C0F00F0DEF82C4481EA030621EA6B
:100640004C5123EA4C5350EA013518BF52EA0335A6
:1006500041F4801143F4801338D0A0FB02CE4FF058
:100660000005E1FB02E506F00042E0FB03E54FF088
:100670000006E1FB03569CF0000F18BF4EF0010E80
:10068000A4F1FF04B6F5007F64F5407404D25FEA7C
:100690004E0E6D4146EB060642EAC62141EA55512F
:1006A0004FEAC52040EA5E504FEACE2EB4F1FD0C71
:1006B00088BFBCF5E06F1ED8BEF1004F08BF5FEAEF
:1006C000500E50F1000041EB045170BD06F00046A1
:1006D00046EA010140EA020081EA0301B4EB5C044E
:1006E000C2BFD4EB0C0541EA045170BD41F4801146
:1006F0004FF0000E013C00F3AB8014F1360FDEBF6B
:10070000002001F0004170BDC4F10004203C35DA46
:100710000C341BDC04F11404C4F1200500FA05F3C9
:1007200020FA04F001FA05F240EA020001F000426A
:1007300021F0004110EBD37021FA04F642EB0601E0
:100740005EEA430E08BF20EAD37070BDC4F10C040A
:10075000C4F1200500FA04F320FA05F001FA04F2CE
:1007600040EA020001F0004110EBD37041F10001BA
:100770005EEA430E08BF20EAD37070BDC4F12005C5
:1007800000FA05F24EEA020E20FA04F301FA05F22D
:1007900043EA020321FA04F001F0004121FA04F2D5
:1007A00020EA020000EBD3705EEA430E08BF20EAA5
:1007B000D37070BD94F0000F0FD101F000464000DF
:1007C00041EB010111F4801F08BF013CF7D041EA61
:1007D000060195F0000F18BF704703F00046520065
:1007E00043EB030313F4801F08BF013DF7D043EA36
:1007F0000603704794EA0C0F0CEA135518BF95EAEC
:100800000C0F0CD050EA410618BF52EA4306D1D172
:1008100081EA030101F000414FF0000070BD50EA91
:10082000410606BF1046194652EA430619D094EA1B
:100830000C0F02D150EA013613D195EA0C0F05D105
:1008400052EA03361CBF104619460AD181EA030159
:1008500001F0004141F0FE4141F470014FF0000011
:1008600070BD41F0FE4141F4780170BD70B54FF0AC
:10087000FF0C4CF4E06C1CEA11541DBF1CEA13552C
:1008800094EA0C0F95EA0C0F00F0A7F8A4EB05040E
:1008900081EA030E52EA03354FEA013100F0888005
:1008A0004FEA03334FF0805545EA131343EA1263CE
:1008B0004FEA022245EA111545EA10654FEA002683
:1008C0000EF000419D4208BF964244F1FD0404F53C
:1008D000407402D25B084FEA3202B61A65EB030598
:1008E0005B084FEA32024FF480104FF4002CB6EB55
:1008F000020E75EB030E22BFB61A754640EA0C00D5
:100900005B084FEA3202B6EB020E75EB030E22BF14
:10091000B61A754640EA5C005B084FEA3202B6EB55
:10092000020E75EB030E22BFB61A754640EA9C0014
:100930005B084FEA3202B6EB020E75EB030E22BFE4
:10094000B61A754640EADC0055EA060E18D04FEAA2
:10095000051545EA16754FEA06164FEAC30343EA42
:1009600052734FEAC2025FEA1C1CC0D111F4801F0F
:100970000BD141EA00014FF000004FF0004CB6E708
:1009800011F4801F04BF01430020B4F1FD0C88BFA7
:10099000BCF5E06F3FF6AFAEB5EB030C04BFB6EBB2
:1009A000020C5FEA500C50F1000041EB045170BDA5
:1009B0000EF0004E4EEA113114EB5C04C2BFD4EBD2
:1009C0000C0541EA045170BD41F480114FF0000E56
:1009D000013C90E645EA060E8DE60CEA135594EAD2
:1009E0000C0F08BF95EA0C0F3FF43BAF94EA0C0FD5
:1009F0000AD150EA01347FF434AF95EA0C0F7FF44A
:100A000025AF104619462CE795EA0C0F06D152EA9D
:100A100003353FF4FDAE1046194622E750EA410681
:100A200018BF52EA43067FF4C5AE50EA41047FF492
:100A30000DAF52EA43057FF4EBAE12E74FF0FF3CF7
:100A400006E000BF4FF0010C02E000BF4FF0010CC8
:100A50004DF804CD4FEA410C7FEA6C5C4FEA430C41
:100A600018BF7FEA6C5C1BD001B050EA410C0CBF90
:100A700052EA430C91EA030F02BF90EA020F0020F2
:100A8000704710F1000F91EA030F58BF994208BF59
:100A900090422CBFD8176FEAE37040F00100704716
:100AA0004FEA410C7FEA6C5C02D150EA013C07D16D
:100AB0004FEA430C7FEA6C5CD6D152EA033CD3D0B8
:100AC0005DF8040B704700BF8446104662468C46B2
:100AD0001946634600E000BF01B5FFF7B7FF0028E5
:100AE00048BF10F1000F01BD4DF808EDFFF7F4FF0E
:100AF0000CBF012000205DF808FB00BF4DF808ED99
:100B0000FFF7EAFF34BF012000205DF808FB00BFBB
:100B10004DF808EDFFF7E0FF94BF012000205DF8DD
:100B200008FB00BF4DF808EDFFF7CEFF94BF012092
:100B300000205DF808FB00BF4DF808EDFFF7C4FF8B
:100B400034BF012000205DF808FB00BF4FEA410CD4
:100B50007FEA6C5C02D150EA013C0AD14FEA430CB7
:100B60007FEA6C5C02D152EA033C02D14FF00000F4
:100B700070474FF0010070474FEA410212F5001232
:100B800015D211D56FF47873B3EB625212D94FEAD4
:100B9000C12343F0004343EA505311F0004F23FABE
:100BA00002F018BF404270474FF00000704750EA13
:100BB000013005D111F0004008BF6FF000407047D0
:100BC0004FF00000704700BF4A0011D212F500122A
:100BD00011D20DD56FF47873B3EB62520ED44FEA95
:100BE000C12343F0004343EA505323FA02F0704715
:100BF0004FF00000704750EA013002D14FF0FF3053
:100C000070474FF0000070474FEA4102B2F1E043F5
:100C100024BFB3F5001CDCF1FE5C0DD901F0004CE3
:100C20004FEAC0024CEA5070B2F1004F40EB830033
:100C300008BF20F00100704711F0804F21D113F15F
:100C40003872BCBF01F00040704741F480114FEA98
:100C50005252C2F11802C2F1200C10FA0CF320FA21
:100C600002F018BF40F001004FEAC1234FEAD3233E
:100C700003FA0CFC40EA0C0023FA02F34FEA4303A8
:100C8000CCE77FEA625307D150EA01331EBF4FF031
:100C9000FE4040F44000704701F0004040F0FE404C
:100CA00040F40000704700BF53B94AB9002908BF9B
:100CB00000281CBF4FF0FF314FF0FF3000F0A0B90B
:100CC000ADF1080C6DE904CE00F03CF8DDF804E06D
:100CD000DDE9022304B0704738B500220023044642
:100CE0000D46FFF70BFF28B920462946BDE83840DE
:100CF00000F00AB8204605F1004100F005F8404236
:100D000061EB410138BD00BFD0B50C4B0022064657
:100D10000F46FFF781FCFFF757FF0446FFF702FC81
:100D2000074B0022FFF778FC02460B463046394657
:100D3000FFF7BAFAFFF748FF2146D0BD0000F03DAB
:100D40000000F0412DE9F047089D0C46002B4ED1E4
:100D500094468C458646B2FA82F262D94AB1C2F113
:100D60002003914020FA03F30CFA02FC194300FA25
:100D700002FE4FEA1C471FFA8CF6B1FBF7F44FEA6C
:100D80001E4307FB141143EA014304FB06F1994299
:100D90000AD91CEB030304F1FF3080F01281994261
:100DA00040F20F81023C6344591A1FFA8EF3B1FBE3
:100DB000F7F007FB101143EA014300FB06F69E42E1
:100DC0000AD91CEB030300F1FF3180F0FC809E4246
:100DD00040F2F980634402389B1B40EA0440002142
:100DE0001DB1D3400022C5E90032BDE8F0878B4237
:100DF00005D90DB1C5E9000100210846F5E7B3FAB0
:100E000083F1002946D1A34202D39042C0F0F08082
:100E1000861A64EB03030120002DE6D0C5E90063C8
:100E2000E3E7002A40F09080A1EB0C044FEA1C4855
:100E30001FFA8CF70121B4FBF8F64FEA1E4308FBBA
:100E4000164443EA044307FB06F0984208D91CEB1A
:100E5000030306F1FF3402D2984200F2CD80264609
:100E60001C1A1FFA8EF3B4FBF8F008FB104443EA97
:100E7000044300FB07F79F4208D91CEB030300F172
:100E8000FF3402D29F4200F2B0802046DB1B40EAD2
:100E90000640A5E7C1F120068B4022FA06F71F4362
:100EA00020FA06FC04FA01F343EA0C03F44000FACA
:100EB00001F8380C4FEA1349B4FBF0FE1FFA87FC27
:100EC00000FB1E4449EA04440EFB0CF9A14502FA5A
:100ED00001F20AD93C190EF1FF3A80F08480A14555
:100EE00040F28180AEF1020E3C44A4EB09041FFAEB
:100EF00083F9B4FBF0F300FB134449EA044403FB19
:100F00000CFCA44507D93C1903F1FF3067D2A44576
:100F100065D9023B3C4443EA0E40A0FB0293A4EB9C
:100F20000C049C42CE469C4651D34ED055B1B8EBF2
:100F30000E0364EB0C0404FA06F6CB401E43CC40CF
:100F4000C5E90064002150E7C2F1200320FA03F153
:100F50000CFA02FC24FA03F394400C434FEA1C48B9
:100F600000FA02FE1FFA8CF7B3FBF8F008FB103111
:100F7000230C43EA014300FB07F1994208D91CEB1B
:100F8000030300F1FF362CD299422AD90238634478
:100F90005B1AA4B2B3FBF8F108FB113344EA034433
:100FA00001FB07F3A34208D91CEB040401F1FF364F
:100FB00013D2A34211D902396444E41A41EA004130
:100FC00039E70446F0E6084606E7C845AED2B9EB75
:100FD000020E63EB070C0138A8E73146EDE7034644
:100FE00099E73046D4E7D6467FE7634402384DE7B9
:100FF0000646234608460FE7023E634430E700BF3B
:10100000704700BF80B596B002AF00224FF4007168
:10101000012013F005FF03469E4A13609D4B1B6899
:10102000002B01D10023B9E100224FF4806101209F
:1010300013F0F6FE0346984A1360974B1B68002B8B
:1010400001D10023AAE1082014F01BFB0346934AB8
:101050001360934B1B68002B0BD14FF0500383F3AD
:101060001188BFF36F8FBFF34F8FBB6400BF00BF0A
:10107000FDE78C4B1B68002B0BD14FF0500383F323
:101080001188BFF36F8FBFF34F8F7B6400BF00BF2A
:10109000FDE7854B1B68002B0BD14FF0500383F30A
:1010A0001188BFF36F8FBFF34F8F3B6400BF00BF4A
:1010B000FDE77E4B1B68002B0BD14FF0500383F3F1
:1010C0001188BFF36F8FBFF34F8FFB6300BF00BF6B
:1010D000FDE7774B1B68002B0BD14FF0500383F3D8
:1010E0001188BFF36F8FBFF34F8FBB6300BF00BF8B
:1010F000FDE7704B1B68002B0BD14FF0500383F3BF
:101100001188BFF36F8FBFF34F8F7B6300BF00BFAA
:10111000FDE7694B1B68002B0BD14FF0500383F3A5
:101120001188BFF36F8FBFF34F8F3B6300BF00BFCA
:10113000FDE7624B1B68002B0BD14FF0500383F38C
:101140001188BFF36F8FBFF34F8FFB6200BF00BFEB
:10115000FDE75B4B1B68002B0BD14FF0500383F373
:101160001188BFF36F8FBFF34F8FBB6200BF00BF0B
:10117000FDE7544B1B68002B0BD14FF0500383F35A
:101180001188BFF36F8FBFF34F8F7B6200BF00BF2B
:10119000FDE74D4B1B68002B0BD14FF0500383F341
:1011A0001188BFF36F8FBFF34F8F3B6200BF00BF4B
:1011B000FDE7464B1B68002B0BD14FF0500383F328
:1011C0001188BFF36F8FBFF34F8FFB6100BF00BF6C
:1011D000FDE73F4B1B68002B0BD14FF0500383F30F
:1011E0001188BFF36F8FBFF34F8FBB6100BF00BF8C
:1011F000FDE7384B1B68002B0BD14FF0500383F3F6
:101200001188BFF36F8FBFF34F8F7B6100BF00BFAB
:10121000FDE7314B1B68002B0BD14FF0500383F3DC
:101220001188BFF36F8FBFF34F8F3B6100BF00BFCB
:10123000FDE72A4B1B68002B0BD14FF0500383F3C3
:101240001188BFF36F8FBFF34F8FFB6000BF00BFEC
:10125000FDE7234B1B68002B0BD14FF0500383F3AA
:101260001188BFF36F8FBFF34F8FBB6000BF00BF0C
:10127000FDE71C4B1B68002B36D14FF0500383F366
:101280001188BFF36F8FBFF34F8F7B6000BF00BF2C
:10129000FDE700BFFC0B0020000C0020040C002028
:1012A0009C0E0020A00E0020A40E0020A80E0020FE
:1012B000340E0020380E0020680E00206C0E002036
:1012C000E80D0020EC0D0020DC0E0020E00E0020D8
:1012D000D80F0020DC0F0020100F0020140F00207A
:1012E000AC0F0020B00F00202E4B1B682E4A126856
:1012F0001146184614F0D4F92C4B1B682A4A126880
:101300001146184614F0CCF9294B1B68264A12687E
:101310001146184614F0C4F9264B1B68224A12687D
:101320001146184614F0BCF9234B1B681E4A12687C
:101330001146184614F0B4F9204B1B681A4A12687B
:101340001146184614F0ACF91D4B1B68164A12687A
:101350001146184614F0A4F91A4B1B68124A126879
:101360001146184614F09CF9174B1B680E4A126878
:101370001146184614F094F9144B0193002300937E
:1013800000234FF480721249124814F078FAF8647E
:10139000FB6C012B01D0002300E0012318465037DD
:1013A000BD4680BDFC0B0020040C0020A00E0020D8
:1013B000380E0020140F00206C0E0020EC0D0020D1
:1013C000E00E0020DC0F0020B00F0020F80B002002
:1013D00078CB0108D913000880B584B000AF7860DD
:1013E00005F006FC5B4B1B684FF0FF31184614F00C
:1013F00078F9F860584B1B68FA689A420DD1564B41
:101400001B6800225549184613F03CFF0346012B88
:10141000E8D1524800F0C4F8E4E7514B1B68FA6881
:101420009A420DD14E4B1B6800224E49184613F0CC
:1014300029FF0346012BD5D14A4802F08FFFD1E79F
:10144000494B1B68FA689A420DD1474B1B68002232
:101450004649184613F016FF0346012BC2D14348F4
:1014600002F0FAFFBEE7424B1B68FA689A420DD1C0
:101470003F4B1B6800223F49184613F003FF034609
:10148000012BAFD13B4803F067F8ABE73A4B1B6841
:10149000FA689A420DD1384B1B680022374918462A
:1014A00013F0F0FE0346012B9CD1344803F034F9CD
:1014B00098E7334B1B68FA689A420DD1304B1B6892
:1014C00000223049184613F0DDFE0346012B89D176
:1014D0002C4803F083FA85E72B4B1B68FA689A4285
:1014E0000ED1294B1B6800222849184613F0CAFE6A
:1014F0000346012B7FF476AF244803F0EFF971E740
:10150000234B1B68FA689A420ED1214B1B680022BC
:101510002049184613F0B6FE0346012B7FF462AF54
:101520001C4803F0C9FB5DE71B4B1B68FA689A4235
:101530007FF458AF184B1B6800221849184613F067
:10154000A1FE0346012B7FF44DAF144803F0CCFC01
:1015500048E700BF040C0020FC0B0020F40700202B
:10156000A00E0020380C0020380E0020800C002037
:10157000140F00206C0D00206C0E0020100D0020B8
:10158000EC0D0020B40C0020E00E0020E80C002040
:10159000DC0F00205C0C0020B00F0020C40D0020E8
:1015A000B0B59CB004AF7860A44AA549786805F04E
:1015B000F3F9034687F85F30A148FEF769FE03465A
:1015C0009BB2013B9AB29F4B1A809E4B1B884FF6F1
:1015D000FF72934202D09B4B1B8800E00023994A84
:1015E0001380984B1B881946954816F06BFC0346F0
:1015F000012B42F08A8697F85F30002B42F08586F7
:10160000904B1B881D46904B5C688F4B5B6818465F
:10161000FEF73EFE0346002202928C4A01928C4A5B
:10162000009222462946864817F0B9F80346012B56
:1016300042F06286834B1B881D46834BDC68824BDD
:10164000DB681846FEF724FE034600220292814A18
:101650000192814A009222462946794817F09FF864
:101660000346012B42F040867B4B1B680A227B49D4
:10167000184617F053FF0346794A1360794B1B88CD
:1016800023EAE372764B1B689A42B4BF012300231E
:10169000DBB21946734B1B884FF6FF7293420CBFA7
:1016A00001230023DAB26E4B1B68002B0CBF012311
:1016B0000023DBB21340DBB20B43002B02F00C869D
:1016C000674B1B689AB2684B1A80674B1A88654B48
:1016D0001A805F4B1B68654AD2F8F4105B4A1268A7
:1016E000184618F0D0FC0346002B7FD1604B1E2219
:1016F0001A705D4B1A885E4B1A81524B1B88194633
:1017000000230293534B0193534B00931023594AE8
:101710004B4817F044F80346012B5AD14E4B1B6837
:10172000554A51684B4A1268184618F0ACFC0346FB
:10173000002B0DD14E4B002283F829204F4B186807
:1017400000234FF0FF324A4913F0C8FB02F0E5BD19
:10175000414B1B68484A51693E4A1268184618F0C6
:1017600092FC0346002B0DD1414B022283F8292025
:10177000424B186800234FF0FF323D4913F0AEFB97
:1017800002F0CBBD344B1B683B4AD169314A126829
:10179000184618F078FC0346002B0DD1344B032279
:1017A00083F82920354B186800234FF0FF32304969
:1017B00013F094FB02F0B1BD2D4B032283F82820D7
:1017C0002B4B092283F82A20294802F0C5FE02F09B
:1017D000A4BD274B032283F82820254B082283F839
:1017E0002A20234802F0B8FE02F097BD184B1B6870
:1017F0001E4AD2F82411154A1268184618F043FC04
:101800000346002B3CD11A4B24221A70164B1A881F
:10181000174B1A81164B002283F82820144B002204
:1018200083F82A20124802F097FE4FF4FA700AF06B
:101830004FFD0BF09EFA02F070BD00BFE00D0020DE
:10184000F4030020F40B002034DC01080C0C002011
:10185000080C0020140C0020100C0020DC0D0020CF
:101860001C0C0020200C0020180C002054D901086A
:10187000240D002084CB010814DC0108100F002087
:10188000BA4B1B68BA4AD2F81412BA4A1268184600
:1018900018F0F9FB0346002B36D105F001FA034698
:1018A000002B26D005F0DAF9034687F8593097F86F
:1018B0005930012B0AD1B04B198800230093012322
:1018C0000122422003F092F902F027BD97F8593027
:1018D000002B42F02285A84B1C8805F05FFA0346D6
:1018E0000093002300222146422003F07FF902F0FA
:1018F00014BDA14B19880023009310230422422019
:1019000003F074F902F009BD984B1B68984AD2F8AD
:101910001C12984A1268184618F0B5FB0346002BB3
:1019200062D1964B1B88194600230293944B019376
:10193000944B00931023944A944816F030FF0346CA
:10194000012B46D18F4B1B68914AD1688C4A126893
:10195000184618F098FB0346002B11D105F0A0F9AA
:101960000346002B01D105F0A7F9814B93F818022B
:10197000814B19880023002203F0FCF802F0CDBC53
:10198000804B1B68824A51687D4A1268184618F0DD
:101990007AFB0346002B11D105F082F90346012B97
:1019A00001D105F0C7F9724B93F81802724B1988F0
:1019B0000023002203F0DEF802F0AFBC6C4B93F87A
:1019C00018026D4B19880923032203F0D3F802F0A3
:1019D000A4BC674B93F81802674B198808230322AD
:1019E00003F0C8F802F099BC05F04EF90346002B4D
:1019F0000AD0614B1988002300930F23052242204F
:101A000003F0F4F802F089BC584B1B68584AD2F82E
:101A10002412584A1268184618F035FB0346002B6A
:101A200066D105F03DF90346002B23D105F09AFA63
:101A300005F0A4FA4E4B93F818324F4A128811461B
:101A4000184605F041FB05F0F9FA002200210020BC
:101A500006F0FAFB05F0AAFA05F008FB05F06CFAAF
:101A6000044605F073FA03461946204603F0A2FA2D
:101A700002F053BC05F014F90346012B23D105F005
:101A800071FA05F07BFA3A4B93F818323A4A128809
:101A90001146184605F018FB05F0D0FA0122002186
:101AA000002006F0D1FB05F081FA05F0DFFA05F021
:101AB00043FA044605F04AFA03461946204603F065
:101AC00079FA02F02ABC2A4B93F818022A4B19889B
:101AD0000923032203F04EF805F02EFA044605F020
:101AE00035FA03461946204603F064FA02F015BCA5
:101AF0001E4B1B681E4A51681E4A1268184618F091
:101B0000C2FA0346002B57D1224B00221A701A4BFF
:101B10001A88204B1A81194B1B88194600230293FF
:101B2000174B0193174B00931023174A174816F0D1
:101B300036FE0346012B31D1124B1B6807F15401CD
:101B40000A22184617F0EAFC0346A7F85A30114A51
:101B5000B7F85A305381104B186800234FF0FF320A
:101B60000C4913F0BBF902F0D8BB00BF080C0020F1
:101B700054D901080C0C0020180C0020F40B002094
:101B8000140C0020100C002084CB0108F40300206A
:101B900044D90108240C00209C0E00209E4B0022FA
:101BA0005A819D4B03221A749B4B08225A749A48FF
:101BB00002F0D4FB02F0B1BB984B1B68984AD16885
:101BC000984A1268184618F05EFA0346002B10D1A6
:101BD000914B01221A70944B1A888F4B1A81934BA8
:101BE000186800234FF0FF328B4913F077F902F0A9
:101BF00094BB8A4B1B688A4A51698A4A1268184604
:101C000018F041FA0346002B10D1834B02221A70C0
:101C1000854B1A88804B1A81844B186800234FF03B
:101C2000FF327D4913F05AF902F077BB7B4B1B68FA
:101C30007B4AD1697B4A1268184618F024FA034699
:101C4000002B10D1744B03221A70774B1A88724BF9
:101C50001A81764B186800234FF0FF326E4913F05B
:101C60003DF902F05ABB6D4B1B686D4A516A6D4AD3
:101C70001268184618F007FA0346002B40F0EC8073
:101C80006B4B1B881946002302936A4B01936A4BE6
:101C900000931623694A6A4816F081FD0346012B1A
:101CA00040F0A180644B1B68664A5168614A126823
:101CB000184618F0E8F90346002B7CD15C4B1B88D2
:101CC0001946002302935B4B01935B4B0093102357
:101CD0005D4A5B4816F063FD0346012B53D15B4B15
:101CE00004221A70504B1A88584B1A81574B002205
:101CF0009A72514B1B68564A51684E4A12681846F0
:101D000018F0C1F90346002B0CD1504B0022DA72B7
:101D1000504B186800234FF0FF324C4913F0DEF8A7
:101D200002F0FBBA444B1B68494AD168414A126829
:101D3000184618F0A8F90346002B0CD1434B01229A
:101D4000DA72444B186800234FF0FF323F4913F01A
:101D5000C5F802F0E2BA3D4B04221A70324B1A88E1
:101D60003A4B1A81394B00229A72384B03229A73EC
:101D7000364B0922DA73354B00229A81334802F040
:101D80009BFF02F0CABA314B04221A70264B1A8804
:101D90002E4B1A812D4B00229A722C4B03229A73E0
:101DA0002A4B0822DA73294B00229A81274802F035
:101DB00083FF02F0B2BA254B04221A701A4B1A881C
:101DC000224B1A81214B00229A72204B03229A73D4
:101DD0001E4B0722DA731D4B00229A811B4802F02A
:101DE0006BFF02F09ABA194B04221A700E4B1A8834
:101DF000164B1A81154B00229A72144B03229A73C8
:101E0000124B0722DA73114B00229A810F4802F01D
:101E100053FF02F082BA00BF240C0020080C0020FF
:101E200054D901080C0C0020180C00209C0E002036
:101E3000F40B0020140C0020100C002098CB01089B
:101E4000F403002064DD010884CB01084C0C002061
:101E5000C4DD0108D80F00209F4B1B689F4AD16A40
:101E60009F4A1268184618F00EF90346002B60D1FD
:101E70009C4B1B881946002302939B4B01939B4B61
:101E8000009316239A4A9B4816F089FC0346012BBF
:101E900037D1964B1B68984A5168934A1268184686
:101EA00018F0F1F80346002B13D1944B05221A7059
:101EB000934B1A88914B1A81904B00229A72914B46
:101EC000186800234FF0FF328C4913F007F802F036
:101ED00024BA8A4B05221A70894B1A88874B1A81BB
:101EE000864B00229A72854B03229A73834B0722FA
:101EF000DA73824B00229A81804802F0DDFE02F004
:101F00000CBA7E4B05221A707D4B1A887B4B1A81C6
:101F10007A4B00229A72794B03229A73774B0822EC
:101F2000DA73764B00229A81744802F0C5FE02F003
:101F3000F4B9694B1B68694A516B694A12681846C3
:101F400018F0A1F80346002B60D1664B1B88194698
:101F500000230293644B0193644B00931623644A5D
:101F6000644816F01CFC0346012B37D15F4B1B68FD
:101F7000614A51685C4A1268184618F084F80346B2
:101F8000002B13D15D4B06221A705D4B1A885B4BF8
:101F90001A815A4B00229A725A4B186800234FF04C
:101FA000FF32564912F09AFF02F0B7B9534B06229E
:101FB0001A70534B1A88514B1A81504B00229A7257
:101FC0004E4B03229A734D4B0722DA734B4B002280
:101FD0009A814A4802F070FE02F09FB9474B0622F0
:101FE0001A70474B1A88454B1A81444B00229A724B
:101FF000424B03229A73414B0822DA733F4B002273
:102000009A813E4802F058FE02F087B9324B1B68B5
:10201000324AD16B324A1268184618F034F8034637
:10202000002B10D1354B07221A70354B1A88334BD1
:102030001A81344B186800234FF0FF322F4912F0F9
:102040004DFF02F06AB9244B1B68244AD2F88C1069
:10205000234A1268184618F016F80346002B59D187
:10206000294B11221A70264B1A88274B1A811D4BB7
:102070001B881946002302931B4B01931B4B0093B3
:102080001023224A1B4816F08AFB0346012B18D165
:10209000164B1B6807F150010A22184617F03EFA4A
:1020A0000346A7F85C30184AB7F85C305381184BE8
:1020B000186800234FF0FF32134912F00FFF02F0AF
:1020C0002CB9114B03229A740F4B0822DA740E4874
:1020D00002F022FB02F021B9080C002054D90108BB
:1020E0000C0C0020F40B0020140C0020100C00201D
:1020F00098CB0108F403002064DD01084C0C00209B
:10210000180C0020D80F0020FC0C002084CB010804
:10211000680E0020A74B1B68A74AD2F89410A74A64
:102120001268184617F0AFFF0346002B10D1A44BDE
:1021300012221A70A34B1A88A14B1A81A24B18685D
:1021400000234FF0FF329E4912F0C8FE02F0E5B8BE
:10215000984B1B68984AD2F89C10984A1268184607
:1021600017F091FF0346002B10D1954B13221A70E4
:10217000944B1A88924B1A81934B186800234FF0A6
:10218000FF328F4912F0AAFE02F0C7B8894B1B68D4
:10219000894AD2F8A410894A1268184617F073FFCA
:1021A0000346002B10D1864B14221A70854B1A88D7
:1021B000834B1A81844B186800234FF0FF3280490B
:1021C00012F08CFE02F0A9B87A4B1B687A4AD2F85A
:1021D000AC107A4A1268184617F055FF0346002BD8
:1021E0005FD17A4B1B88194600230293784B0193E9
:1021F000784B00931023784A784816F0D0FA0346BB
:10220000012B43D16E4B15221A706E4B1A886C4B02
:102210001A81704B1B68724A51686D4A12681846E1
:1022200017F031FF0346002B0CD1654B00221A73C7
:10223000654B186800234FF0FF32614912F04EFEE3
:1022400002F06BB8634B1B68654AD168604A12683C
:10225000184617F018FF0346002B0CD1584B0122EB
:102260001A73594B186800234FF0FF32544912F08B
:1022700035FE02F052B8524B03229A74504B092299
:10228000DA744F4802F048FA02F047B84C4B032288
:102290009A744B4B0822DA74494802F03DFA02F076
:1022A0003CB8444B1B68444AD2F8B410434A126805
:1022B000184617F0E8FE0346002B10D1404B1622BB
:1022C0001A70404B1A883E4B1A813F4B1868002306
:1022D0004FF0FF323A4912F001FE02F01EB8354BC2
:1022E0001B68354AD2F8BC10344A1268184617F0F9
:1022F000CAFE0346002B3ED1314B17221A70314BD8
:102300001A882F4B1A81314B1B88194600230293E0
:102310002F4B01932F4B009310232F4A2F4816F079
:102320003EFA0346012B18D12A4B1B6807F14C01DA
:102330000A22184617F0F2F8034687F85E30204A62
:1023400097F85E305373204B186800234FF0FF322C
:102350001B4912F0C3FD01F0E0BF194B00225A7374
:10236000174B03229A74164B0822DA74144802F0B1
:10237000D3F901F0D2BF0F4B1B680F4AD2F8C4103B
:102380000E4A1268184617F07EFE0346002B29D12C
:102390000B4B18221A700B4B1A88094B1A810A4BE7
:1023A000186800234FF0FF32054912F097FD01F045
:1023B000B4BF00BF080C002054D901080C0C002049
:1023C000FC0C0020180C0020680E0020F40B0020EC
:1023D000140C0020100C002084CB0108F403002012
:1023E000B4DD01089B4B1B689B4A516C9B4A1268E9
:1023F000184617F048FE0346002B5FD1984B082281
:102400001A70984B1A88964B1A81974B1B8819465D
:1024100000230293954B0193954B00931023954A0B
:10242000954816F0BCF90346012B3CD1904B1B6834
:10243000924A51688D4A1268184617F024FE0346E6
:10244000002B0CD1864B00229A728D4B186800230A
:102450004FF0FF32824912F041FD01F05EBF844B24
:102460001B68864AD168814A1268184617F00BFE2D
:102470000346002B0CD17A4B01229A72804B1868CC
:1024800000234FF0FF32764912F028FD01F045BFDE
:10249000734B03221A74724B09225A74704801F06C
:1024A000DBFF01F03ABF6E4B03221A746C4B08221B
:1024B0005A746B4801F0D0FF01F02FBF654B1B68C9
:1024C000654AD16C654A1268184617F0DCFD034670
:1024D000002B10D1624B09221A70624B1A88604B94
:1024E0001A81674B186800234FF0FF325C4912F0E5
:1024F000F5FC01F012BF574B1B68574A516D574A04
:102500001268184617F0BFFD0346002B10D1544B3C
:102510000A221A70534B1A88514B1A81584B18686B
:1025200000234FF0FF324E4912F0D8FC01F0F5BE07
:10253000484B1B68484AD16D484A1268184617F044
:10254000A2FD0346002B10D1454B0B221A70454BC0
:102550001A88434B1A814A4B186800234FF0FF3208
:102560003F4912F0BBFC01F0D8BE3A4B1B683A4A17
:10257000516E3A4A1268184617F085FD0346002B43
:1025800010D1404B0C221A70364B1A883D4B1A81E1
:102590003D4B186800234FF0FF323A4912F09EFC81
:1025A00001F0BBBE2B4B1B682B4AD16E2B4A126825
:1025B000184617F068FD0346002B40F0BD80334BF2
:1025C0000D221A70274B1A88304B1A81264B1B8814
:1025D000194600230293254B0193254B00931623A4
:1025E0002B4A254816F0DBF80346012B40F0968075
:1025F0001F4B1B68274A516A1C4A1268184617F07D
:1026000042FD0346002B0CD1204B03229A72224B31
:10261000186800234FF0FF321C4912F05FFC01F0F4
:102620007CBE134B1B681B4AD16A104A12681846BD
:1026300017F029FD0346002B30D1144B02229A7269
:10264000154B186800234FF0FF32104912F046FC7A
:1026500001F063BE080C002054D901080C0C0020C6
:102660006C0C0020180C0020F40B0020140C00202F
:10267000100C002084CB0108F4030020B4DD010815
:10268000340E0020940C0020E80D0020D40C002013
:1026900098CB010834DC0108DC0E0020A54B1B6838
:1026A000A54A516BA54A1268184617F0ECFC034680
:1026B000002B0CD1A24B01229A72A24B1868002366
:1026C0004FF0FF329E4912F009FC01F026BE994BF3
:1026D0001B68994AD16B994A1268184617F0D3FCC7
:1026E0000346002B0CD1964B00229A72954B18682A
:1026F00000234FF0FF32924912F0F0FB01F00DBEC3
:102700008F4B00229A818E4B03221A748C4B072226
:102710005A748B4802F0E2F801F0FFBD884B0022AA
:102720009A81874B03221A74854B08225A74844875
:1027300002F0D4F801F0F1BD834B1B68834A516F5E
:10274000834A1268184617F09EFC0346002B40F09F
:1027500098807B4B0E221A707E4B1A88784B1A8118
:102760007D4B1B88194600230293744B0193714BD8
:1027700000931623794A7A4816F011F80346012B84
:1027800071D16C4B1B686C4A516A6C4A12681846CE
:1027900017F079FC0346002B0CD1694B03229A7287
:1027A000684B186800234FF0FF32654912F096FB22
:1027B00001F0B3BD5F4B1B685F4AD16A5F4A126884
:1027C000184617F060FC0346002B0CD15C4B02222C
:1027D0009A725C4B186800234FF0FF32584912F090
:1027E0007DFB01F09ABD534B1B68534A516B534A12
:1027F0001268184617F047FC0346002B0CD1504BCB
:1028000001229A724F4B186800234FF0FF324C4957
:1028100012F064FB01F081BD464B1B68464AD16B48
:10282000464A1268184617F02EFC0346002B0CD1BE
:10283000434B00229A72434B186800234FF0FF323B
:102840003F4912F04BFB01F068BD3D4B0022DA819D
:102850003B4B03221A743A4B07225A74384802F051
:102860003DF801F05ABD364B0022DA81344B032289
:102870001A74334B08225A74314802F02FF801F0D1
:102880004CBD314B1B68314AD16F314A1268184632
:1028900017F0F9FB0346002B7ED12F4B1B881946FE
:1028A00000230293254B0193224B009310232D4AC2
:1028B0002B4815F074FF0346012B62D1204B0F22E9
:1028C0001A70244B1A881E4B1A811D4B02229A72D1
:1028D000184B1B68244A5168184A1268184617F0AA
:1028E000D2FB0346002B0CD1154B0022DA72154B9C
:1028F000186800234FF0FF32114912F0EFFA01F08F
:102900000CBD0C4B1B68184AD1680C4A126818465B
:1029100017F0B9FB0346002B28D1094B0122DA72CC
:10292000084B186800234FF0FF32054912F0D6FA21
:1029300001F0F3BC100C002034DC0108140C002062
:10294000D40C0020DC0E0020080C002054D9010813
:102950000C0C0020180C0020F40B002098CB010870
:10296000F403002084CB0108B4DD0108A54B032249
:102970001A74A44B09225A74A24801F0AFFF01F067
:10298000CCBCA04B03221A749E4B08225A749D485B
:1029900001F0A4FF01F0C1BC9B4B1B689B4AD2F81D
:1029A00084109B4A1268184617F06DFB0346002BF3
:1029B00010D1944B10221A70964B1A88914B1A81A1
:1029C000954B186800234FF0FF328E4912F086FABB
:1029D00001F0A3BC8C4B1B688C4AD2F8D4108C4AF3
:1029E0001268184617F04FFB0346002B13D18B4B90
:1029F0001A221A70874B1A88884B1A81874B022239
:102A00009A72874B186800234FF0FF32834912F007
:102A100065FA01F082BC7C4B1B687C4AD2F8CC1072
:102A20007B4A1268184617F02EFB0346002B10D184
:102A30007A4B19221A70774B1A88784B1A81784B87
:102A4000186800234FF0FF32744912F047FA01F082
:102A500064BC6D4B1B686D4AD2F8DC106C4A12687E
:102A6000184617F010FB0346002B13D16B4B1B22AB
:102A70001A70684B1A88694B1A81684B03229A7244
:102A8000674B186800234FF0FF32644912F026FAB2
:102A900001F043BC5C4B1B685C4AD2F8E4105C4A12
:102AA0001268184617F0EFFA0346002B10D15B4B63
:102AB0001C221A70574B1A88584B1A81584B1868A9
:102AC00000234FF0FF32554912F008FA01F025BCFF
:102AD0004D4B1B684D4AD2F8EC104D4A126818460F
:102AE00017F0D1FA0346002B13D14C4B1D221A705C
:102AF000484B1A88494B1A81484B04229A72484B1A
:102B0000186800234FF0FF32444912F0E7F901F052
:102B100004BC3D4B1B683D4AD2F8FC103C4A12688D
:102B2000184617F0B0FA0346002B10D13D4B1F2278
:102B30001A70384B1A883B4B1A813B4B186800239C
:102B40004FF0FF32374912F0C9F901F0E6BB2E4BC6
:102B50001B682E4AD2F80C112D4A1268184617F03D
:102B600092FA0346002B10D12E4B21221A70294BCA
:102B70001A882C4B1A812C4B186800234FF0FF3217
:102B8000284912F0ABF901F0C8BB1F4B1B681F4A64
:102B9000D2F804111E4A1268184617F074FA034658
:102BA000002B69D11F4B20221A701A4B1A881D4B1B
:102BB0001A811E4B1B881946002302931C4B01935C
:102BC0001C4B009310231C4A1C4815F0E8FD0346DB
:102BD000012B44D1164B1B680F2B33D8154B1968AA
:102BE000134B1B6801331A46154817F038FA0E4B81
:102BF000186800234FF0FF320A4912F06FF901F014
:102C00008CBB00BFD40C0020080C002054D9010854
:102C10000C0C0020180C0020DC0E0020940C00206E
:102C2000E80D0020240D0020100F0020F40B0020E0
:102C3000140C0020100C002084CB0108F4030020A9
:102C40003C0D0020AD4B032283F82820AB4B09221A
:102C500083F82A20A94801F07FFC01F05EBBA74B56
:102C6000032283F82820A54B082283F82A20A348B2
:102C700001F072FC01F051BBA14B1B68A14AD2F8D4
:102C80001411A14A1268184617F0FDF90346002BEB
:102C900010D19A4B22221A709C4B1A88974B1A819A
:102CA0009B4B186800234FF0FF32944912F016F93D
:102CB00001F033BB924B1B68924AD2F81C11924A26
:102CC0001268184617F0DFF90346002B10D18B4B22
:102CD00023221A708D4B1A88884B1A818C4B1868E6
:102CE00000234FF0FF32854912F0F8F801F015BBD0
:102CF000834B1B68834AD2F82C11834A126818460A
:102D000017F0C1F90346002B5CD103F0EFFC03463A
:102D1000022B04D1012011F013FD01F0FEBA03F0E3
:102D2000E5FC0346002B27D103F0A4FC0346002B4F
:102D300016D1012003F0C4FC07F10803184603F084
:102D400099FD002387F84830704B198807F1080374
:102D5000009300230022252001F07BFF01F0DDBA63
:102D6000002003F0ADFC694B1988022304222520C2
:102D700001F000FF01F0D1BA03F0B8FC0346012BCB
:102D800041F0CB8203F0FAFC0346002B0ED1022067
:102D900003F096FC5D4B198800230022252001F0EA
:102DA000E9FE5C4803F09CFD01F0B7BA002003F097
:102DB00087FC564B198802230422252001F0DAFEF5
:102DC00001F0ABBA4E4B1B684F4A12685249184685
:102DD00017F059F90346002B0DD103F02DFD00200B
:102DE00003F06EFC494B198800230022252001F0D6
:102DF000C1FE01F092BA424B1B68424AD2F844111C
:102E0000414A1268184617F03EF90346002B39D1A3
:102E10004249434802F0FAF80346002B0BD03B4BE3
:102E20001B8819460023009308230322282001F061
:102E3000C1FF01F072BA3A4B1B68384A126811465A
:102E4000184604F049F80346184605F015FB0346FA
:102E5000002B0BD02D4B1B88194600230093092310
:102E60000322282001F0A6FF01F057BA274B1B8848
:102E700019460023009300230022282001F09AFF26
:102E800001F04BBA1E4B1B681E4AD2F84C111E4A69
:102E90001268184617F0F7F80346002B15D105F015
:102EA000D1FD03461A461F4B53F822301E4A1360C9
:102EB000164B1B8819461C4B1B68009300230022ED
:102EC000292001F077FF01F028BA0D4B1B680D4A4D
:102ED000D2F80C120C4A1268184617F0D4F80346C0
:102EE000002B23D1094B1B88194600230093002394
:102EF0000022412001F05EFF01F00FBA240D0020F6
:102F0000080C002054D901080C0C0020180C0020DB
:102F1000100F002000001E08B0CB0108140C002088
:102F2000100C002010000020D40D0020AE4B1B68B8
:102F3000AE4AD2F85411AE4A1268184617F0A3F8F8
:102F40000346002B39D1AB49AB4802F05FF803468A
:102F5000002B0BD0A94B1B88194600230093082394
:102F600003222A2001F026FF01F0D7B9A24B1B68EB
:102F7000A04A12681146184603F07EFF0346184621
:102F800005F0BAFA0346002B0BD09C4B1B88194660
:102F900000230093092303222A2001F00BFF01F0F4
:102FA000BCB9964B1B8819460023009300230022CE
:102FB0002A2001F0FFFE01F0B0B98B4B1B688B4A51
:102FC000D2F85C118A4A1268184617F05CF803467A
:102FD000002B15D105F042FD03461A46884B53F8E5
:102FE0002230884A1360854B1B881946854B1B6825
:102FF0000093002300222B2001F0DCFE01F08DB9AC
:10300000794B1B68794AD2F86411794A12681846DC
:1030100017F039F80346002B3ED17649764801F087
:10302000F5FF0346002B0BD0744B1B881946002379
:103030000093082303222C2001F0BCFE01F06DB99F
:103040006D4B1B687049184616F0E2F953EC102BD3
:1030500010461946FDF7D8FD034600EE103A05F07C
:10306000A5FA0346002B0BD0644B1B88194600239E
:103070000093092303222C2001F09CFE01F04DB99E
:103080005E4B1B88194600230093002300222C204E
:1030900001F090FE01F041B9534B1B68534AD2F83E
:1030A0006C11534A1268184616F0EDFF0346002BC8
:1030B00013D105F0DFFCF0EE407A524BC3ED007AFD
:1030C0004E4B1B8819464F4B1B6800930023002270
:1030D0002D2001F06FFE01F020B9434B1B68434ADD
:1030E000D2F87411424A1268184616F0CCFF034613
:1030F000002B40F08D803F493F4801F0ABFF034675
:10310000002B0BD03D4B1B8819460023009308234E
:1031100003222E2001F04EFE01F0FFB8364B1B6853
:10312000344A12681146184603F0A6FE03461A46B2
:10313000364B1A70354B93F90030B3F1FF3F04D092
:10314000324B93F90030002B0BD12C4B1B881946C6
:1031500000230093072303222E2001F02BFE01F011
:10316000D3B82449244801F051FF0346002B0BD06B
:10317000224B1B88194600230093082303222E208C
:1031800001F018FE01F0C9B8204B93F900401A4B2A
:103190001B681D49184616F03BF953EC102B1046DE
:1031A0001946FDF731FD034600EE103A204605F0C2
:1031B00025FA0346002B0BD0104B1B881946002321
:1031C0000093092303222E2001F0F4FD01F0A5B89D
:1031D0000A4B1B88194600230093002300222E204F
:1031E00001F0E8FD01F099B8080C002054D901085D
:1031F0000C0C0020140C0020100C0020180C0020D7
:1032000004000020D40D0020DC0D0020D80D00208B
:10321000AE4B1B68AE4AD2F87C11AE4A1268184613
:1032200016F031FF0346002B4DD1AB49AB4801F0FE
:1032300011FF0346002B0BD0A94B1B881946002316
:103240000093082303222F2001F0B4FD01F065B89C
:10325000A24B1B68A04A12681146184603F00CFEE8
:1032600003461A469F4B1A709E4B93F90030B3F1F8
:10327000FF3F04D09B4B93F90030002B0BD1984BB0
:103280001B88194600230093072303222F2001F0F7
:1032900091FD01F039B8934B93F90030184605F0D1
:1032A00025FCF0EE407A904BC3ED007A8C4B1B88E6
:1032B00019468D4B1B680093002300222F2001F03C
:1032C00079FD01F02AB8814B1B68814AD2F884113C
:1032D000804A1268184616F0D6FE0346002B78D1B5
:1032E0007D497E4801F0B6FE0346002B0BD07C4B97
:1032F0001B8819460023009308230322302001F085
:1033000059FD01F00AB8754B1B68734A12681146E3
:10331000184603F0B1FD03461A46724B1A70714B02
:1033200093F90030B3F1FF3F04D06E4B93F90030B6
:10333000002B0BD16A4B1B881946002300930723EF
:103340000322302001F036FD00F0DEBF6249634801
:1033500001F05CFE0346002B0BD0614B1B88194625
:103360000023009308230322302001F023FD00F006
:10337000D4BF5C4B93F90040584B1B685B4918461F
:1033800016F046F853EC102B10461946FDF73CFC9E
:10339000034600EE103A204605F078F90346002B6C
:1033A0000BD04F4B1B88194600230093092303229F
:1033B000302001F0FFFC00F0B0BF494B1B881946DC
:1033C0000023009300230022302001F0F3FC00F0E2
:1033D000A4BF3E4B1B683E4AD2F88C113D4A12688E
:1033E000184616F050FE0346002B4DD13A493B4893
:1033F00001F030FE0346002B0BD0394B1B881946D9
:103400000023009308230322312001F0D3FC00F0B5
:1034100084BF324B1B68304A12681146184603F0CD
:103420002BFD03461A462F4B1A702E4B93F9003092
:10343000B3F1FF3F04D02B4B93F90030002B0BD19D
:10344000274B1B88194600230093072303223120B2
:1034500001F0B0FC00F058BF224B93F90030184641
:1034600005F068FBF0EE407A1F4BC3ED007A1C4B71
:103470001B8819461C4B1B68009300230022312037
:1034800001F098FC00F049BF104B1B68104AD2F8BD
:103490009411104A1268184616F0F5FD0346002BE9
:1034A00040F08C800C490D4801F0D4FD0346002B00
:1034B0001ED00B4B1B8819460023009308230322C0
:1034C000322001F077FC00F028BF00BF080C00207C
:1034D00054D901080C0C0020140C0020100C002002
:1034E000180C0020D80D0020D40D0020DC0D002089
:1034F000B34B1B68B34A12681146184603F0BCFC74
:1035000003461A46B04B1A70AF4B93F90030B3F133
:10351000FF3F04D0AC4B93F90030002B0BD1AB4BE9
:103520001B8819460023009307230322322001F051
:1035300041FC00F0E9BEA349A14801F067FD034644
:10354000002B0BD0A14B1B881946002300930823A6
:103550000322322001F02EFC00F0DFBE9A4B93F9DB
:103560000040974B1B689A49184615F051FF53ECE1
:10357000102B10461946FDF747FB034600EE103AA4
:10358000204605F0CBF80346002B0BD08F4B1B8851
:1035900019460023009309230322322001F00AFC7C
:1035A00000F0BBBE894B1B88194600230093002303
:1035B0000022322001F0FEFB00F0AFBE854B1B68FD
:1035C000854AD2F89C11854A1268184616F05BFDB0
:1035D0000346002B4DD17B49794801F03BFD034662
:1035E000002B0BD0794B1B8819460023009308232E
:1035F0000322332001F0DEFB00F08FBE704B1B680E
:10360000704A12681146184603F036FC03461A4603
:103610006D4B1A706C4B93F90030B3F1FF3F04D03F
:10362000694B93F90030002B0BD1684B1B8819466E
:103630000023009307230322332001F0BBFB00F09B
:1036400063BE614B93F90030184605F097FAF0EE2F
:10365000407A634BC3ED007A5C4B1B881946604B84
:103660001B68009300230022332001F0A3FB00F02D
:1036700054BE584B1B68584AD2F8A411574A1268D6
:10368000184616F000FD0346002B78D14D494C48F2
:1036900001F0E0FC0346002B0BD04C4B1B88194675
:1036A0000023009308230322342001F083FB00F061
:1036B00034BE434B1B68434A12681146184603F058
:1036C000DBFB03461A46404B1A703F4B93F9003020
:1036D000B3F1FF3F04D03C4B93F90030002B0BD1EA
:1036E0003A4B1B88194600230093072303223420FA
:1036F00001F060FB00F008BE3249314801F086FC61
:103700000346002B0BD0314B1B8819460023009336
:1037100008230322342001F04DFB00F0FEBD2A4BAC
:1037200093F90040264B1B682949184615F070FE96
:1037300053EC102B10461946FDF766FA034600EECF
:10374000103A204605F032F80346002B0BD01F4BF1
:103750001B8819460023009309230322342001F01B
:1037600029FB00F0DABD194B1B8819460023009392
:1037700000230022342001F01DFB00F0CEBD154BCC
:103780001B68154AD2F8AC11144A1268184616F094
:103790007AFC0346002B60D10A49094801F05AFC23
:1037A0000346002B1ED0094B1B88194600230093AB
:1037B00008230322352001F0FDFA00F0AEBD00BF62
:1037C000100C0020140C0020D80D0020180C002034
:1037D000DC0D0020080C002054D901080C0C00203E
:1037E000D40D0020AF4B1B68AF4A12681146184633
:1037F00003F042FB03461A46AC4B1A70AB4B93F9ED
:103800000030B3F1FF3F04D0A84B93F90030002BF8
:103810000BD1A74B1B8819460023009307230322D3
:10382000352001F0C7FA00F06FBDA04B93F90030CE
:10383000184605F0C7F9F0EE407A9E4BC3ED007ACA
:103840009B4B1B8819469B4B1B680093002300224F
:10385000352001F0AFFA00F060BD974B1B68974A26
:10386000D2F8B411964A1268184616F00CFC0346BA
:10387000002B78D18C498B4801F0ECFB0346002BE0
:103880000BD08B4B1B88194600230093082303227F
:10389000362001F08FFA00F040BD824B1B68824A4F
:1038A00012681146184603F0E7FA03461A467F4BA2
:1038B0001A707E4B93F90030B3F1FF3F04D07B4B7D
:1038C00093F90030002B0BD1794B1B88194600234C
:1038D000009307230322362001F06CFA00F014BD98
:1038E0007149704801F092FB0346002B0BD0704BDE
:1038F0001B8819460023009308230322362001F079
:1039000059FA00F00ABD694B93F90040654B1B68FA
:103910006C49184615F07CFD53EC102B10461946E7
:10392000FDF772F9034600EE103A204605F01CF848
:103930000346002B0BD05E4B1B88194600230093D7
:1039400009230322362001F035FA00F0E6BC584B7B
:103950001B8819460023009300230022362001F023
:1039600029FA00F0DABC544B1B68544AD2F8BC1157
:10397000534A1268184616F086FB0346002B4DD1B9
:103980004949484801F066FB0346002B0BD0484BE1
:103990001B8819460023009308230322372001F0D7
:1039A00009FA00F0BABC3F4B1B683F4A1268114647
:1039B000184603F061FA03461A463C4B1A703B4B1B
:1039C00093F90030B3F1FF3F04D0384B93F9003046
:1039D000002B0BD1364B1B8819460023009307237D
:1039E0000322372001F0E6F900F08EBC2F4B93F94B
:1039F0000030184605F04AF9F0EE407A2D4BC3ED41
:103A0000007A2B4B1B8819462A4B1B680093002316
:103A10000022372001F0CEF900F07FBC264B1B6856
:103A2000264AD2F8C411264A1268184616F02BFB13
:103A30000346002B40F089801B491A4801F00AFB1D
:103A40000346002B0BD01A4B1B881946002300930A
:103A500008230322382001F0ADF900F05EBC114BC1
:103A60001B68114A12681146184603F005FA03460E
:103A70001A460E4B1A700D4B93F90030B3F1FF3F0D
:103A800004D00A4B93F90030002B1DD1084B1B8842
:103A900019460023009307230322382001F08AF9F6
:103AA00000F032BC100C0020140C0020D80D0020B7
:103AB000180C0020D40D0020080C002054D9010857
:103AC0000C0C0020DC0D0020AC49AD4801F09EFA42
:103AD0000346002B0BD0AB4B1B88194600230093E9
:103AE00008230322382001F065F900F016BCA64B2C
:103AF00093F90040A24B1B680A22A449184615F00E
:103B00000DFD07EE900AF8EEE77AFCEEE77A17EE85
:103B1000901A204604F090FE0346002B0AD0994BE1
:103B20001B8819460023009309230322382001F043
:103B300041F9F2E3934B1B881946002300930023BD
:103B40000022382001F036F9E7E3914B1B68914AD7
:103B5000D2F8CC11904A1268184616F094FA03462F
:103B6000002B49D18549864801F074FA0346002BA1
:103B70000AD0844B1B881946002300930823032294
:103B8000392001F017F9C8E37D4B1B687B4A1268A6
:103B90001146184603F070F903461A467A4B1A701C
:103BA000794B93F90030B3F1FF3F04D0764B93F992
:103BB0000030002B0AD1734B1B8819460023009359
:103BC00007230322392001F0F5F89DE36E4B93F9AA
:103BD0000030184605F01AF803461A466F4B1A6073
:103BE000684B1B8819466D4B1B680093002300220D
:103BF000392001F0DFF890E3654B1B68654AD2F885
:103C0000D411654A1268184616F03DFA0346002B97
:103C100073D15A495A4801F01DFA0346002B0AD0C5
:103C2000584B1B88194600230093082303223A208F
:103C300001F0C0F871E3524B1B68504A12681146FC
:103C4000184603F019F903461A464F4B1A704E4BAB
:103C500093F90030B3F1FF3F04D04B4B93F90030A0
:103C6000002B0AD1474B1B881946002300930723DA
:103C700003223A2001F09EF846E34049404801F013
:103C8000C5F90346002B0AD03E4B1B88194600237A
:103C90000093082303223A2001F08CF83DE33A4BCD
:103CA00093F90040364B1B680A223849184615F034
:103CB00035FC07EE900AF8EEE77AFCEEE77A17EEAD
:103CC000901A204604F016FE0346002B0AD02D4B16
:103CD0001B88194600230093092303223A2001F090
:103CE00069F81AE3274B1B88194600230093002329
:103CF00000223A2001F05EF80FE3254B1B68254AAD
:103D0000D2F8DC11244A1268184616F0BCF90346B2
:103D1000002B5BD119491A4801F09CF90346002B8E
:103D20000AD0184B1B88194600230093082303224E
:103D30003B2001F03FF8F0E2114B1B680F4A12687C
:103D40001146184603F098F803461A460E4B1A70AF
:103D50000D4B93F90030B3F1FF3F04D00A4B93F9B8
:103D60000030002B1CD1074B1B8819460023009301
:103D7000072303223B2001F01DF8C5E2140C0020AC
:103D8000100C0020180C0020D80D0020DC0D0020A5
:103D9000080C002054D901080C0C0020D40D002080
:103DA000A24B93F90030184604F050FF03461A4620
:103DB0009F4B1A609F4B1B8819469D4B1B680093B5
:103DC000002300223B2000F0F5FFA6E29A4B1B687F
:103DD0009A4AD2F8E4119A4A1268184616F053F932
:103DE0000346002B0FD1974B3C221A70914B1A8837
:103DF000944B1A81944B186800234FF0FF3291497D
:103E000011F06CF889E28C4B1B688C4AD2F8EC11EB
:103E10008B4A1268184616F036F90346002B40F01C
:103E20005E818A4B1B88194600230293884B0193BD
:103E3000884B00931023884A884814F0B0FC03464E
:103E4000012B40F01381834B1B68854A5168804ADF
:103E50001268184616F017F90346002B11D1794B5A
:103E60003D221A70774B00229A72724B1A88754B5A
:103E70001A81754B186800234FF0FF32714911F019
:103E80002DF8744B1B68764AD168714A126818463F
:103E900016F0F9F80346002B12D16A4B3D221A7036
:103EA000684B01229A72634B1A88664B1A81664BE3
:103EB000186800234FF0FF32624911F00FF82CE22E
:103EC000644B1B68664A5169614A1268184616F0CD
:103ED000DAF80346002B12D15A4B3D221A70594B87
:103EE00002229A72534B1A88564B1A81564B186805
:103EF00000234FF0FF32534910F0F0FF0DE2554B15
:103F00001B68574AD169524A1268184616F0BBF826
:103F10000346002B12D14B4B3D221A70494B032212
:103F20009A72444B1A88474B1A81474B18680023F2
:103F30004FF0FF32434910F0D1FFEEE1454B1B68D3
:103F4000474A516A424A1268184616F09CF80346DE
:103F5000002B12D13B4B3D221A703A4B04229A722D
:103F6000344B1A88374B1A81374B186800234FF0AF
:103F7000FF32344910F0B2FFCFE1364B1B68384AAC
:103F8000D16A334A1268184616F07DF80346002BB2
:103F900012D12C4B3D221A702A4B05229A72254BC6
:103FA0001A88284B1A81284B186800234FF0FF32DB
:103FB000244910F093FFB0E102F0D4FF02F0DEFFDD
:103FC0001E4B93F8E8311B4A12881146184603F03D
:103FD0007BF803F033F8234B93F84830194603205D
:103FE00004F020F902F0E2FF03F040F802F0A4FF31
:103FF000044602F0ABFF034619461B4B174A204606
:1040000002F07EFC184B1B689BB21A461349012034
:1040100010F0BEFB00BF012010F0CEFC0346212BA8
:10402000F9D0012010F08CFB77E100BFD80D002003
:10403000D40D0020180C0020080C002054D90108D1
:104040000C0C0020B40D0020AC0F0020F40B00205D
:10405000140C0020100C002084CB0108F403002075
:1040600084DD0108CCDC0108E00D002002F07AFFBD
:1040700002F084FFAB4B93F8E831AB4A128811464B
:10408000184603F021F802F0D9FFA84B93F840300E
:104090001946032004F0C6F802F088FF02F0E6FF9C
:1040A00002F04AFF044602F051FF03461946A04BB6
:1040B000A04A204602F024FC9D4B1B689BB21A4686
:1040C0009C49012010F064FB00BF012010F074FC3B
:1040D0000346212BF9D0012010F032FB1DE1964B55
:1040E0001B68904AD2F8F411944A1268184615F0E9
:1040F000CAFF0346002B0FD1914B3E221A708A4B08
:104100001A888F4B1A818F4B186800234FF0FF32AB
:104110008B4910F0E3FE00E1874B1B68814AD2F81F
:10412000FC11864A1268184615F0ADFF0346002BB5
:1041300073D18549854800F08DFF0346002B0AD0D6
:10414000794B1B88194600230093082303223F2044
:1041500000F030FEE1E07D4B1B687B4A126811469F
:10416000184602F089FE03461A46794B1A70784BBE
:1041700093F90030B3F1FF3F04D0754B93F9003051
:10418000002B0AD1684B1B88194600230093072394
:1041900003223F2000F00EFEB6E06B496B4800F0B2
:1041A00035FF0346002B0AD05F4B1B8819460023BE
:1041B0000093082303223F2000F0FCFDADE0644B98
:1041C00093F90040614B1B680A226249184615F0BA
:1041D000A5F907EE900AF8EEE77AFCEEE77A17EE1B
:1041E000901A204604F006FC0346002B0AD04E4BE2
:1041F0001B88194600230093092303223F2000F067
:10420000D9FD8AE0484B1B88194600230093002300
:1042100000223F2000F0CEFD7FE0474B1B68414A63
:10422000D2F80412454A1268184615F02CFF0346CE
:10423000002B49D14449454800F00CFF0346002BB0
:104240000AD0394B1B881946002300930823032208
:10425000402000F0AFFD60E03C4B1B683A4A12681A
:104260001146184602F008FE03461A46384B1A70EB
:10427000374B93F90030B3F1FF3F04D0344B93F93F
:104280000030002B0AD1284B1B88194600230093CD
:1042900007230322402000F08DFD35E02C4B93F9DD
:1042A0000030184604F016FD03461A462A4B1A60E1
:1042B0001D4B1B881946284B1B68009300230022C6
:1042C000402000F077FD28E0174B198805230322D2
:1042D000262000F04FFC20E0134B1988062304220F
:1042E000272000F047FC18E00F4B19880423022216
:1042F000272000F03FFC10E00B4B1988042302221A
:10430000272000F037FC08E007E0074B198804235A
:104310000222272000F02EFC00E000BF00BF603723
:10432000BD46B0BD54D90108180C0020CCDC0108F2
:10433000E00D0020F4030020080C00200C0C0020ED
:10434000B40D0020AC0F0020140C0020100C002035
:10435000D80D0020DC0D0020D40D002090B583B0D6
:1043600000AF786002F0FEFD02F008FE7B681B786B
:10437000002B12D1364B1B78364A1289114618464B
:1043800002F0A2FE02F05AFE7B681A7C7B685B7C1E
:104390001946104602F0E6FE47E07B681B78012BC9
:1043A00014D12B4B1B7A2B4A12891146184602F066
:1043B0008BFE02F043FE7B68187C7B68597C7B682F
:1043C000B3F90A301A4602F0DFFE2EE07B681B7854
:1043D000022B14D11E4B1B7C1E4A12891146184613
:1043E00002F072FE02F02AFE7B68187C7B68597C22
:1043F0007B68B3F90E301A4602F0F6FE15E07B68D2
:104400001B78032B11D1124B1B7E124A12891146C5
:10441000184602F059FE02F011FE7B681A7C7B6898
:104420005B7C1946104602F00FFF02F0BFFD02F060
:104430001DFE02F081FD044602F088FD0346194688
:10444000204600F0B7FD00BF0C37BD4690BD00BF51
:1044500054D90108240C002090B583B000AF7860D7
:1044600002F080FD02F08AFD7B681B78082B13D1D7
:10447000384B93F840207B681B891946104602F0A0
:1044800023FE02F0DBFD7B681A7C7B685B7C1946AF
:10449000104602F063FF4BE07B681B78092B14D1B8
:1044A0002C4B93F848207B681B891946104602F074
:1044B0000BFE02F0C3FD7B68187C7B68597C7B682F
:1044C0009B7A1A4602F05CFF32E07B681B780A2B6D
:1044D00015D1204B93F850207B681B891946104654
:1044E00002F0F2FD02F0AAFD7B68187C7B68597C23
:1044F0007B68B3F90C301A4602F078FF18E07B684D
:104500001B780B2B14D1134B93F858207B681B8915
:104510001946104602F0D8FD02F090FD7B68187C29
:104520007B68597C7B68B3F90E301A4602F08EFF27
:1045300002F03CFD02F09AFD02F0FEFC044602F09F
:1045400005FD03461946204600F034FD00BF0C3738
:10455000BD4690BD54D90108F0B589B006AF78606A
:1045600002F000FD02F00AFD7B681B781E2B15D1BE
:10457000674B93F8F030674A12881146184602F0EC
:10458000A3FD02F05BFD7B6893F828207B6893F81D
:104590002A301946104603F039FBA7E07B681B78E8
:1045A0001F2B20D15A4B93F8F8305A4A12881146E3
:1045B000184602F089FD02F041FD7B6893F828C09F
:1045C0007B6893F82AE07E686D4606F134040FCCD0
:1045D0000FC523682B8006F12C030CCB7146604677
:1045E00003F04AFA82E07B681B78212B16D1484BF6
:1045F00093F80831474A12881146184602F064FDC4
:1046000002F01CFD7B6893F828007B6893F82A1061
:104610007B6818331A4603F01DFB67E07B681B7844
:10462000202B15D13A4B93F800313A4A12881146A3
:10463000184602F049FD02F001FD7B6893F828203E
:104640007B6893F82A301946104603F0F1FA4DE0E2
:104650007B681B78222B15D12D4B93F810312D4AF6
:1046600012881146184602F02FFD02F0E7FC7B6825
:1046700093F828207B6893F82A301946104603F0F7
:1046800017FB33E07B681B78232B16D1204B93F864
:104690001831204A12881146184602F015FD02F022
:1046A000CDFC7B6893F828007B6893F82A107B6820
:1046B0000C331A4603F044FB18E07B681B78242B6C
:1046C00014D1134B93F81831124A12881146184628
:1046D00002F0FAFC02F0B2FC7B6893F828207B68B9
:1046E00093F82A301946104603F0C4FC02F05EFC31
:1046F00002F0BCFC02F020FC044602F027FC03465A
:104700001946204600F056FC00BF0C37BD46F0BDF0
:1047100054D90108180C002090B583B000AF786020
:1047200002F020FC02F02AFC7B681B78112B13D1CD
:10473000694B93F888207B681B891946104602F064
:10474000C3FC02F07BFC7B689A7C7B68DB7C1946AF
:10475000104602F083FFADE07B681B78122B14D16A
:104760005D4B93F890207B681B891946104602F038
:10477000ABFC02F063FC7B68987C7B68D97C7B682F
:104780005B891A4602F07CFF94E07B681B78132B50
:1047900015D1514B93F898207B681B891946104618
:1047A00002F092FC02F04AFC7B68987C7B68D97C22
:1047B0007B68B3F90E301A4602F092FF7AE07B680C
:1047C0001B78142B15D1444B93F8A0207B681B89D0
:1047D0001946104602F078FC02F030FC7B68987CA9
:1047E0007B68D97C7B68B3F910301A4602F0A8FFC9
:1047F00060E07B681B78152B13D1374B93F8A8200A
:104800007B681B891946104602F05EFC02F016FC1C
:104810007B689A7C7B68DB7C1946104603F02AFC97
:1048200048E07B681B78162B14D12B4B93F8B020F3
:104830007B681B891946104602F046FC02F0FEFB1D
:104840007B68987C7B68D97C7B681B7B1A4602F06E
:10485000A7FF2FE07B681B78172B13D11E4B93F813
:10486000B8207B681B891946104602F02DFC02F027
:10487000E5FB7B689A7C7B68DB7C1946104602F07E
:10488000EDFE17E07B681B78182B13D1124B93F8C1
:10489000C0207B681B891946104602F015FC02F007
:1048A000CDFB7B68987C7B68D97C7B685B7B1A46F8
:1048B00002F0E6FE02F07AFB02F0D8FB02F03CFBCD
:1048C000044602F043FB03461946204600F072FB03
:1048D00000BF0C37BD4690BD54D9010890B583B0D8
:1048E00000AF786002F03EFB02F048FB7B681B786B
:1048F0000D2B15D1384B93F868207B681B8919461E
:10490000104602F0E1FB02F099FB7B68187C7B68A3
:10491000597C7B68B3F90C301A4602F0F7FD49E088
:104920007B681B780E2B15D12B4B93F870207B687E
:104930001B891946104602F0C7FB02F07FFB7B681B
:10494000187C7B68597C7B68B3F90E301A4602F0FC
:104950000DFE2FE07B681B780F2B13D11E4B93F8B5
:1049600078207B681B891946104602F0ADFB02F0E7
:1049700065FB7B681A7C7B685B7C1946104602F0FD
:1049800025FE17E07B681B78102B13D1124B93F890
:1049900080207B681B891946104602F095FB02F0C7
:1049A0004DFB7B68187C7B68597C7B68DB7A1A46F8
:1049B00002F01EFE02F0FAFA02F058FB02F0BCFA16
:1049C000044602F0C3FA03461946204600F0F2FA04
:1049D00000BF0C37BD4690BD54D90108F0B587B073
:1049E00004AF786002F0BEFA02F0C8FA7B681B7868
:1049F0000C2B14D15E4B93F860207B681B89194601
:104A0000104602F061FB02F019FB7B68987F7B681F
:104A1000D97F7B689B7B1A4602F048FD96E07B6855
:104A20001B781A2B15D1524B93F8D0207B681B8929
:104A30001946104602F048FB02F000FB7B68987FA5
:104A40007B68D97F7B68B3F90C301A4602F00EFF01
:104A50007CE07B681B781B2B15D1454B93F8D82045
:104A60007B681B891946104602F02EFB02F0E6FA1D
:104A70007B68987F7B68D97F7B68B3F90C301A46D6
:104A800002F024FF62E07B681B781D2B15D1384BA8
:104A900093F8E8207B681B891946104602F014FB46
:104AA00002F0CCFA7B68987F7B68D97F7B68B3F98A
:104AB0000C301A4602F03AFF48E07B681B78192B4D
:104AC00015D12B4B93F8C8207B681B8919461046DB
:104AD00002F0FAFA02F0B2FA7B68987F7B68D97F1D
:104AE0007B68B3F910301A4602F090FE2EE07B6826
:104AF0001B781C2B2AD11E4B93F8E0207B681B8966
:104B00001946104602F0E0FA02F098FA7B689C7FA2
:104B10007B68DD7F7B68B3F912607B68B3F914C0F2
:104B20007B68B3F916307A68B2F918207968B1F960
:104B30001A107868B0F91C0003900291019200935A
:104B4000634632462946204602F020FF02F02EFA44
:104B500002F08CFA02F0F0F9044602F0F7F903468D
:104B60001946204600F026FA00BF0C37BD46F0BDBE
:104B700054D9010890B583B000AF044608461146E9
:104B80001A462346FB710346BB800B46BB71134696
:104B9000FB7002F0E7F902F0F1F9FB78042B05D184
:104BA000FB790021184602F08FFA05E0BA88FB79FC
:104BB0001146184602F088FA02F040FAFA78BB79FA
:104BC0001146184603F056FA02F0F0F902F04EFAD8
:104BD00002F0B2F9044602F0B9F90346194620463C
:104BE00000F0E8F900BF0C37BD4690BD90B583B02A
:104BF00000AF0446084611461A462346FB71034699
:104C0000BB800B46BB711346FB7002F0ABF902F0A0
:104C1000B5F9BA88FB791146184602F055FA02F048
:104C20000DFAF978BB79BA69184603F035FA02F043
:104C3000BDF902F01BFA02F07FF9044602F086F992
:104C400003461946204600F0B5F900BF0C37BD46B3
:104C500090BD90B583B000AF0446084611461A4691
:104C60002346FB710346BB800B46BB711346FB70AA
:104C700002F078F902F082F9BA88FB7911461846F9
:104C800002F022FA02F0DAF9F978BB79BA6918462B
:104C900003F030FA02F08AF902F0E8F902F04CF978
:104CA000044602F053F903461946204600F082F903
:104CB00000BF0C37BD4690BD90B583B000AF7860A3
:104CC00002F050F902F05AF97B681B78072B13D1D8
:104CD000374B93F838207B681B891946104602F041
:104CE000F3F902F0ABF97B689A7B7B68DB7B1946B2
:104CF000104602F0BBFA49E07B681B78042B13D105
:104D00002B4B93F820207B681B891946104602F034
:104D1000DBF902F093F97B689A7B7B68DB7B1946B1
:104D2000104602F0A3FA31E07B681B78052B14D102
:104D30001F4B93F828207B681B891946104602F008
:104D4000C3F902F07BF97B68987B7B68D97B7B6831
:104D5000DB7A1A4602F09CFA18E07B681B78062B77
:104D600014D1134B93F830207B681B8919461046E9
:104D700002F0AAF902F062F97B68987B7B68D97B24
:104D80007B68B3F90C301A4602F0B8FA02F00EF95B
:104D900002F06CF902F0D0F8044602F0D7F80346AE
:104DA0001946204600F006F900BF0C37BD4690BDFD
:104DB00054D9010890B587B000AF396011461A4642
:104DC0000346FB710B46BB7113467B7102F0CAF8B8
:104DD00002F0D4F8FB79434A12F833303A6892B2C1
:104DE0001146184602F070F902F028F9FB79412BC0
:104DF0005EDC2D2B04DA292B41D02B2B3FD057E042
:104E00002D3B012202FA03F340F255521A40002AC8
:104E100014BF01220022D2B2002A37D103F40522A6
:104E2000002A14BF01220022D2B2002A39D103F491
:104E30008013002B14BF01230023DBB2002B37D0DB
:104E400003F034FE87ED050A03F022FE87ED040A25
:104E500003F03AFE87ED030A03F03FFE87ED020AF6
:104E60007A79BB79D7ED021A97ED031AD7ED050AC7
:104E700097ED040A1146184603F08AF81FE0BA6A53
:104E80007979BB79184603F055F818E0D7ED0A7A1E
:104E90007A79BB79B0EE670A1146184602F0EAFF4C
:104EA0000DE0BA6A7979BB79184603F015F806E087
:104EB0007A79BB791146184603F0CAF800BF02F0B0
:104EC00075F802F0D3F802F037F8044602F03EF825
:104ED00003461946204600F06DF800BF1C37BD465A
:104EE00090BD00BF54D9010890B583B000AF786081
:104EF00002F038F802F042F87B681B783C2B14D1A2
:104F00002B4B93F8E0217B681B891946104602F071
:104F1000DBF802F093F87B68187B7B68597B7B6831
:104F2000DB7A1A4603F012F92FE07B681B783D2BE1
:104F300013D11F4B93F8E8217B681B891946104653
:104F400002F0C2F802F07AF87B681A7B7B685B7B20
:104F50001946104603F066F917E07B681B783E2B74
:104F600013D1134B93F8F0217B681B891946104627
:104F700002F0AAF802F062F87B68187B7B68597B24
:104F80007B689B7A1A4603F017F902F00FF802F0DB
:104F90006DF801F0D1FF044601F0D8FF0346194631
:104FA000204600F007F800BF0C37BD4690BD00BF9B
:104FB00054D9010880B584B000AF78600B467B807F
:104FC0000023FB60798807F10C030F4A786801F031
:104FD00097FCFB689BB21A460B4901200FF0D8FBE7
:104FE00000BF01200FF0E8FC0346212BF9D04FF45D
:104FF00080620021044815F02AF801200FF0A0FB80
:1050000000BF1037BD4680BDF403002080B586B0D8
:1050100004AF786039600C4B1B881946002302935B
:105020003B6801937B6800931023084A084813F0FB
:10503000B6FB0346012B14BF01230023DBB2184645
:105040000837BD4680BD00BFF40B002084CB0108AB
:10505000F403002080B586B004AF786039600C4B53
:105060001B881946002302933B6801937B680093D9
:105070001623084A084813F092FB0346012B14BF7D
:1050800001230023DBB218460837BD4680BD00BFB0
:10509000F40B002098CB0108F403002080B584B005
:1050A00002AF0022202101200FF0BAFE0346164A6B
:1050B0001360154B1B68002B01D100231FE0002259
:1050C000202101200FF0ACFE0346104A13600F4B65
:1050D0001B68002B01D1002311E00D4B019300232D
:1050E000009300234FF480720A490B4810F0C7FB6D
:1050F00078607B68012B01D0002300E00123184673
:105100000837BD4680BD00BFE80D0020EC0D002033
:10511000E40D0020C4CB01081D51000880B58AB001
:1051200000AF78600FF0FEF80FF0A0F9774B1B6826
:10513000FA227749184610F0A5F80346012BF5D15D
:10514000734B1B7887F8273097F827300C2B1DD12D
:10515000002387F8243007F1240318460DF002FFDE
:105160000346002B05D001220321694800F0F0F826
:1051700009E000220021664800F0EAF897F82430A0
:10518000184600F023F900F065F9CFE797F82730CB
:105190001A2B07D097F827301B2B03D097F827300E
:1051A0001D2B38D15A4B9B7A184600F0B3F80346B2
:1051B000012B05D107220321554800F0C9F827E04B
:1051C00000237B84524B9B7A07F12202114618463A
:1051D0000FF0B8F8034687F8253097F82530002BF4
:1051E0000CD097F827301D2B01D10E2300E00D23A2
:1051F0001A460421464800F0ABF804E000220021E2
:10520000434800F0A5F8B7F92230184600F0CEF870
:1052100000F020F979E097F82730192B20D10023EE
:105220003B8407F1200318460EF016FF0346012BBE
:1052300009D111220421364800F08AF84FF0FF30DE
:1052400000F0A4F809E000220021314800F080F8C5
:10525000B7F92030184600F099F800F0FBF865E740
:1052600097F827301C2B7FF461AF07F1140300225D
:105270001A605A609A6007F1080300221A605A60A7
:105280009A60002387F8263007F1140318460FF0C0
:1052900015F9034687F8263007F1080318460FF082
:1052A00021F903461A4697F82630134387F826302B
:1052B00097F82630002B0FD00E220421144800F05E
:1052C00047F800220021002000F090F80022002181
:1052D000002000F0A5F816E0002200210C4800F0A4
:1052E00037F87B691BB2BA6911B2FA6912B2184673
:1052F00000F07CF8BB681BB2FA6811B23A6912B2CE
:10530000184600F08DF800F0A5F80FE7E80D002032
:10531000F00D002080B483B000AF0346FB71FB7931
:10532000002B0BD0FB79012B08D0FB79022B05D089
:10533000FB79042B02D0FB79032B01D1002300E081
:10534000012318460C37BD465DF8047B704700000A
:1053500080B483B000AF78600B46FB701346BB701F
:105360007B681A78084B1A707B681A89064B1A8179
:10537000054AFB789377044ABB78D37700BF0C3794
:10538000BD465DF8047B7047100E002080B483B0EA
:1053900000AF0346FB80044AFB88138200BF0C3732
:1053A000BD465DF8047B7047100E002080B483B0CA
:1053B00000AF0346FB80044AFB88938100BF0C3793
:1053C000BD465DF8047B7047100E002080B483B0AA
:1053D00000AF0346FB71044AFB79937300BF0C379F
:1053E000BD465DF8047B7047100E002080B483B08A
:1053F00000AF0346FB800B46BB8013467B80074A09
:10540000FB885382054ABB889382044A7B88D382F7
:1054100000BF0C37BD465DF8047B7047100E0020BE
:1054200080B483B000AF0346FB800B46BB801346BD
:105430007B80074AFB881383054ABB885383044A51
:105440007B88938300BF0C37BD465DF8047B7047B3
:10545000100E002080B500AF044B186800234FF0F9
:10546000FF3203490FF03AFD00BF80BDEC0D002074
:10547000100E002080B584B002AF0022142101205C
:105480000FF0CEFC0346154A1360144B1B68002B2B
:1054900001D100231EE00022142101200FF0C0FCE6
:1054A00003460F4A13600E4B1B68002B01D10023EB
:1054B00010E00C4B019300230093002380220A4943
:1054C0000A4810F0DCF978607B68012B01D00023DA
:1054D00000E0012318460837BD4680BD340E002089
:1054E000380E0020300E0020C8CB0108F15400080F
:1054F00080B584B000AF7860374B1B68FA2237491B
:1055000018460FF0BFFE0346012BF5D1334B1B7835
:10551000FB73FB7B082B15D1304B9B7A18460DF0A3
:1055200047FD0346012B05D1012203212B4800F042
:1055300057F804E000220021284800F051F800F05C
:105540009DF8D9E7FB7B092B0FD10DF05DFD0346DC
:10555000FB7200220021214800F042F8FB7A184635
:1055600000F05CF800F08AF8C6E7FB7B0A2B10D14C
:105570000DF056FD0346BB8100220021174800F0C4
:105580002FF8B7F90C30184600F058F800F076F80C
:10559000B2E7FB7B0B2BAFD100233B8107F1080364
:1055A000194600200EF0CEFE0346BB73BB7B002BDA
:1055B00005D00E220421094800F012F804E0002270
:1055C0000021064800F00CF8B7F90830184600F042
:1055D00045F800F053F88FE7340E00203C0E002011
:1055E00080B483B000AF78600B46FB701346BB708D
:1055F0007B681A78084B1A707B681A89064B1A81E7
:10560000054AFB781374044ABB78537400BF0C3707
:10561000BD465DF8047B7047500E002080B483B017
:1056200000AF0346FB71044AFB79937200BF0C374D
:10563000BD465DF8047B7047500E002080B483B0F7
:1056400000AF0346FB80044AFB88938100BF0C3700
:10565000BD465DF8047B7047500E002080B483B0D7
:1056600000AF0346FB80044AFB88D38100BF0C37A0
:10567000BD465DF8047B7047500E002080B500AF3A
:10568000044B186800234FF0FF3203490FF026FC4B
:1056900000BF80BD380E0020500E002080B584B0C1
:1056A00002AF0022142101200FF0BAFB0346154A75
:1056B0001360144B1B68002B01D100231EE0002255
:1056C000142101200FF0ACFB03460F4A13600E4B70
:1056D0001B68002B01D1002310E00C4B0193002329
:1056E0000093002380220A490A4810F0C8F8786025
:1056F0007B68012B01D0002300E001231846083706
:10570000BD4680BD680E00206C0E0020640E002097
:10571000D0CB01081957000880B584B000AF78607D
:105720000DF0EAFB684B1B68FA22684918460FF037
:10573000A9FD0346012BF5D1644B1B78FB73FB7B62
:10574000112B15D1614B5B8918460DF049FD0346BD
:10575000002B05D00B2203215C4800F0BBF804E0CD
:1057600000220021594800F0B5F800F001F9D9E70E
:10577000FB7B122B0DD100220021544800F0AAF827
:105780000DF08AFD0346184600F0C2F800F0F0F86C
:10579000C8E7FB7B132B0DD1002200214B4800F002
:1057A00099F80DF085FD0346184600F0C1F800F0A9
:1057B000DFF8B7E7FB7B142B1FD10023BB8107F178
:1057C0000C03194601200EF0BDFD0346BB73BB7BE5
:1057D000002B05D00D2204213C4800F07BF804E0AA
:1057E00000220021394800F075F8B7F90C3018464E
:1057F00000F0AEF800F0BCF894E7FB7B152B21D14C
:10580000324B1B7B002B08D164200DF085FB00225E
:1058100000212E4800F05EF811E02C4B1B7B012B81
:1058200008D100200DF078FB00220021274800F06D
:1058300051F804E00A220421244800F04BF800F05B
:1058400097F86FE7FB7B162B12D1002200211F482F
:1058500000F040F80DF078FB0346002B0CBF01234D
:105860000023DBB21A46194B1A7300F081F859E78E
:10587000FB7B172B16D1154B5B7B642B05D90922BB
:105880000321124800F026F809E0104B5B7B184614
:105890000DF042FB002200210C4800F01BF800F044
:1058A00067F83FE7FB7B182B7FF43CAF0DF04CFB18
:1058B00003461A46064B5A7300220021034800F0A3
:1058C00009F800F055F82DE7680E0020700E002052
:1058D000840E002080B483B000AF78600B46FB706C
:1058E0001346BB707B681A78084B1A707B681A895C
:1058F000064B1A81054AFB789374044ABB78D3742B
:1059000000BF0C37BD465DF8047B7047840E002055
:1059100080B483B000AF0346FB80044AFB88538108
:1059200000BF0C37BD465DF8047B7047840E002035
:1059300080B483B000AF0346FB80044AFB88D38168
:1059400000BF0C37BD465DF8047B7047840E002015
:1059500080B483B000AF0346FB80044AFB88138207
:1059600000BF0C37BD465DF8047B7047840E0020F5
:1059700080B500AF044B186800234FF0FF32034995
:105980000FF0ACFA00BF80BD6C0E0020840E00202A
:1059900080B584B000AF7860642010F0BFF80EF0DE
:1059A00095FB654B1B684FF0FF32644918460FF0BA
:1059B00069FC0346012BF4D1604B1B78FB73FB7B26
:1059C000032B22D10EF082FB0346002B0ED00E23B8
:1059D00004225A495A4800F03FF95A4B18680023EC
:1059E0004FF0FF3256490FF079FADAE70023002230
:1059F0005249534800F030F9524B186800234FF0D9
:105A0000FF324F490FF06AFACBE7FB7B002B53D1F3
:105A10004A4BB3F90A30184600F0F8F80346012B58
:105A20000ED10B2303224549454800F015F9454B9B
:105A3000186800234FF0FF3241490FF04FFAB0E7EA
:105A40003E4BB3F90A3018460EF056FB03461A4691
:105A50003D4B1A703C4B1B78002B19D03A4B1B78EE
:105A6000052B06D1122304223449354800F0F4F8FE
:105A700005E00E2304223149314800F0EDF8314BA6
:105A8000186800234FF0FF322D490FF027FA88E7FE
:105A90000023002229492A4800F0DEF8274BB3F9F9
:105AA0000A20274B5A81274B186800234FF0FF32FA
:105AB00023490FF013FA74E7FB7B012B14D1002369
:105AC00000221E491E4800F0C7F80EF027FB0346CF
:105AD0001A461B4B5A811B4B186800234FF0FF32AC
