:020000040800F2
:1000000000000320457D0008FD750008FF7500080D
:10001000017600080376000805760008000000005D
:10002000000000000000000000000000B100010816
:10003000077600080000000051010108B501010821
:10004000957D0008957D0008957D0008957D000848
:10005000957D0008957D0008957D0008957D000838
:10006000957D000809760008957D0008957D0008BB
:10007000957D0008957D0008957D0008957D000818
:10008000957D0008957D0008957D0008957D000808
:10009000957D0008957D0008957D0008957D0008F8
:1000A000957D0008157600082D760008957D0008DE
:1000B000957D000845760008957D0008957D00082F
:1000C000957D0008957D0008957D0008957D0008C8
:1000D000957D00085D7600086D760008957D000826
:1000E000957D0008957D0008957D0008957D0008A8
:1000F0007D760008957D0008957D0008957D0008B7
:10010000957D0008957D0008957D0008957D000887
:10011000957D0008957D000895760008A976000871
:10012000957D0008957D0008957D0008957D000867
:10013000957D0008957D0008957D0008957D000857
:10014000957D0008957D0008957D0008957D000847
:10015000957D0008957D0008957D0008957D000837
:10016000957D0008957D0008957D0008957D000827
:10017000957D0008957D0008957D0008957D000817
:10018000957D0008957D0008957D0008957D000807
:10019000957D0008957D0008957D0008957D0008F7
:0C01A0000000000000000000957D000839
:1001B00010B5054C237833B9044B13B10448AFF3A1
:1001C00000800123237010BD740300200000000094
:1001D0007443010808B5034B1BB103490348AFF34F
:1001E000008008BD0000000078030020744301086F
:1001F000034613F8012B002AFBD1181A0138704767
:1002000001F0FF01102A2BDB10F0070F08D010F8C7
:10021000013B013A8B422DD010F0070F42B3F6D1CB
:10022000F0B441EA012141EA014122F007047FF0E4
:1002300000070023F0E80256083C85EA010586EA3B
:10024000010685FA47F5A3FA87F586FA47F6A5FA77
:1002500087F68EB9EED1F0BC01F0FF0102F0070283
:1002600032B110F8013B013A83EA010313B1F8D12E
:100270000020704701387047002D06BF354603380F
:10028000073815F0010F07D1013015F4807F02BF48
:10029000013015F4C03F0130F0BC0138704700BF99
:1002A00081F0004102E000BF83F0004330B54FEA27
:1002B00041044FEA430594EA050F08BF90EA020F94
:1002C0001FBF54EA000C55EA020C7FEA645C7FEA27
:1002D000655C00F0E2804FEA5454D4EB5555B8BF4A
:1002E0006D420CDD2C4480EA020281EA030382EABB
:1002F000000083EA010180EA020281EA0303362D4D
:1003000088BF30BD11F0004F4FEA01314FF4801C1F
:100310004CEA113102D0404261EB410113F0004F31
:100320004FEA03334CEA133302D0524263EB4303E8
:1003300094EA050F00F0A780A4F10104D5F1200E86
:100340000DDB02FA0EFC22FA05F2801841F10001E1
:1003500003FA0EF2801843FA05F359410EE0A5F1B5
:1003600020050EF1200E012A03FA0EFC28BF4CF0E6
:10037000020C43FA05F3C01851EBE37101F000459C
:1003800007D54FF0000EDCF1000C7EEB00006EEBA9
:100390000101B1F5801F1BD3B1F5001F0CD3490833
:1003A0005FEA30004FEA3C0C04F101044FEA44528A
:1003B00012F5800F80F09A80BCF1004F08BF5FEA11
:1003C000500C50F1000041EB045141EA050130BDF1
:1003D0005FEA4C0C404141EB0101013C28BFB1F503
:1003E000801FE9D291F0000F04BF01460020B1FA4E
:1003F00081F308BF2033A3F10B03B3F120020CDA21
:100400000C3208DD02F1140CC2F10C0201FA0CF0FE
:1004100021FA02F10CE002F11402D8BFC2F1200C63
:1004200001FA02F120FA0CFCDCBF41EA0C01904019
:10043000E41AA2BF01EB0451294330BD6FEA040462
:100440001F3C1CDA0C340EDC04F11404C4F120024D
:1004500020FA04F001FA02F340EA030021FA04F35F
:1004600045EA030130BDC4F10C04C4F1200220FAB6
:1004700002F001FA04F340EA0300294630BD21FAF4
:1004800004F0294630BD94F0000F83F4801306BFBA
:1004900081F480110134013D4EE77FEA645C18BFAE
:1004A0007FEA655C29D094EA050F08BF90EA020F45
:1004B00005D054EA000C04BF1946104630BD91EA3D
:1004C000030F1EBF0021002030BD5FEA545C05D140
:1004D0004000494128BF41F0004130BD14F580047F
:1004E0003CBF01F5801130BD01F0004545F0FE41F3
:1004F00041F470014FF0000030BD7FEA645C1ABF28
:10050000194610467FEA655C1CBF0B46024650EA5E
:10051000013406BF52EA033591EA030F41F400218A
:1005200030BD00BF90F0000F04BF0021704730B510
:100530004FF4806404F132044FF000054FF00001E5
:1005400050E700BF90F0000F04BF0021704730B5A6
:100550004FF4806404F1320410F0004548BF40427B
:100560004FF000013EE700BF42004FEAE2014FEAD0
:1005700031014FEA02701FBF12F07F4393F07F4FAB
:1005800081F06051704732F07F4208BF704793F0AE
:100590007F4F04BF41F40021704730B54FF46074C1
:1005A00001F0004521F000411CE700BF50EA0102C4
:1005B00008BF704730B54FF000050AE050EA01026D
:1005C00008BF704730B511F0004502D5404261EBDD
:1005D00041014FF4806404F132045FEA915C3FF41E
:1005E000D8AE4FF003025FEADC0C18BF03325FEABB
:1005F000DC0C18BF033202EBDC02C2F1200300FA6C
:1006000003FC20FA02F001FA03FE40EA0E0021FA90
:1006100002F11444BDE600BF70B54FF0FF0C4CF47E
:10062000E06C1CEA11541DBF1CEA135594EA0C0F30
:1006300095EA0C0F00F0DEF82C4481EA030621EA6B
:100640004C5123EA4C5350EA013518BF52EA0335A6
:1006500041F4801143F4801338D0A0FB02CE4FF058
:100660000005E1FB02E506F00042E0FB03E54FF088
:100670000006E1FB03569CF0000F18BF4EF0010E80
:10068000A4F1FF04B6F5007F64F5407404D25FEA7C
:100690004E0E6D4146EB060642EAC62141EA55512F
:1006A0004FEAC52040EA5E504FEACE2EB4F1FD0C71
:1006B00088BFBCF5E06F1ED8BEF1004F08BF5FEAEF
:1006C000500E50F1000041EB045170BD06F00046A1
:1006D00046EA010140EA020081EA0301B4EB5C044E
:1006E000C2BFD4EB0C0541EA045170BD41F4801146
:1006F0004FF0000E013C00F3AB8014F1360FDEBF6B
:10070000002001F0004170BDC4F10004203C35DA46
:100710000C341BDC04F11404C4F1200500FA05F3C9
:1007200020FA04F001FA05F240EA020001F000426A
:1007300021F0004110EBD37021FA04F642EB0601E0
:100740005EEA430E08BF20EAD37070BDC4F10C040A
:10075000C4F1200500FA04F320FA05F001FA04F2CE
:1007600040EA020001F0004110EBD37041F10001BA
:100770005EEA430E08BF20EAD37070BDC4F12005C5
:1007800000FA05F24EEA020E20FA04F301FA05F22D
:1007900043EA020321FA04F001F0004121FA04F2D5
:1007A00020EA020000EBD3705EEA430E08BF20EAA5
:1007B000D37070BD94F0000F0FD101F000464000DF
:1007C00041EB010111F4801F08BF013CF7D041EA61
:1007D000060195F0000F18BF704703F00046520065
:1007E00043EB030313F4801F08BF013DF7D043EA36
:1007F0000603704794EA0C0F0CEA135518BF95EAEC
:100800000C0F0CD050EA410618BF52EA4306D1D172
:1008100081EA030101F000414FF0000070BD50EA91
:10082000410606BF1046194652EA430619D094EA1B
:100830000C0F02D150EA013613D195EA0C0F05D105
:1008400052EA03361CBF104619460AD181EA030159
:1008500001F0004141F0FE4141F470014FF0000011
:1008600070BD41F0FE4141F4780170BD70B54FF0AC
:10087000FF0C4CF4E06C1CEA11541DBF1CEA13552C
:1008800094EA0C0F95EA0C0F00F0A7F8A4EB05040E
:1008900081EA030E52EA03354FEA013100F0888005
:1008A0004FEA03334FF0805545EA131343EA1263CE
:1008B0004FEA022245EA111545EA10654FEA002683
:1008C0000EF000419D4208BF964244F1FD0404F53C
:1008D000407402D25B084FEA3202B61A65EB030598
:1008E0005B084FEA32024FF480104FF4002CB6EB55
:1008F000020E75EB030E22BFB61A754640EA0C00D5
:100900005B084FEA3202B6EB020E75EB030E22BF14
:10091000B61A754640EA5C005B084FEA3202B6EB55
:10092000020E75EB030E22BFB61A754640EA9C0014
:100930005B084FEA3202B6EB020E75EB030E22BFE4
:10094000B61A754640EADC0055EA060E18D04FEAA2
:10095000051545EA16754FEA06164FEAC30343EA42
:1009600052734FEAC2025FEA1C1CC0D111F4801F0F
:100970000BD141EA00014FF000004FF0004CB6E708
:1009800011F4801F04BF01430020B4F1FD0C88BFA7
:10099000BCF5E06F3FF6AFAEB5EB030C04BFB6EBB2
:1009A000020C5FEA500C50F1000041EB045170BDA5
:1009B0000EF0004E4EEA113114EB5C04C2BFD4EBD2
:1009C0000C0541EA045170BD41F480114FF0000E56
:1009D000013C90E645EA060E8DE60CEA135594EAD2
:1009E0000C0F08BF95EA0C0F3FF43BAF94EA0C0FD5
:1009F0000AD150EA01347FF434AF95EA0C0F7FF44A
:100A000025AF104619462CE795EA0C0F06D152EA9D
:100A100003353FF4FDAE1046194622E750EA410681
:100A200018BF52EA43067FF4C5AE50EA41047FF492
:100A30000DAF52EA43057FF4EBAE12E74FF0FF3CF7
:100A400006E000BF4FF0010C02E000BF4FF0010CC8
:100A50004DF804CD4FEA410C7FEA6C5C4FEA430C41
:100A600018BF7FEA6C5C1BD001B050EA410C0CBF90
:100A700052EA430C91EA030F02BF90EA020F0020F2
:100A8000704710F1000F91EA030F58BF994208BF59
:100A900090422CBFD8176FEAE37040F00100704716
:100AA0004FEA410C7FEA6C5C02D150EA013C07D16D
:100AB0004FEA430C7FEA6C5CD6D152EA033CD3D0B8
:100AC0005DF8040B704700BF8446104662468C46B2
:100AD0001946634600E000BF01B5FFF7B7FF0028E5
:100AE00048BF10F1000F01BD4DF808EDFFF7F4FF0E
:100AF0000CBF012000205DF808FB00BF4DF808ED99
:100B0000FFF7EAFF34BF012000205DF808FB00BFBB
:100B10004DF808EDFFF7E0FF94BF012000205DF8DD
:100B200008FB00BF4DF808EDFFF7CEFF94BF012092
:100B300000205DF808FB00BF4DF808EDFFF7C4FF8B
:100B400034BF012000205DF808FB00BF4A0011D22D
:100B500012F5001211D20DD56FF47873B3EB625217
:100B60000ED44FEAC12343F0004343EA505323FA23
:100B700002F070474FF00000704750EA013002D198
:100B80004FF0FF3070474FF0000070474FEA4102CE
:100B9000B2F1E04324BFB3F5001CDCF1FE5C0DD9DB
:100BA00001F0004C4FEAC0024CEA5070B2F1004F25
:100BB00040EB830008BF20F00100704711F0804F28
:100BC00021D113F13872BCBF01F00040704741F4ED
:100BD00080114FEA5252C2F11802C2F1200C10FAF1
:100BE0000CF320FA02F018BF40F001004FEAC123D5
:100BF0004FEAD32303FA0CFC40EA0C0023FA02F379
:100C00004FEA4303CCE77FEA625307D150EA01334E
:100C10001EBF4FF0FE4040F44000704701F000401E
:100C200040F0FE4040F40000704700BF53B94AB99D
:100C3000002908BF00281CBF4FF0FF314FF0FF30E4
:100C400000F0A0B9ADF1080C6DE904CE00F03CF85D
:100C5000DDF804E0DDE9022304B0704738B5002276
:100C6000002304460D46FFF749FF28B920462946D0
:100C7000BDE8384000F00AB8204605F1004100F018
:100C800005F8404261EB410138BD00BFD0B50C4BC7
:100C9000002206460F46FFF7BFFCFFF757FF04464A
:100CA000FFF740FC074B0022FFF7B6FC02460B465D
:100CB00030463946FFF7F8FAFFF748FF2146D0BD26
:100CC0000000F03D0000F0412DE9F047089D0C4682
:100CD000002B4ED194468C458646B2FA82F262D9F8
:100CE0004AB1C2F12003914020FA03F30CFA02FC4E
:100CF000194300FA02FE4FEA1C471FFA8CF6B1FBBB
:100D0000F7F44FEA1E4307FB141143EA014304FBC7
:100D100006F199420AD91CEB030304F1FF3080F07D
:100D20001281994240F20F81023C6344591A1FFA22
:100D30008EF3B1FBF7F007FB101143EA014300FB10
:100D400006F69E420AD91CEB030300F1FF3180F046
:100D5000FC809E4240F2F980634402389B1B40EACB
:100D6000044000211DB1D3400022C5E90032BDE896
:100D7000F0878B4205D90DB1C5E900010021084675
:100D8000F5E7B3FA83F1002946D1A34202D390429A
:100D9000C0F0F080861A64EB03030120002DE6D03A
:100DA000C5E90063E3E7002A40F09080A1EB0C0462
:100DB0004FEA1C481FFA8CF70121B4FBF8F64FEA02
:100DC0001E4308FB164443EA044307FB06F098421F
:100DD00008D91CEB030306F1FF3402D2984200F25B
:100DE000CD8026461C1A1FFA8EF3B4FBF8F008FBE0
:100DF000104443EA044300FB07F79F4208D91CEB69
:100E0000030300F1FF3402D29F4200F2B08020467B
:100E1000DB1B40EA0640A5E7C1F120068B4022FA21
:100E200006F71F4320FA06FC04FA01F343EA0C0319
:100E3000F44000FA01F8380C4FEA1349B4FBF0FE15
:100E40001FFA87FC00FB1E4449EA04440EFB0CF920
:100E5000A14502FA01F20AD93C190EF1FF3A80F0DD
:100E60008480A14540F28180AEF1020E3C44A4EBA7
:100E700009041FFA83F9B4FBF0F300FB134449EAB9
:100E8000044403FB0CFCA44507D93C1903F1FF30D3
:100E900067D2A44565D9023B3C4443EA0E40A0FB1F
:100EA0000293A4EB0C049C42CE469C4651D34ED0F8
:100EB00055B1B8EB0E0364EB0C0404FA06F6CB4014
:100EC0001E43CC40C5E90064002150E7C2F1200375
:100ED00020FA03F10CFA02FC24FA03F394400C43C9
:100EE0004FEA1C4800FA02FE1FFA8CF7B3FBF8F039
:100EF00008FB1031230C43EA014300FB07F1994240
:100F000008D91CEB030300F1FF362CD299422AD9F1
:100F1000023863445B1AA4B2B3FBF8F108FB113347
:100F200044EA034401FB07F3A34208D91CEB040481
:100F300001F1FF3613D2A34211D902396444E41AF5
:100F400041EA004139E70446F0E6084606E7C845AD
:100F5000AED2B9EB020E63EB070C0138A8E73146BD
:100F6000EDE7034699E73046D4E7D6467FE763448A
:100F700002384DE70646234608460FE7023E634423
:100F800030E700BF704700BF00B585B00023029373
:100F9000019100901023064A06490988064810F07E
:100FA0002DF9013818BF012005B05DF804FB00BF22
:100FB000C04301087C0500208009002000B585B0F1
:100FC00000230293019100901623064A06490988DE
:100FD000064810F013F9013818BF012005B05DF87C
:100FE00004FB00BFD44301087C05002080090020D9
:100FF00010B582B0002301930D4C01AB224604F0E2
:1010000089F8BDF80420214601200DF025FE0124B9
:1010100020460DF0C5FE2128FAD04FF48062002151
:10102000034811F0E0F801200DF004FE02B010BDFD
:1010300080090020F8B506460F4614461D4604F008
:1010400011FB04F015FB3946304604F065FB04F053
:101050003FFB069A2946204605F0B0F804F014FB41
:1010600004F042FB04F0F4FA044604F0F5FA0146F9
:101070002046FFF7BDFFF8BDF8B52DED048B044603
:101080000F4615461E4604F0EDFA04F0F1FAB9B227
:10109000304B13F8340004F03FFB04F019FB412CF3
:1010A00040D82C2C3AD9A4F12D03DBB24FF0010C1F
:1010B0000CFA03FC40F255531CEA030F3DD11CF41B
:1010C000052F41D1412C2DD105F006FBF0EE408AD1
:1010D00005F0FCFAB0EE408A05F004FBB0EE409A51
:1010E00005F004FBF0EE401AB0EE491AF0EE680A83
:1010F000B0EE480A3146284604F0FEFF04F0C4FA78
:1011000004F0F2FA04F0A4FA044604F0A5FA014649
:101110002046FFF76DFFBDEC048BF8BD04F0FD0425
:10112000292C04D03146284605F040F8E6E70A9A13
:101130003146284604F0BEFFE0E79DED0A0A31463D
:10114000284604F067FFD9E70A9A3146284604F09A
:1011500091FFD3E734500108F8B506460F4615460F
:101160001C4604F07FFA04F083FA042C0CBF002123
:101170003946304604F0D0FA04F0AAFA214628464F
:1011800005F018F804F080FA04F0AEFA04F060FA02
:10119000044604F061FA01462046FFF729FFF8BD36
:1011A00010B5044604F05EFA04F062FA23789BB1AD
:1011B000012B1ED0022B2BD0032B38D004F064FA65
:1011C00004F092FA04F044FA044604F045FA0146A9
:1011D0002046FFF70DFF10BD1B4B19891B4B1878DC
:1011E00004F09AFA04F074FA617C207C04F0C2FAEC
:1011F000E4E7154B1989154B187A04F08DFA04F0C1
:1012000067FAB4F90A20617C207C04F0B7FAD5E7CC
:101210000D4B19890D4B187C04F07EFA04F058FA36
:10122000B4F90E20617C207C04F0C8FAC6E7064BB6
:101230001989064B187E04F06FFA04F049FA617CB4
:10124000207C04F0DBFAB9E73C05002034500108AB
:1012500010B5044604F006FA04F00AFA2378082BC5
:1012600013D0092B1ED00A2B2AD00B2B37D004F019
:101270000BFA04F039FA04F0EBF9044604F0ECF947
:1012800001462046FFF7B4FE10BD21891B4B93F8A1
:10129000400004F041FA04F01BFA617C207C04F069
:1012A000FBFAE4E72189154B93F8480004F034FA7F
:1012B00004F00EFAA27A617C207C04F0F1FAD6E701
:1012C00021890E4B93F8500004F026FA04F000FA3E
:1012D000B4F90C20617C207C04F008FBC7E721896D
:1012E000064B93F8580004F017FA04F0F1F9B4F93A
:1012F0000E20617C207C04F019FBB8E73450010813
:1013000010B586B0044604F0ADF904F0B1F92378C5
:101310001E2B07D01F3B052B13D8DFE803F021510C
:101320003F617183474B1988474B93F8F00004F0F5
:10133000F3F904F0CDF994F82A1094F8280004F099
:10134000A3FD04F0A1F904F0CFF904F081F90446FB
:1013500004F082F901462046FFF74AFE06B010BDB0
:10136000384B1988384B93F8F80004F0D5F904F09D
:10137000AFF9EC4604F1340EBEE80F00ACE80F0004
:10138000DEF80030ACF8003004F12C030CCB94F8FC
:101390002A1094F8280004F0D9FCD2E7294B1988C8
:1013A000294B93F8080104F0B7F904F091F904F11E
:1013B000180294F82A1094F8280004F06DFDC0E794
:1013C000204B1988204B93F8000104F0A5F904F094
:1013D0007FF994F82A1094F8280004F059FDB0E73A
:1013E000184B1988184B93F8100104F095F904F084
:1013F0006FF994F82A1094F8280004F06FFDA0E724
:10140000104B1988104B93F8180104F085F904F07B
:101410005FF904F10C0294F82A1094F8280004F003
:1014200091FD8EE7074B1988074B93F8180104F0DC
:1014300073F904F04DF994F82A1094F8280004F098
:10144000B9FE7EE7580500203450010810B5044667
:1014500004F008F904F00CF92378112B08D0123BA2
:10146000062B11D8DFE803F01E2C3B4A57657200AB
:1014700021893D4B93F8880004F04EF904F028F9D7
:10148000E17CA07C04F0FCFA04F0FEF804F02CF9F6
:1014900004F0DEF8044604F0DFF801462046FFF7CA
:1014A000A7FD10BD2189304B93F8900004F034F96A
:1014B00004F00EF96289E17CA07C04F0E5FAE3E730
:1014C0002189294B93F8980004F026F904F000F9DB
:1014D000B4F90E20E17CA07C04F0F6FAD4E721896F
:1014E000214B93F8A00004F017F904F0F1F8B4F9D7
:1014F0001020E17CA07C04F007FBC5E721891A4B92
:1015000093F8A80004F008F904F0E2F8E17CA07C6C
:1015100004F050FEB8E72189134B93F8B00004F0B3
:10152000FBF804F0D5F8227BE17CA07C04F00CFBF6
:10153000AAE721890C4B93F8B80004F0EDF804F009
:10154000C7F8E17CA07C04F09BFA9DE72189064B5B
:1015500093F8C00004F0E0F804F0BAF8627BE17C94
:10156000A07C04F091FA8FE73450010810B584B0E4
:10157000044604F077F804F07BF823780C2B07D0AE
:10158000193B042B11D8DFE803F04C1F2E5B3D0004
:1015900021893A4B93F8600004F0BEF804F098F803
:1015A000A27BE17FA07F04F0E1F904F06DF804F084
:1015B0009BF804F04DF8044604F04EF8014620462E
:1015C000FFF716FD04B010BD21892C4B93F8D00015
:1015D00004F0A2F804F07CF8B4F90C20E17FA07FBD
:1015E00004F0F8FAE1E72189244B93F8D80004F0DD
:1015F00093F804F06DF8B4F90C20E17FA07F04F0BB
:1016000009FBD2E721891D4B93F8E80004F084F828
:1016100004F05EF8B4F90C20E17FA07F04F01AFB1F
:10162000C3E72189154B93F8C80004F075F804F05E
:101630004FF8B4F91020E17FA07F04F0ABFAB4E7D3
:1016400021890E4B93F8E00004F066F804F040F8AE
:10165000B4F91C300393B4F91A300293B4F918307A
:101660000193B4F916300093B4F91430B4F9122090
:10167000E17FA07F04F00EFB97E700BF3450010824
:1016800010B5044603F0EEFF03F0F2FF23780D2BB4
:1016900013D00E2B20D00F2B2DD0102B38D003F0D1
:1016A000F3FF04F021F803F0D3FF044603F0D4FF66
:1016B00001462046FFF79CFC10BD21891B4B93F887
:1016C000680004F029F804F003F8B4F90C20617CF8
:1016D000207C04F06BF9E2E72189144B93F8700049
:1016E00004F01AF803F0F4FFB4F90E20617C207CBA
:1016F00004F07CF9D3E721890C4B93F8780004F0CF
:101700000BF803F0E5FF617C207C04F08FF9C6E75D
:101710002189064B93F8800003F0FEFF03F0D8FF09
:10172000E27A617C207C04F085F9B8E73450010846
:1017300010B5044603F096FF03F09AFF2378072BB9
:1017400013D0042B1ED0052B29D0062B35D003F047
:101750009BFF03F0C9FF03F07BFF044603F07CFF0F
:1017600001462046FFF744FC10BD21891A4B93F82F
:10177000380003F0D1FF03F0ABFFE17BA07B04F066
:1017800041F8E4E72189144B93F8200003F0C4FFEB
:1017900003F09EFFE17BA07B04F034F8D7E72189BA
:1017A0000D4B93F8280003F0B7FF03F091FFE27AA6
:1017B000E17BA07B04F02AF8C9E72189064B93F866
:1017C000300003F0A9FF03F083FFB4F90C20E17BA4
:1017D000A07B04F041F8BAE73450010810B5044684
:1017E00003F040FF03F044FF23783C2B11D03D2B46
:1017F0001DD03E2B28D003F047FF03F075FF03F008
:1018000027FF044603F028FF01462046FFF7F0FBC0
:1018100010BD2189134B93F8E00103F07DFF03F025
:1018200057FFE27A617B207B04F008FDE3E7218922
:101830000C4B93F8E80103F06FFF03F049FF617B65
:10184000207B04F047FDD6E72189064B93F8F00191
:1018500003F062FF03F03CFFA27A617B207B04F07F
:1018600013FDC8E7345001082DE9F04397B003F0A9
:1018700071FDAB4DAB4CAC4E05E00022AB490DF019
:10188000FAFD012837D04FF0FF3128680DF0BCFE7B
:1018900023688342F1D03368834202F01982A44B5B
:1018A0001B68834202F02082A24B1B68834202F035
:1018B0002782A14B1B68834202F02E829F4B1B683C
:1018C000834202F035829E4B1B68834202F03C82C9
:1018D0009C4B1B68834202F043829B4B1B688342F4
:1018E000D1D1002299490DF0C6FD0128CBD19748EE
:1018F000FFF774FFC7E7DFF88C82954A41468B48B3
:1019000003F09EFC07464046FEF772FC411E89B27A
:101910004FF6FF73994208BF00218E4B1980404655
:101920000FF020FB012800D13FB1042302228A4995
:1019300009882720FFF710FCA5E7884B5F68384629
:10194000FEF756FC034600220292854A0192854A20
:1019500000923A467F49098840460FF04FFC012823
:1019600007D0042302227C4909882720FFF7F4FBD3
:1019700089E77A4BDF683846FEF73AFC03460022D7
:101980000292794A0192794A00923A46714909884D
:1019900040460FF033FC012807D0042302226E4991
:1019A00009882720FFF7D8FB6DE70A2270496F4BA3
:1019B000186810F0D7FA6F4B18606F4B1B884FF602
:1019C000FF72934208BF002804D023EAE3739842D1
:1019D00042F3758187B2604B1F80674B1F80614B5C
:1019E000D3F800805E4BD3F800904A46634BD3F89F
:1019F000F410404610F013FC002853D04A465F4BC9
:101A0000D3F82411404610F00AFC002800F0EF80C3
:101A10004A465A4BD3F81412404610F000FC0028F6
:101A200000F0F7804A46554BD3F81C12404610F0A0
:101A3000F6FB002840F04681002302934A4B0193B5
:101A40004A4B009310234E4A424909884D480FF0F3
:101A5000D5FB012840F02481444B1F68424BD3F84A
:101A600000804246484BD968384610F0D8FB002821
:101A700000F0F9804246444B5968384610F0CFFBDD
:101A8000002840F0038103F0AFFC012800F0FB8048
:101A900000231A4630490988384890F81802FFF7A1
:101AA0005BFBF0E6394B1E221A701F810023029364
:101AB0002D4B01932D4B00931023314A2549098862
:101AC00030480FF09BFB012840F08780274B1F68B0
:101AD000254BD3F8008042462D4B5968384610F00C
:101AE0009EFB002858D04246294B5969384610F0D1
:101AF00096FB00285BD04246254BD969384610F04A
:101B00008EFB00285FD12149032381F8293000236F
:101B10004FF0FF321F4800680DF042FBB3E600BFF4
:101B20006C05002074050020640E00208005002054
:101B3000F40D0020340F0020280E0020C00D0020DE
:101B4000980E00208C0F0020600F0020A0030020C2
:101B5000900300207C05002058050020E44E010879
:101B600064050020680500205C0500206005002059
:101B70009403002054050020500500203450010833
:101B8000C0430108800900206C44010808040020BB
:101B90007C4F0108380F00204649002381F8293086
:101BA0004FF0FF32444800680DF0FAFA6BE6414905
:101BB000022381F8293000234FF0FF323E480068AD
:101BC0000DF0EEFA5FE63B48032380F82830092346
:101BD00080F82A30FFF794FB55E63648032380F857
:101BE0002830082380F82A30FFF78AFB4BE631487B
:101BF000242303700781002380F8283080F82A30DE
:101C0000FFF77EFB4FF4FA7006F038FF07F06EFA2C
:101C100039E603F0E9FBE0B103F0CEFB01280ED07A
:101C200000287FF430AE254B1F8803F043FC009062
:101C300000231A4639464220FFF7FCF923E6002329
:101C4000009301231A461D4909884220FFF7F2F943
:101C500019E6002300931023042218490988422022
:101C6000FFF7E8F90FE603F0BFFB48B100231A467F
:101C700012490988124890F81802FFF76DFA02E637
:101C800003F0B8FBF2E703F0E9FB01E709230322C5
:101C90000A4909880A4890F81802FFF75DFAF2E548
:101CA0000823032205490988054890F81802FFF720
:101CB00053FAE8E508040020380F002058050020FA
:101CC0003450010803F08AFB002840F02781C54BFF
:101CD0001F68C54BD3F800804246C44BD3F824128A
:101CE000384610F09CFA002800F022814246BF4B93
:101CF0005968384610F093FA002800F07F81424678
:101D0000BA4BD968384610F08AFA002800F0A4814E
:101D10004246B64B5969384610F081FA002800F067
:101D2000A9814246B14BD969384610F078FA0028AB
:101D300000F0AF814246AD4B596A384610F06FFA59
:101D4000002800F0B5814246A84BD96A384610F009
:101D500066FA002800F044824246A44B596B38468C
:101D600010F05DFA002800F09F8242469F4BD96B2D
:101D7000384610F054FA002800F0E08242469B4BAF
:101D8000D3F88C10384610F04AFA002800F0E582AB
:101D90004246964BD3F89410384610F040FA00288B
:101DA00000F00A834246914BD3F89C10384610F05D
:101DB00036FA002800F00F8342468C4BD3F8A4106B
:101DC000384610F02CFA002800F014834246874B66
:101DD000D3F8AC10384610F022FA002800F019832E
:101DE0004246824BD3F8B410384610F018FA002857
:101DF00000F0608342467D4BD3F8BC10384610F0AB
:101E00000EFA002800F065834246784BD3F8C410E0
:101E1000384610F004FA002800F08C834246734BD9
:101E2000596C384610F0FBF9002800F0AD834246AB
:101E30006E4BD96C384610F0F2F9002800F0F583AB
:101E400042466A4B596D384610F0E9F9002800F017
:101E5000FB834246654BD96D384610F0E0F9002807
:101E600000F001844246614B596E384610F0D7F9B4
:101E7000002800F0078442465C4BD96E384610F0CB
:101E8000CEF9002800F00D844246584B596F384671
:101E900010F0C5F9002800F07F844246534BD96FFB
:101EA000384610F0BCF9002800F00F8542464F4B31
:101EB000D3F88410384610F0B2F9002800F05885A5
:101EC00042464A4BD3F8D410384610F0A8F90028FF
:101ED00000F05D854246454BD3F8CC10384610F0F3
:101EE0009EF9002800F064854246404BD3F8DC1090
:101EF000384610F094F9002840F069853C491B23CE
:101F00000B703C4B1B880B8103238B7200234FF01B
:101F1000FF32394800680DF043F9B4E40023009320
:101F20000F230522334909884220FFF783F8AAE4EA
:101F300003F05AFAF8B903F095FB03F099FB2D4B27
:101F400019882A4B93F8180203F0E6FB03F0C0FB54
:101F500000221146104604F0C1F903F095FB03F08E
:101F6000C3FB03F075FB074603F076FB01463846DA
:101F7000FFF73EF887E403F037FA012812D009236F
:101F800003221C490988194890F81802FFF7E4F861
:101F900003F05EFB074603F05FFB01463846FFF7A0
:101FA00027F870E403F05EFB03F062FB114B198825
:101FB0000E4B93F8180203F0AFFB03F089FB0122EC
:101FC0000021084604F08AF903F05EFB03F08CFB65
:101FD00003F03EFB074603F03FFB01463846FFF7A0
:101FE00007F850E46805002064050020345001081B
:101FF000C004002058050020C40D00209D4A002385
:1020000013709D490988118102939C4B01939C4B4D
:10201000009310239B4A9C4909889C480FF0EEF8D6
:10202000012809D093480023438103230374082324
:102030004374FFF7B5F826E40A2205A9904B186807
:102040000FF090FF8B49488100234FF0FF329048FA
:1020500000680DF0A5F816E4864901230B70864B45
:102060001B880B8100234FF0FF32894800680DF078
:1020700097F808E47F4902230B707F4B1B880B8184
:1020800000234FF0FF32824800680DF089F8FFF717
:10209000FABB784903230B70774B1B880B81002315
:1020A0004FF0FF327A4800680DF07AF8FFF7EBBB8B
:1020B00000230293714B0193714B00931623754AD1
:1020C0007149098871480FF099F8012877D16B4B55
:1020D0001A68714B59686A4B186810F0A0F800280C
:1020E0005CD100230293654B0193654B0093102351
:1020F000644A6549098865480FF080F801283CD199
:10210000664B04221A705C4A12881A8100229A7265
:102110005B4B1F68594BD3F800804246604B5968AF
:10212000384610F07CF890B142465D4BD96838468D
:1021300010F075F8B0B959490123CB7200234FF064
:10214000FF32584800680DF02BF8FFF79CBB53494D
:102150000023CB724FF0FF32524800680DF020F898
:10216000FFF791BB4D48032383730923C3730023F7
:102170008381FFF7DDFAFFF786BB4848042303702D
:102180003D4B1B8803810023837203228273082244
:10219000C2738381FFF7CCFAFFF775BB3F48042376
:1021A0000370354B1B8803810023837203228273E3
:1021B0000722C2738381FFF7BBFAFFF764BB37487E
:1021C000042303702C4B1B8803810023837203229A
:1021D00082730722C2738381FFF7AAFAFFF753BB0A
:1021E00000230293254B0193254B00931623294A84
:1021F0002549098825480FF001F8012829D11F4BEE
:102200001A68254B59681E4B186810F008F878B901
:10221000224905230B70184B1B880B8100238B72FE
:102220004FF0FF321F4800680CF0BAFFFFF72BBBDE
:102230001A4805230370104B1B8803810023837207
:10224000032282730722C2738381FFF771FAFFF7BB
:102250001ABB124805230370074B1B880381002318
:102260008372032282730822C2738381FFF760FAAC
:10227000FFF709BB3C050020580500205C05002045
:1022800060050020C04301087C0500208009002073
:10229000680E0020D44301082C4E010818050020C8
:1022A000DC4D0108900F002000230293A94B0193FD
:1022B000A94B00931623A94AA9490988A9480EF0F9
:1022C0009DFF012829D1A34B1A68A74B5968A24B3F
:1022D00018680FF0A4FF78B9A44906230B70A44B2B
:1022E0001B880B8100238B724FF0FF32A1480068DE
:1022F0000CF056FFFFF7C7BA9C48062303709C4BAF
:102300001B88038100238372032282730722C27316
:102310008381FFF70DFAFFF7B6BA944806230370DE
:10232000934B1B880381002383720322827308224C
:10233000C2738381FFF7FCF9FFF7A5BA8B49072326
:102340000B708B4B1B880B8100234FF0FF328948A9
:1023500000680CF025FFFFF796BA874B11221A7020
:10236000834A12881A81002302937A4B01937A4B95
:1023700000931023814A7A4909887A480EF03EFF7B
:10238000012808D07C48032383740823C374FFF713
:102390005DF8FFF778BA0A2205A96F4B18680FF0AD
:1023A000E1FD7549488100234FF0FF327448006811
:1023B0000CF0F6FEFFF767BA6F4912230B706C4BF7
:1023C0001B880B8100234FF0FF326D4800680CF032
:1023D000E7FEFFF758BA684913230B70644B1B885C
:1023E0000B8100234FF0FF32654800680CF0D8FEE7
:1023F000FFF749BA604914230B705D4B1B880B81B2
:1024000000234FF0FF325E4800680CF0C9FEFFF772
:102410003ABA002302934F4B01934F4B0093102382
:10242000564A4F4909884F480EF0E8FE012838D136
:10243000514B15221A704E4A12881A81464B1F685A
:10244000444BD3F8008042464E4B596838460FF053
:10245000E6FE90B142464B4BD96838460FF0DFFE9E
:10246000B0B9454901230B7300234FF0FF324448B4
:1024700000680CF095FEFFF706BA3F4900230B7386
:102480004FF0FF323E4800680CF08AFEFFF7FBB9C0
:102490003948032383740923C374FEF7D7FFFFF77A
:1024A000F2B93548032383740823C374FEF7CEFFC3
:1024B000FFF7E9B9304916230B702D4B1B880B81B0
:1024C00000234FF0FF322E4800680CF069FEFFF742
:1024D000DAB9294B17221A70254A12881A8100236B
:1024E00002931C4B01931C4B00931023234A1C495D
:1024F00009881C480EF082FE01280AD01E480023DD
:102500004373032383740823C374FEF79FFFFFF70D
:10251000BAB90A2205A9104B18680FF023FD164915
:10252000487300234FF0FF32154800680CF038FE66
:10253000FFF7A9B9104918230B700D4B1B880B81AD
:1025400000234FF0FF320E4800680CF029FEFFF721
:102550009AB900BF5C05002060050020D443010843
:102560007C050020800900202C4E01081805002061
:1025700058050020900F002064040020C04301088B
:102580002C0E0020EC4D0108A34B08221A70A34A20
:1025900012881A8100230293A14B0193A14B00934F
:1025A0001023A14AA1490988A1480EF027FE01285D
:1025B00032D19C4B1F689A4BD3F8008042469D4B0A
:1025C000596838460FF02BFE90B14246994BD968B6
:1025D00038460FF024FEB0B98F4901238B720023D7
:1025E0004FF0FF32944800680CF0DAFDFFF74BB96A
:1025F000894900238B724FF0FF328F4800680CF03E
:10260000CFFDFFF740B984480323037409234374C3
:10261000FEF71EFEFFF737B97F4803230374082334
:102620004374FEF715FEFFF72EB97B4909230B70A3
:102630007A4B1B880B8100234FF0FF327E480068E5
:102640000CF0AEFDFFF71FB973490A230B70734BF3
:102650001B880B8100234FF0FF32774800680CF095
:102660009FFDFFF710B96C490B230B706B4B1B8858
:102670000B8100234FF0FF326F4800680CF090FD93
:10268000FFF701B96D490C230B70644B1B880B815C
:1026900000234FF0FF326A4800680CF081FDFFF71D
:1026A000F2B8684B0D221A705C4A12881A81002316
:1026B00002935B4B01935B4B00931623624A5B4989
:1026C00009885B480EF09AFD01285AD1554B1F68C6
:1026D000534BD3F8008042465C4B596A38460FF0A2
:1026E0009EFD90B14246594BD96A38460FF097FD8E
:1026F000B8B9544902238B7200234FF0FF3254487B
:1027000000680CF04DFDFFF7BEB84E4903238B72F5
:1027100000234FF0FF324E4800680CF041FDFFF7F8
:10272000B2B84246494B596B38460FF078FD58B95C
:10273000444901238B7200234FF0FF324448006864
:102740000CF02EFDFFF79FB84246404BD96B384640
:102750000FF065FD50B93B4900238B724FF0FF32FB
:102760003B4800680CF01CFDFFF78DB8354800238E
:1027700083810323037407234374FEF781FFFFF76C
:1027800082B83048002383810323037408234374F1
:10279000FEF776FFFFF777B82A4B0E221A701F4A12
:1027A00012881A81002302931D4B01931D4B009345
:1027B0001623254A1D4909881D480EF01FFD0128D2
:1027C00078D1184B1F68164BD3F8008042461F4B38
:1027D000596A38460FF023FD58B91A4903238B7202
:1027E00000234FF0FF321A4800680CF0D9FCFFF7C5
:1027F0004AB84246154BD96A38460FF010FD48BB1F
:10280000104902238B7200234FF0FF3210480068FA
:102810000CF0C6FCFFF737B8F40400205805002080
:102820005C05002060050020C04301087C050020F5
:1028300080090020EC4D0108F80D0020C0040020A4
:10284000C40D00208C040020D4430108E44E01088C
:102850009C0E00204246B34B596B38460FF0DFFC0C
:1028600088B14246AF4BD96B38460FF0D8FCB0B9AF
:10287000AD4900238B724FF0FF32AC4800680CF07A
:102880008FFCFFF700B8A84901238B7200234FF09B
:10289000FF32A64800680CF083FCFEF7F4BFA248A4
:1028A0000023C3810323037407234374FEF7E8FE68
:1028B000FEF7E9BF9C480023C38103230374082368
:1028C0004374FEF7DDFEFEF7DEBF00230293984B54
:1028D0000193984B00931023974A98490988984888
:1028E0000EF08CFC01283AD18F4B0F221A70954ABA
:1028F00012881A8102229A728E4B1F688C4BD3F871
:1029000000804246904B596838460FF088FC50B919
:1029100085490023CB724FF0FF32844800680CF0E9
:102920003FFCFEF7B0BF4246874BD96838460FF0F0
:1029300076FC58B97C490123CB7200234FF0FF325B
:102940007A4800680CF02CFCFEF79DBF7648032304
:10295000037409234374FEF793FEFEF794BF724895
:102960000323037408234374FEF78AFEFEF78BBF2C
:102970006D4910230B70734B1B880B8100234FF0A4
:10298000FF326A4800680CF00BFCFEF77CBF6F4911
:102990001A230B706B4B1B880B8102238B72002355
:1029A0004FF0FF326A4800680CF0FAFBFEF76BBF8D
:1029B000664919230B70634B1B880B8100234FF072
:1029C000FF32634800680CF0EBFBFEF75CBF424649
:1029D000604BD3F8E41038460FF021FC48B3424670
:1029E0005C4BD3F8EC1038460FF019FC00282FD0C0
:1029F0004246584BD3F8FC1038460FF010FC002824
:102A000037D04246534BD3F80C1138460FF007FC31
:102A100000283DD1504921230B704A4B1B880B8164
:102A200000234FF0FF324D4800680CF0B9FBFEF771
:102A30002ABF46491C230B70424B1B880B81002385
:102A40004FF0FF32424800680CF0AAFBFEF71BBFB4
:102A50003E491D230B703B4B1B880B8104238B725B
:102A600000234FF0FF323A4800680CF099FBFEF764
:102A70000ABF39491F230B70324B1B880B8100237F
:102A80004FF0FF32354800680CF08AFBFEF7FBBEC2
:102A90004246304BD3F8041138460FF0C0FB0028F3
:102AA00060D12D4B20221A70264A12881A810023E9
:102AB00002931F4B01931F4B009310231E4A1F4983
:102AC00009881F480EF09AFB012820D1184B1A687C
:102AD0000F2A11D8224F0132164B196838460FF0D1
:102AE0008AFB00234FF0FF32A7F118011B48006852
:102AF0000CF056FBFEF7C7BE1748032380F82830BA
:102B0000092380F82A30FEF7FBFBFEF7BCBE124813
:102B1000032380F82830082380F82A30FEF7F0FBE2
:102B2000FEF7B1BEE44E01088C0400209C0E00208C
:102B30005C05002060050020C04301087C050020E2
:102B40008009002058050020EC4D0108C004002039
:102B5000C40D00203450010808040020380F002064
:102B6000200400204246B34BD3F8141138460FF02E
:102B700056FB70B9B04922230B70B04B1B880B81F8
:102B800000234FF0FF32AE4800680CF009FBFEF75F
:102B90007ABE4246A74BD3F81C1138460FF03FFBD4
:102BA00070B9A54923230B70A44B1B880B8100230C
:102BB0004FF0FF32A24800680CF0F2FAFEF763BE55
:102BC00042469C4BD3F82C1138460FF028FB0028C6
:102BD00067D102F08BF9022804D101200CF02AF809
:102BE000FEF751BE02F082F9C0BB02F05BF948BBB0
:102BF000012002F071F905A802F0FAF900278DF81A
:102C000054708E4BB3F8008002F02CFD02F030FDC2
:102C10004146252002F080FD02F05AFD05AA394602
:102C2000384603F0EBFA02F02FFD02F05DFD02F0F2
:102C30000FFD074602F010FD01463846FEF7D8F9B1
:102C4000FEF721BE002002F047F9022304227B494F
:102C500009882520FEF780FAFEF715BE02F046F936
:102C600001287EF410AE02F083F970B9022002F060
:102C700033F900231A46714909882520FEF76CFABA
:102C8000704802F041FAFEF7FEBD002002F024F980
:102C900002230422694909882520FEF75DFAFEF720
:102CA000F2BD4246634BD3F8441138460FF0B7FAF1
:102CB00068BB65496548FEF767F950B1002300938A
:102CC000082303225D4909882820FEF7D5F9FEF77D
:102CD000DABD5D4B19685D4B186802F02DFC03F0FE
:102CE0003BFB50B100230093092303225349098879
:102CF0002820FEF7C1F9FEF7C6BD00220092134658
:102D00004E4909882820FEF7B7F9FEF7BCBD4246B8
:102D1000484BD3F84C1138460FF081FA80B903F0D4
:102D2000C3FC4B4B53F820304A4A136000930023F6
:102D30001A46424909882920FEF79EF9FEF7A3BDED
:102D400042463C4BD3F80C1238460FF068FA48B9AB
:102D5000002200921346394909884120FEF78CF978
:102D6000FEF791BD4246334BD3F8541138460FF06D
:102D700056FA68BB34493548FEF706F950B10023CE
:102D80000093082303222D4909882A20FEF774F9AD
:102D9000FEF779BD2C4B19682C4B186802F0AEFB7E
:102DA00003F006FB50B100230093092303222349BB
:102DB00009882A20FEF760F9FEF765BD002200921F
:102DC00013461E4909882A20FEF756F9FEF75BBD17
:102DD0004246184BD3F85C1138460FF020FA80B900
:102DE00003F068FC1C4B53F820301A4A1360009320
:102DF00000231A46114909882B20FEF73DF9FEF7FA
:102E000042BD42460B4BD3F8641138460FF007FA27
:102E1000002846D10C490D48FEF7B6F8F0B1002362
:102E2000009308230322054909882C20FEF724F982
:102E3000FEF729BD34500108080400205805002081
:102E4000380F002000001E085C05002060050020EF
:102E5000000000209C03002008000020B149B24B74
:102E600018680EF0F9FF51EC100BFDF78FFE00EE25
:102E7000100A03F0E3FA50B1002300930923032260
:102E8000AA4909882C20FEF7F7F8FEF7FCBC0022BF
:102E900000921346A54909882C20FEF7EDF8FEF7AD
:102EA000F2BC4246A24BD3F86C1138460FF0B7F98A
:102EB00078B903F005FC9F4B83ED000A1B68009373
:102EC00000231A46994909882D20FEF7D5F8FEF708
:102ED000DABC4246964BD3F8741138460FF09FF98E
:102EE00000285ED194499048FEF768F850B100235D
:102EF0000093082303228D4909882E20FEF7BCF891
:102F0000FEF7C1BC8C4B1968874B186802F0F6FAC3
:102F100003468A4A10700133DBB2012B0AD8002322
:102F2000009307230322814909882E20FEF7A4F885
:102F3000FEF7A9BC80497C48FEF726F850B1002373
:102F4000009308230322794909882E20FEF794F87C
:102F5000FEF799BC794B93F900707249724B18686F
:102F60000EF07AFF51EC100BFDF710FE00EE100A88
:102F7000384603F07FFA50B100230093092303225F
:102F80006A4909882E20FEF777F8FEF77CBC0022FC
:102F900000921346654909882E20FEF76DF8FEF76A
:102FA00072BC4246624BD3F87C1138460FF037F9B9
:102FB000002836D160495C48FEF700F850B1002384
:102FC000009308230322594909882F20FEF754F85B
:102FD000FEF759BC584B1968534B186802F08EFA2B
:102FE000564B1870431CDBB2012B0AD80023009308
:102FF000072303224D4909882F20FEF73DF8FEF7ED
:1030000042BC03F077FB4B4B83ED000A1B68009337
:1030100000231A46454909882F20FEF72DF8FEF7B0
:1030200032BC4246424BD3F8841138460FF0F7F8D1
:1030300000285ED140493C48FDF7C0FF50B1002355
:10304000009308230322394909883020FEF714F839
:10305000FEF719BC384B1968334B186802F04EFA6A
:103060000346364A10700133DBB2012B0AD8002325
:103070000093072303222D4909883020FDF7FCFF28
:10308000FEF701BC2C492848FDF77EFF50B1002314
:10309000009308230322254909883020FDF7ECFF1F
:1030A000FEF7F1BB254B93F900701E491E4B1868C3
:1030B0000EF0D2FE51EC100BFDF768FD00EE100A89
:1030C000384603F0FFF950B100230093092303228F
:1030D000164909883020FDF7CFFFFEF7D4BB002248
:1030E00000921346114909883020FDF7C5FFFEF70D
:1030F000CABB42460E4BD3F88C1138460FF08FF8FE
:10310000002844D10C490848FDF758FFC0B10023FE
:10311000009308230322054909883120FDF7ACFFFD
:10312000FEF7B1BB94030020600500205805002085
:10313000345001089C0300205C0500209803002007
:10314000A74B1968A74B186802F0D8F9A64B18705E
:10315000431CDBB2012B0AD8002300930723032270
:10316000A24909883120FDF787FFFEF78CBB03F0E9
:10317000CFFA9F4B83ED000A1B68009300231A4689
:103180009A4909883120FDF777FFFEF77CBB42465C
:10319000984BD3F8941138460FF041F800285ED1CF
:1031A0008F499048FDF70AFF50B100230093082390
:1031B00003228E4909883220FDF75EFFFEF763BBCC
:1031C000874B1968874B186802F098F90346864ABE
:1031D00010700133DBB2012B0AD8002300930723C0
:1031E0000322824909883220FDF746FFFEF74BBBD8
:1031F0007B497C48FDF7C8FE50B1002300930823AB
:1032000003227A4909883220FDF736FFFEF73BBBDF
:10321000754B93F900707849724B18680EF01CFEDC
:1032200051EC100BFDF7B2FC00EE100A384603F02B
:1032300071F950B100230093092303226B490988D7
:103240003220FDF719FFFEF71EBB00220092134645
:10325000664909883220FDF70FFFFEF714BB42468E
:10326000644BD3F89C1138460EF0D9FF002836D1B4
:103270005B495C48FDF7A2FE50B100230093082390
:1032800003225A4909883320FDF7F6FEFEF7FBBA00
:10329000534B1968534B186802F030F9524B1870B1
:1032A000431CDBB2012B0AD800230093072303221F
:1032B0004E4909883320FDF7DFFEFEF7E4BA03F03C
:1032C00035FA4B4B83ED000A1B68009300231A4626
:1032D000464909883320FDF7CFFEFEF7D4BA4246AF
:1032E000444BD3F8A41138460EF099FF00285ED164
:1032F0003B493C48FDF762FE50B100230093082390
:1033000003223A4909883420FDF7B6FEFEF7BBBA1E
:10331000334B1968334B186802F0F0F80346324A11
:1033200010700133DBB2012B0AD80023009307236E
:1033300003222E4909883420FDF79EFEFEF7A3BA2A
:1033400027492848FDF720FE50B1002300930823A9
:103350000322264909883420FDF78EFEFEF793BA32
:10336000214B93F9007024491E4B18680EF074FD30
:1033700051EC100BFDF70AFC00EE100A384603F082
:10338000F1F850B10023009309230322174909885B
:103390003420FDF771FEFEF776BA00220092134644
:1033A000124909883420FDF767FEFEF76CBA4246E1
:1033B000104BD3F8AC1138460EF031FF002844D141
:1033C00007490848FDF7FAFDC0B100230093082320
:1033D0000322064909883520FDF74EFEFEF753BA51
:1033E0005C0500206005002098030020580500209F
:1033F0009C0300203450010894030020A94B196855
:10340000A94B186802F07AF8A84B1870431CDBB27D
:10341000012B0AD80023009307230322A44909881B
:103420003520FDF729FEFEF72EBA03F08DF9A14BEA
:1034300083ED000A1B68009300231A469C49098803
:103440003520FDF719FEFEF71EBA42469A4BD3F817
:10345000B41138460EF0E3FE00285ED1914992483F
:10346000FDF7ACFD50B100230093082303229049DF
:1034700009883620FDF700FEFEF705BA894B19686A
:10348000894B186802F03AF80346884A10700133F5
:10349000DBB2012B0AD800230093072303228449BF
:1034A00009883620FDF7E8FDFEF7EDB97D497E4835
:1034B000FDF76AFD50B100230093082303227C49E5
:1034C00009883620FDF7D8FDFEF7DDB9774B93F973
:1034D00000707A49744B18680EF0BEFC51EC100B6A
:1034E000FDF754FB00EE100A384603F0ABF850B17C
:1034F00000230093092303226D4909883620FDF734
:10350000BBFDFEF7C0B90022009213466849098846
:103510003620FDF7B1FDFEF7B6B94246664BD3F84B
:10352000BC1138460EF07BFE002836D15D495E485E
:10353000FDF744FD50B100230093082303225C49AA
:1035400009883720FDF798FDFEF79DB9554B19689E
:10355000554B186801F0D2FF544B1870431CDBB276
:10356000012B0AD80023009307230322504909881E
:103570003720FDF781FDFEF786B903F00BF94D4BBF
:1035800083ED000A1B68009300231A464849098806
:103590003720FDF771FDFEF776B94246464BD3F86A
:1035A000C41138460EF03BFE002861D13D493E482B
:1035B000FDF704FD50B100230093082303223C498A
:1035C00009883820FDF758FDFEF75DB9354B1968BD
:1035D000354B186801F092FF0346344A10700133EE
:1035E000DBB2012B0AD800230093072303223049C2
:1035F00009883820FDF740FDFEF745B929492A48DA
:10360000FDF7C2FC50B10023009308230322284990
:1036100009883820FDF730FDFEF735B9234B93F9C3
:1036200000700A222549204B18680EF09BFC07EE1B
:10363000900AF8EEE77AFCEEE77A17EE901A384631
:1036400002F0B6FF50B1002300930923032218496A
:1036500009883820FDF710FDFEF715B90022009209
:103660001346134909883820FDF706FDFEF70BB90C
:103670004246114BD3F8CC1138460EF0D0FD00284D
:1036800043D108490848FDF799FCC8B100230093CD
:1036900008230322064909883920FDF7EDFCFEF7CF
:1036A000F2B800BF5C0500206005002098030020F0
:1036B000580500209C03002034500108940300208A
:1036C000A54B1968A54B186801F018FFA44B18709A
:1036D000431CDBB2012B0AD80023009307230322EB
:1036E000A04909883920FDF7C7FCFEF7CCB803F0E4
:1036F00039F89D4A1060009000231A4699490988BC
:103700003920FDF7B9FCFEF7BEB84246974BD3F817
:10371000D41138460EF083FD002861D18E498F48C0
:10372000FDF74CFC50B100230093082303228D4980
:1037300009883A20FDF7A0FCFEF7A5B8864B19686A
:10374000864B186801F0DAFE0346854A1070013393
:10375000DBB2012B0AD800230093072303228149FF
:1037600009883A20FDF788FCFEF78DB87A497B4836
:10377000FDF70AFC50B10023009308230322794986
:1037800009883A20FDF778FCFEF77DB8744B93F971
:1037900000700A227649714B18680EF0E3FB07EEC1
:1037A000900AF8EEE77AFCEEE77A17EE901A3846C0
:1037B00002F030FF50B1002300930923032269492E
:1037C00009883A20FDF758FCFEF75DB80022009208
:1037D0001346644909883A20FDF74EFCFEF753B8BA
:1037E0004246624BD3F8DC1138460EF018FD002833
:1037F00034D159495948FDF7E1FB50B100230093FA
:1038000008230322574909883B20FDF735FCFEF7C2
:103810003AB8514B1968514B186801F06FFE504B84
:103820001870431CDBB2012B0AD800230093072336
:1038300003224C4909883B20FDF71EFCFEF723B804
:1038400002F09CFF484A1060009000231A46454948
:1038500009883B20FDF710FCFEF715B84246434BA4
:10386000D3F8E41138460EF0DAFC70B941493C2334
:103870000B703C4B1B880B8100234FF0FF323E48FE
:1038800000680BF08DFCFDF7FEBF4246374BD3F8C6
:10389000EC1138460EF0C3FC002840F02D810023C7
:1038A00002932D4B01932D4B00931023334A34493F
:1038B000098834480DF0A2FC012840F0E680264B30
:1038C0001A68314B5968254B18680EF0A8FC68B986
:1038D00028493D230B7000238B72224A12880A81EB
:1038E0004FF0FF32244800680BF05AFC1B4B1F6856
:1038F000194BD3F800804246234BD96838460EF066
:103900008EFC80B91B493D230B7001238B72154B34
:103910001B880B8100234FF0FF32174800680BF023
:103920003FFCFDF7B0BF4246174B596938460EF0D1
:1039300076FC58BB0F493D230B7002238B72094B59
:103940001B880B8100234FF0FF320B4800680BF0FF
:1039500027FCFDF798BF00BF5C0500206005002034
:1039600098030020580500209C03002034500108D3
:1039700094030020B0030020640F0020C04301081E
:103980007C05002080090020FC4D01084246BA4B0E
:10399000D96938460EF043FC80B9B8493D230B7015
:1039A00003238B72B64B1B880B8100234FF0FF3231
:1039B000B44800680BF0F4FBFDF765BF4246AE4B20
:1039C000596A38460EF02BFC80B9AC493D230B7088
:1039D00004238B72AA4B1B880B8100234FF0FF320C
:1039E000A84800680BF0DCFBFDF74DBF4246A24B38
:1039F000D96A38460EF013FC80B9A0493D230B70FC
:103A000005238B729E4B1B880B8100234FF0FF32E6
:103A10009C4800680BF0C4FBFDF735BF01F022FEA7
:103A200001F026FE964B1988974B93F8E80101F0B8
:103A300073FE01F04DFE954B93F84810032002F001
:103A400049FC01F021FE01F04FFE01F001FE0746A6
:103A500001F002FE0146DFF84C92DFF84C824B4643
:103A60004246384601F056FBB9F800204146012095
:103A70000BF0F2F8012738460BF092F92128FAD022
:103A800001200BF0D7F8FDF7FEBE01F0EBFD01F0D1
:103A9000EFFD7B4B19887C4B93F8E80101F03CFE6D
:103AA00001F016FE794B93F84010032002F012FC4F
:103AB00001F0EAFD01F018FE01F0CAFD074601F031
:103AC000CBFD0146DFF8DC91DFF8DC814B46424656
:103AD000384601F01FFBB9F80020414601200BF0E9
:103AE000BBF8012738460BF05BF92128FAD00120FA
:103AF0000BF0A0F8FDF7C7BE4246634BD3F8F411B4
:103B000038460EF08CFB70B95C493E230B705C4B61
:103B10001B880B8100234FF0FF325A4800680BF0DE
:103B20003FFBFDF7B0BE4246574BD3F8FC11384679
:103B30000EF075FB002861D155495648FDF73EFA55
:103B400050B100230093082303224D4909883F20E8
:103B5000FDF792FAFDF797BE4D4B19684D4B18686B
:103B600001F0CCFC03464C4A10700133DBB2012B50
:103B70000AD80023009307230322414909883F20E4
:103B8000FDF77AFAFDF77FBE41494248FDF7FCF99F
:103B900050B10023009308230322394909883F20AC
:103BA000FDF76AFAFDF76FBE3B4B93F900700A22EE
:103BB0003A49384B18680EF0D5F907EE900AF8EE3E
:103BC000E77AFCEEE77A17EE901A384602F05AFDD3
:103BD00050B10023009309230322294909883F207B
:103BE000FDF74AFAFDF74FBE002200921346244922
:103BF00009883F20FDF740FAFDF745BE4246224BBB
:103C0000D3F8041238460EF00AFB00284ED12049A2
:103C10002048FDF7D3F950B1002300930823032275
:103C2000174909884020FDF727FAFDF72CBE184BED
:103C30001968184B186801F061FC174B1870431C89
:103C4000DBB2012B0AD800230093072303220C497F
:103C500009884020FDF710FAFDF715BE02F0A8FD17
:103C60000F4A1060009000231A4605490988402039
:103C7000FDF702FAFDF707BEFC4D0108B003002076
:103C800058050020640F0020345001084C4E0108F4
:103C90005C050020600500209803002094030020AC
:103CA0009C030020900300208009002005230322AC
:103CB000314909882620FDF74FFAFDF7E4BD0623B8
:103CC00004222D4909882720FDF746FAFDF7DBBDC0
:103CD00000222A490BF0CFFB01287DF4D4AD274800
:103CE000FDF75EFAFDF7CFBD002225490BF0C3FBBF
:103CF00001287DF4C8AD2248FDF7AAFAFDF7C3BD3F
:103D0000002220490BF0B7FB01287DF4BCAD1D4813
:103D1000FDF7F6FAFDF7B7BD00221B490BF0ABFB30
:103D200001287DF4B0AD1848FDF790FBFDF7ABBD61
:103D3000002216490BF09FFB01287DF4A4AD134827
:103D4000FDF714FCFDF79FBD002211490BF093FB1A
:103D500001287DF498AD0E48FDF792FCFDF793BD68
:103D600000220C490BF087FB01287DF48CAD09483B
:103D7000FDF7DEFCFDF787BD580500202805002073
:103D8000E0040020C003002050040020A004002014
:103D9000780400200805002010B582B000224FF4FE
:103DA000007101200BF0D5F9A94B1860002800F034
:103DB000498100224FF4806101200BF0CAF9A54B24
:103DC0001860002800F0418108200BF004FCA24B91
:103DD0001860A24B1B68002B00F09280A04B1B6860
:103DE000002B00F096809F4B1B68002B00F09A8000
:103DF0009D4B1B68002B00F09E809C4B1B68002B8A
:103E000000F0A2809A4B1B68002B00F0A680994B13
:103E10001B68002B00F0AA80974B1B68002B00F05A
:103E2000AE80964B1B68002B00F0B280944B1B6851
:103E3000002B00F0B680934B1B68002B00F0BA807B
:103E4000914B1B68002B00F0BE80904B1B68002B31
:103E500000F0C2808E4B1B68002B00F0C6808D4B9B
:103E60001B68002B00F0CA808B4B1B68002B00F0F6
:103E7000CE808A4B1B68002B00F0D280884B1B68D9
:103E8000002B00F0D6800146714B18680BF0A9FB9F
:103E9000714C2168724B18680BF0A3FB2168744BBE
:103EA00018680BF09EFB21687B4B18680BF099FBA0
:103EB0002168714B18680BF094FB2168704B1868EF
:103EC0000BF08FFB2168704B18680BF08AFB2168A0
:103ED0006F4B18680BF085FB2168714B18680BF06D
:103EE00080FB704B0193002300934FF480726E4966
:103EF0006E480BF060FD012814BF00200120A2E0F5
:103F00004FF0500383F31188BFF36F8FBFF34F8FD0
:103F1000FEE74FF0500383F31188BFF36F8FBFF3B9
:103F20004F8FFEE74FF0500383F31188BFF36F8F7D
:103F3000BFF34F8FFEE74FF0500383F31188BFF3B9
:103F40006F8FBFF34F8FFEE74FF0500383F311885D
:103F5000BFF36F8FBFF34F8FFEE74FF0500383F334
:103F60001188BFF36F8FBFF34F8FFEE74FF0500301
:103F700083F31188BFF36F8FBFF34F8FFEE74FF0CE
:103F8000500383F31188BFF36F8FBFF34F8FFEE7AA
:103F90004FF0500383F31188BFF36F8FBFF34F8F40
:103FA000FEE74FF0500383F31188BFF36F8FBFF329
:103FB0004F8FFEE74FF0500383F31188BFF36F8FED
:103FC000BFF34F8FFEE74FF0500383F31188BFF329
:103FD0006F8FBFF34F8FFEE74FF0500383F31188CD
:103FE000BFF36F8FBFF34F8FFEE74FF0500383F3A4
:103FF0001188BFF36F8FBFF34F8FFEE74FF0500371
:1040000083F31188BFF36F8FBFF34F8FFEE74FF03D
:10401000500383F31188BFF36F8FBFF34F8FFEE719
:104020004FF0500383F31188BFF36F8FBFF34F8FAF
:10403000FEE74FF0500383F31188BFF36F8FBFF398
:104040004F8FFEE7002002B010BD0020FBE700BF4D
:1040500074050020700500206C050020680E00200B
:10406000640E0020600E00205C0E0020F80D002081
:10407000F40D00202C0E0020280E0020C40D00207E
:10408000C00D00209C0E0020980E0020900F0020F4
:104090008C0F0020380F0020340F0020640F002008
:1040A000600F002078050020EC4301086918000823
:1040B00008B500234FF0FF320249034800680BF0B7
:1040C0006FF808BD800D0020C00D0020F0B587B04E
:1040D0000AF0ACFC0AF0E2FC5B4C5C4E5C4D10E07C
:1040E00000238DF80C3003A809F05EFEE0B12378C0
:1040F0002B7023892B810323AB770123EB77FFF709
:10410000D7FFFA22214630680BF0B5F90128F8D123
:1041100027780C2FE4D0A7F11903042BF1D8DFE89E
:1041200003F0370E0E570E0023782B7023892B8156
:104130000023AB77EB779DF80C30AB73DFE7A07A09
:10414000042807D92F7023892B810323AB770723FA
:10415000EB7715E00023ADF80C3003A90AF09AFCC8
:10416000034680B11D2F14BF0D230E2322782A7021
:10417000218904222981AA77EB77BDF80C30AB8125
:10418000FFF796FFBDE722782A7021890246F1E702
:104190000023ADF80C3003A80AF02CFB01280CD04A
:1041A00023782B7023892B810023AB77EB77BDF924
:1041B0000C302B82FFF77CFFA3E723782B70238939
:1041C0002B810423AB771123EB774FF0FF33F0E71C
:1041D000002300930193029303930493059368468D
:1041E0000AF07CFC074603A80AF084FC074317F09A
:1041F000FF0F13D023782B7023892B810423AB77F7
:104200000E23EB7700236B82AB82EB8219461A46B2
:1042100029836A83AB83FFF74BFF72E723782B7008
:1042200023892B810023AB77EB77BDF90420BDF9FF
:10423000083000996982AA82EB82BDF90C10BDF9A1
:104240001020BDF91430E3E7A00D0020C40D0020BC
:10425000800D002000B583B00022202101200AF04B
:1042600078FF104B1860C0B10022202101200AF015
:1042700070FF0D4B186090B10C4B0193002300931D
:104280004FF480720A490B480BF095FB012814BFCC
:104290000020012003B05DF804FB0020FAE70020B5
:1042A000F8E700BFC40D0020C00D0020C80D00209D
:1042B000F8430108CD40000808B500234FF0FF3255
:1042C0000249034800680AF06BFF08BDCC0D0020CE
:1042D000F40D002070B582B02C4C2D4E2D4D0FE00A
:1042E000A07A09F077FD012823782B7022890EBF70
:1042F0000323002318462A812B746874FFF7DCFF20
:10430000FA22214630680BF0B6F80128F8D123785C
:10431000082BE5D0092B1AD00A2B25D00B2BEFD177
:104320000020ADF806000DF106010AF0B3FB0346CC
:1043300038B323782B70218904220E2329812A7413
:104340006B74BDF80630EB81FFF7B6FFD8E709F0D4
:104350005FFD23782B7023892B8100232B746B74D2
:10436000A872FFF7A9FFCBE709F058FD23782B705F
:1043700023892B8100232B746B74A881FFF79CFF8A
:10438000BEE722782A7021890246D7E7E00D002097
:10439000F80D0020CC0D002000B583B000221421C0
:1043A00001200AF0D6FE0F4B1860B8B1002214218C
:1043B00001200AF0CEFE0C4B186088B10B4B019324
:1043C0000023009380220A490A480BF0F4FA0128DE
:1043D00014BF0020012003B05DF804FB0020FAE7C1
:1043E0000020F8E7F80D0020F40D0020FC0D00205F
:1043F000FC430108D542000890F800C0034B83F845
:1044000000C0008918819974DA747047000E00208A
:1044100008B500234FF0FF320249034800680AF054
:10442000BFFE08BD000E0020280E002070B582B02F
:1044300009F0A6FC504C514D514E0AE0608909F03C
:104440007DFDC8B10B2203212046FFF7D5FFFFF702
:10445000DFFFFA22214628680BF00DF80128F8D179
:104460002378112BEAD0123B062BF2D8DFE803F0B9
:104470000A15203A58667900002211462046FFF7B7
:10448000BBFFE4E7002211462046FFF7B5FF09F025
:1044900097FD7081FFF7BCFFDBE700221146204645
:1044A000FFF7AAFF09F092FDF081FFF7B1FFD0E717
:1044B0000023ADF806300DF1060101200AF0EAFAFA
:1044C00050B10D2204212046FFF796FFBDF80630BB
:1044D0003382FFF79DFFBCE7002211462046FFF71D
:1044E0008BFFF3E7237B4BB1012B10D00A22042171
:1044F0002046FFF781FFFFF78BFFAAE7642009F052
:1045000033FC002211461C48FFF776FFF3E700203A
:1045100009F02AFC002211461748FFF76DFFEAE771
:10452000002211462046FFF767FF09F035FCB0FA7C
:1045300080F040092073FFF76BFF8AE7607B6428F7
:1045400007D9092203212046FFF756FFFFF760FF36
:104550007FE709F009FC002211462046FFF74CFFD7
:10456000F4E709F019FC7073002211462046FFF7AA
:1045700043FFFFF74DFF6CE7140E00202C0E0020C8
:10458000000E002000B583B00022142101200AF0A3
:10459000E0FD0F4B1860B8B10022142101200AF091
:1045A000D8FD0C4B186088B10B4B0193002300938E
:1045B00080220A490A480BF0FEF9012814BF0020A6
:1045C000012003B05DF804FB0020FAE70020F8E7C3
:1045D0002C0E0020280E0020300E0020044401087C
:1045E0002D44000800B583B00022142101200AF0F8
:1045F000B0FD1A4B186030B30022142101200AF0DC
:10460000A8FD174B186010B30022142101200AF0F6
:10461000A0FD144B1860E0B10022142101200AF023
:1046200098FD114B1860B0B1104B0193002300931B
:104630004FF400720E490F480BF0BDF9012814BF6A
:104640000020012000E0002003B05DF804FB002002
:10465000FAE70020F8E70020F6E700BF680E002028
:10466000640E0020600E00205C0E00206C0E002006
:104670000844010891460008044B5889643080B210
:10468000C82894BF00200120704700BF480E0020BA
:10469000F8B564200BF024FB0AF0D4F8564C574EC2
:1046A000574F13E00AF0CEF800283DD023783B7036
:1046B00023893B8104233B740E237B7400234FF03A
:1046C000FF3239464F4800680AF06AFD4FF0FF3567
:1046D0002A46214630680AF0CEFE0128F8D1237818
:1046E000032BDFD0002B4FD1B4F90A502846FFF737
:1046F000C3FF012827D028460AF0B6F8002832D098
:10470000052823783B7023890CBF12220E223B819F
:1047100004233B747A7400234FF0FF323946394842
:1047200000680AF03DFDD1E723783B7023893B8187
:1047300000233B747B744FF0FF32394631480068E8
:104740000AF02EFDC2E700233B7022893A81032242
:104750003A740B227A744FF0FF32394629480068C8
:104760000AF01EFDB2E723783B7023893B810023CA
:104770003B747B7462897A814FF0FF32394621485D
:1047800000680AF00DFDA1E7012B11D0022B21D00A
:104790003B7023893B8102233B7405237B740023F8
:1047A0004FF0FF323946174800680AF0F9FC8DE7F0
:1047B0003B7023893B8100253D747D740AF05CF8D1
:1047C00078812B464FF0FF3239460E4800680AF0D8
:1047D000E7FC7BE73B7023893B8100253D747D74BA
:1047E0000AF06AF8F8812B464FF0FF323946054847
:1047F00000680AF0D5FC69E7480E0020680E00202A
:10480000340E0020640E002090F800C0054B83F8A1
:1048100000C0B0F808C0A3F808C0807A9872197474
:104820005A747047700E002008B500234FF0FF3215
:104830000249034800680AF0B3FC08BD700E00206E
:10484000980E0020F8B5354C354D364F06E007225E
:1048500003212046FFF7D8FFFFF7E6FFFA222146A3
:1048600028680AF008FE0128F8D1A07A0328EED8BB
:1048700023780E2B16D00D2B21D00F2B2CD0102BE4
:10488000ECD14FF40051384606F042F906460022BA
:1048900011462046FFF7B8FFC6B3012E3AD0FFF706
:1048A000C3FFDBE70AF01AF806460022114620464D
:1048B000FFF7AAFF1C4BDE81FFF7B6FFCEE70AF039
:1048C00029F80646002211462046FFF79DFF164BA9
:1048D0009E81FFF7A9FFC1E7E37A4BB1012B0ED010
:1048E000002211462046FFF78FFFFFF79DFFB5E737
:1048F00001224FF40051384606F010F9F0E700228B
:104900004FF40051074806F009F9E9E7064B012288
:10491000DA72C4E7044B0022DA72C0E7840E00208A
:104920009C0E002000040240700E002000B583B0F1
:104930000022142101200AF00CFC0F4B1860B8B1C2
:104940000022142101200AF004FC0C4B186088B1ED
:104950000B4B01930023009380220A490A480BF075
:104960002AF8012814BF0020012003B05DF804FBE1
:104970000020FAE70020F8E79C0E0020980E0020A7
:10498000A00E0020104401084548000800B583B07F
:104990000022482101200AF0DCFB104B1860C0B156
:1049A0000022482101200AF0D4FB0D4B186090B181
:1049B0000C4B0193002300934FF400720A490B48FB
:1049C0000AF0F9FF012814BF0020012003B05DF8B0
:1049D00004FB0020FAE70020F8E700BF380F0020B2
:1049E000340F00203C0F00201C440108094A000835
:1049F00010B5044604F056F8E06004F059F8206160
:104A000004F05CF8606110BD2DE9F047674C684E1A
:104A1000684D05F11808A8F1180705F13C0916E0E2
:104A200094F8293033B3022B27D0032B2AD02378D4
:104A30002B7023892B81002385F8283085F82A30B4
:104A40004FF0FF3229465C4800680AF0A9FB4FF09E
:104A5000FF32214630680AF00EFD0128F7D1237895
:104A60001E2BDDD01F3B042BF1D8DFE803F00E5DD9
:104A70004777880000F0F2FCD9E700F0BBFC02F0B9
:104A800045F8D4E702F03CF8D1E7032009F042FFF3
:104A9000A885032009F022FFE885022009F03AFFEB
:104AA0002886022009F01AFF6886012009F032FFEB
:104AB000A886012009F012FFE886002009F02AFFED
:104AC0002887002009F00AFF6887484609F06CF93A
:104AD00000200AF098F985F8440023782B70238988
:104AE0002B81002385F8283085F82A304FF0FF32DB
:104AF0002946314800680AF053FBA8E742461021D6
:104B0000002009F031FE23783B7023893B8100238C
:104B100087F8283087F82A304FF0FF323946264888
:104B200000680AF03DFB92E7DFF890A052461021A2
:104B3000002009F04FFE1AF8183C2B703AF8103C90
:104B40002B81002385F8283085F82A304FF0FF327A
:104B50002946194800680AF023FB78E722232B70C6
:104B600023892B81002385F8283085F82A304FF0DF
:104B7000FF322946104800680AF012FB67E723233A
:104B80002B7023892B814FF0000A85F828A085F827
:104B90002AA02846FFF72CFF53464FF0FF32294644
:104BA000054800680AF0FCFA51E700BFEC0E00204F
:104BB000380F0020A40E0020340F0020040F002026
:104BC00008B5FFF747FBFFF7E7FBFFF7DBFCFFF755
:104BD00009FDFFF7ABFEFFF7D9FE00F033F900F057
:104BE00055F8FFF7D9F808BD70B5244C244E254D73
:104BF00011E0002008F00AFEE87223782B70238968
:104C00002B8100232B736B734FF0FF3229461E4814
:104C100000680AF0C5FA4FF0FF32214630680AF00A
:104C20002AFC0128F7D123783C2BE2D03D2B13D06E
:104C30003E2BF0D109F042FAA87223782B70238919
:104C40002B8100232B736B734FF0FF3229460E48E4
:104C500000680AF0A5FADEE7A07A09F06FFA237877
:104C60002B7023892B8100232B736B734FF0FF3242
:104C70002946054800680AF093FACCE7500F002057
:104C8000640F0020400F0020600F002000B583B0AB
:104C900009F09AFA0022102101200AF05AFA104B6A
:104CA0001860C0B10022102101200AF052FA0D4B09
:104CB000186090B10C4B0193002300934FF4807265
:104CC0000A490B480AF077FE012814BF0020012092
:104CD00003B05DF804FB0020FAE70020F8E700BF0E
:104CE000640F0020600F0020680F0020244401089A
:104CF000E94B0008F8B50AF070F84E4C4E4E4F4D97
:104D000011E00AF06AF823782B7023892B81A37AAB
:104D1000AB720023AB73EB734FF0FF322946484868
:104D200000680AF03DFA4FF0FF32214630680AF081
:104D3000A2FB0128F7D12378072BE2D0A07A032821
:104D400018D8042B27D0052B60D0062BEBD12B7065
:104D500023892B81A8720027AF73EF730AF066F8DE
:104D6000A8813B464FF0FF322946354800680AF0DB
:104D700017FAD8E72B7023892B81A8720323AB7312
:104D80000723EB7300234FF0FF3229462C480068BD
:104D90000AF006FAC7E7E17A012913D80AF021F8E8
:104DA00008BB23782B7023892B81A37AAB72002355
:104DB000AB73EB734FF0FF322946214800680AF0CD
:104DC000EFF9B0E72B7023892B81A8720323AB7313
:104DD0000A23EB7300234FF0FF322946184800687E
:104DE0000AF0DEF99FE723782B7023892B81A37AC1
:104DF000AB720423AB730323EB7300234FF0FF323A
:104E000029460F4800680AF0CBF98CE72B702389FC
:104E10002B81A8720027AF73EF7309F0F4FFE872DB
:104E20003B464FF0FF322946054800680AF0B8F9C2
:104E300079E700BF7C0F0020900F00206C0F00204E
:104E40008C0F002000B583B00022102101200AF051
:104E500080F90F4B1860B8B10022102101200AF030
:104E600078F90C4B186088B10B4B01930023009329
:104E7000C8220A490A480AF09EFD012814BF0020F2
:104E8000012003B05DF804FB0020FAE70020F8E7FA
:104E9000900F00208C0F0020940F00203444010854
:104EA000F54C000870B582B0094C04F12006094D9C
:104EB00001A9284606F065FF024638B9019B44F86F
:104EC000043FB442F4D1104602B070BD0122FAE7AB
:104ED000980F0020B818002002289DBF024B1870C0
:104EE00000200120704700BF980F0020014B187868
:104EF000704700BF980F002008B50A4B00210A48F0
:104F00001A68B2F1FF3F04BF0131C9B204338342D2
:104F1000F6D1082901D1002008BD024800F0F4F8BC
:104F20000220F9E700001E0820001E0808B5FFF760
:104F3000E3FF003818BF01204000014B187008BD86
:104F4000980F002010B505F0F3FB05F00FFC0446A8
:104F5000064BC022DA600221172005F0A3FC05F001
:104F600019FC05F0F9FB204610BD00BF003C0240D3
:104F70002DE9F843FFF7E6FF0546E0B905F0D8FB59
:104F800005F0F4FB174BC022DA6028BB164C04F185
:104F90002009C4F1016606F560264FF000080227DB
:104FA000311954F8042F4346384605F035FC0546C0
:104FB000B0B94C45F4D105F0EDFB05F0CDFB0B4B42
:104FC00000221A605A609A60DA601A615A619A6126
:104FD000DA612846BDE8F88305F0E6FBC5B2EAE7EA
:104FE0000125F6E7003C0240980F00209C0F0020AE
:104FF0002DE9F04184B007460D4E0025DFF83480DE
:105000000DF10B0456F8042F414601A80DF088F865
:105010000DF103037A1913F8011F02F8011BA342D3
:10502000F9D10835402DEDD104B0BDE8F08100BFC5
:10503000980F00203C440108B9B130B4431813F86C
:10504000014CA4B18C4214D80D1BA94209D96B1E86
:1050500003440844411E13F8010FA0420BD18B42B8
:10506000F9D11560002030BC704701207047FF2047
:10507000F9E7FF20F7E70120F5E7C1B100B583B0FC
:10508000043800EB810E0DF1040C01E070450BD0EB
:1050900050F8043F019302AB024613F8011D02F8D9
:1050A000011B6345F9D1F1E703B05DF804FB7047DC
:1050B00008B58C46B1FBF2F102FB11C1521A0CEBA0
:1050C00002011960D1B260440DF08DF8002008BDD6
:1050D000B0B500AF0C468A00D31D23F00703ADEB3B
:1050E000030D6D46014628460DF075F92146284608
:1050F000FFF7C3FF22462946024804F018F8BD46D0
:10510000B0BD00BF5C150020014BD8600020704787
:10511000641500202DE9F04F89B002AF80460D469E
:1051200014461E46AA231370FFF7E0FE022832D071
:1051300004F115032A464146984618460DF04BF9EE
:1051400007F11403102229464046FFF7B1FF002360
:10515000C4F80530C4F80930C4F80D30C4F8113073
:105160007D6905F11401A04648F8011F07F11003FD
:1051700004224046FFF79CFF396989084046FFF743
:10518000A7FF2C44C4F815001935356000201C37E2
:10519000BD46BDE8F08FC7F804D005F1170323F032
:1051A0000703ADEB030D0DF1080BDFF890A050469F
:1051B00006F023FEDFF88090C9F80000504606F0A4
:1051C0001CFEC9F80400504606F017FEC9F8080096
:1051D000504606F012FEC9F80C00164BC3F81090AA
:1051E0002A46414658460DF0F6F807F10C03102206
:1051F00029465846FFF75CFF80B1D7F804D00E4D22
:105200000FCDC4F80500C4F80910C4F80D20C4F887
:1052100011300421601DFFF730FFA1E7FD68C823AE
:10522000009304F11503AAB25946024804F016FF90
:105230007D61E2E764150020BC0F0020B818002053
:105240002DE9F04F85B002AF00231360D0F8016064
:10525000132E06D84FF0010948460C37BD46BDE86D
:10526000F08F0446884615468319D3F801A000F153
:1052700001093B1D042231464846FFF719FF7968B2
:1052800089084846FFF724FF824502D04FF0010904
:10529000E2E7143EFFF72AFE02280CD015342A4616
:1052A00031462046FFF7C8FE81462A68214640461F
:1052B0000DF091F8D0E704F1050904214846FFF705
:1052C000DCFEDFF864E0F446D4F80500D4F80910F9
:1052D000D4F80D20D4F81130ACE80F001148C0F814
:1052E00010E0EA46F31D23F00703ADEB030DEB4698
:1052F000C8234BF8083B5B46B2B204F1150104F039
:10530000D3FF814608B1D546A6E72A46314658461E
:10531000FFF792FE81462A68594640460DF05BF839
:10532000F1E700BF64150020BC0F002070B5084CE9
:1053300023686FF001061E61204607F063FA2368B8
:1053400000255D621E61204607F018FA284670BDF0
:10535000441A002000B583B000238DF807303220B6
:105360000AF0BEFC0DF107017F2009F00DFA60B9CB
:105370009DF807309DF90720002A0BDB13F0010090
:105380000ED10C4B00221A7007E00A4B00221A7053
:105390000E2002E0074B00221A7003B05DF804FBF8
:1053A000044B01221A70FFF7C1FF003818BF01201B
:1053B000F3E700BFD00F002010B5064B1C7814B1E6
:1053C0000124204610BD044A136801331360FFF71F
:1053D000ADFFF6E7D10F0020CC0F0020014B18786D
:1053E000704700BFD10F0020014B1878704700BFF5
:1053F000D00F002030B583B000238DF80730322065
:105400000AF06EFC0DF107017F2009F0BDF9F0B93B
:1054100004469DF807309DF90720002ABCBF03F021
:105420007F038DF8073032200AF05AFC9DF80710F0
:1054300041F001017F2009F0B7F9054650B9FFF7A7
:1054400089FF0124044B1C70284603B030BD0024A2
:105450000E25F7E70E25F5E7D00F002010B582B036
:1054600000238DF8073032200AF03AFC0DF10701D5
:105470007F2009F089F9A0B932200AF031FC9DF8AB
:10548000071001F0FE017F2009F08EF9044650B9A3
:10549000064807F0B7F9064B00221A70204602B002
:1054A00010BD0E24F7E70E24F5E700BF441A0020D4
:1054B000D00F0020014B1868704700BFCC0F0020B0
:1054C00010B501240B4B1C700B4807F09BF9002012
:1054D00000F042FF002000F06BFF204608F07AFC4D
:1054E00008F018FD0021084609F07BFC002009F0B7
:1054F000BBF910BDD10F0020441A00202DE9F04166
:10550000A9B106460F460024DFF8288065B23A4666
:1055100058F8251030460CF082FE28B1013463B2F1
:10552000022BF3DD4FF0FF352846BDE8F0814FF048
:10553000FF35F9E7080000202DE9F041A9B1064642
:105540000F460024DFF8288065B23A4658F8251047
:1055500030460CF064FE28B1013463B2012BF3DD58
:105560004FF0FF352846BDE8F0814FF0FF35F9E7F1
:1055700000000020034A138803493A20C85401332D
:1055800013807047D20F0020D40F002010B50246C0
:10559000054C23880549064818440CF0C1FD2388B2
:1055A0001844208010BD00BFD20F00205C520108BB
:1055B000D40F002030B583B010EE100A084C2588B7
:1055C000084B1D44FAF7D0FFCDE90001042206493B
:1055D00028460CF0A5FD23881844208003B030BD78
:1055E000D20F0020D40F0020605201082DE9F041B5
:1055F00080460B4D2C880B4E222737550134A4B220
:105600002C80FAF7F5FD421C414630190CF0F3FDF1
:105610002B88184480B2375401302880BDE8F081CF
:10562000D20F0020D40F002010B50C46FFF7DEFF8C
:10563000FFF7A0FF2046FFF7D9FF10BD10B50C46BD
:10564000FFF7D4FFFFF796FF2046FFF79FFF10BD3F
:1056500000487047D40F0020014B1888704700BFE6
:10566000D20F0020014B00221A807047D20F002079
:10567000034A138803497B20C854013313807047C1
:10568000D20F0020D40F0020034A138803497D2045
:10569000C854013313807047D20F0020D40F00206C
:1056A000034A138803495B20C854013313807047B1
:1056B000D20F0020D40F0020034A138803495D2035
:1056C000C854013313807047D20F0020D40F00203C
:1056D000034A138803492C20C854013313807047B0
:1056E000D20F0020D40F0020034A138803490D2055
:1056F000C854013313807047D20F0020D40F00200C
:1057000008B5044B5869FFF771FFFFF733FFFFF748
:10571000AFFF08BDE44E010838B50C46074B03EB5C
:10572000C003074D59686868FFF77EFFFFF7D0FF99
:1057300021B2E868FFF782FF38BD00BF345001088E
:10574000E44E010838B50C46084D0146D5F88C00EA
:10575000FFF774FFFFF7BCFF054901EBC40149687F
:10576000D5F89400FFF760FF38BD00BFE44E010894
:105770004C4E010808B5FFF7E5FF08BD70B50446BB
:105780000D461646FFF7BCFF74B100210A4BD3F853
:105790009400FFF753FFFFF777FFFFF799FF2946C4
:1057A0002046FFF7CFFF70BD3146034BD3F894007E
:1057B000FFF744FFEFE700BF9C4F010870B50446B8
:1057C0000D461646FFF79CFF74B100210A4BD3F833
:1057D0009400FFF733FFFFF757FFFFF779FF2946E4
:1057E0002046FFF7AFFF70BD3146034BD3F894005E
:1057F000FFF724FFEFE700BF9C4F010808B5FFF754
:10580000A1FF08BD08B5FFF79DFF08BD70B50446B0
:105810000D461646FFF774FF74B10C490C4BD3F8D4
:105820009400FFF701FFFFF72FFFFFF751FF294615
:105830002046FFF787FF70BD064B03EBC603596890
:10584000034BD3F89400FFF7EFFEECE7AC550108EB
:105850009C4F0108DC4D010870B504460D46164604
:10586000FFF74EFF74B100210A4BD3F89400FFF705
:10587000E5FEFFF709FFFFF72BFF29462046FFF75C
:1058800061FF70BD3146034BD3F89400FFF7D6FE9D
:10589000EFE700BF9C4F010808B5FFF753FF08BDB5
:1058A00070B504460D461646FFF72AFF74B10C4941
:1058B0000C4BD3F89400FFF7B7FEFFF7E5FEFFF7B8
:1058C00007FF29462046FFF73DFF70BD064B03EB5F
:1058D000C6035968034BD3F89400FFF7A5FEECE725
:1058E000AC5501089C4F0108F052010870B5044600
:1058F0000D461646FFF704FF74B100210A4BD3F89A
:105900009400FFF79BFEFFF7BFFEFFF7E1FE29467D
:105910002046FFF717FF70BD3146034BD3F89400C4
:10592000FFF78CFEEFE700BF9C4F010870B50446FF
:105930000D461646FFF7E4FE74B100210A4BD3F87A
:105940009400FFF77BFEFFF79FFEFFF7C1FE29469D
:105950002046FFF7F7FE70BD3146034BD3F89400A5
:10596000FFF76CFEEFE700BF9C4F010870B50446DF
:105970000D461646FFF7C4FE74B100210A4BD3F85A
:105980009400FFF75BFEFFF77FFEFFF7A1FE2946BD
:105990002046FFF7D7FE70BD3146034BD3F8940085
:1059A000FFF74CFEEFE700BF9C4F010870B50446BF
:1059B0000D461646FFF7A4FE74B100210A4BD3F83A
:1059C0009400FFF73BFEFFF75FFEFFF781FE2946DD
:1059D0002046FFF7B7FE70BD3146034BD3F8940065
:1059E000FFF72CFEEFE700BF9C4F010870B504469F
:1059F0000D461646FFF784FE74B100210A4BD3F81A
:105A00009400FFF71BFEFFF73FFEFFF761FE2946FC
:105A10002046FFF797FE70BD3146034BD3F8940044
:105A2000FFF70CFEEFE700BF9C4F010808B5FFF73A
:105A300089FE08BD70B504460D461646FFF760FEA8
:105A400074B10C490C4BD3F89400FFF7EDFDFFF750
:105A50001BFEFFF73DFE29462046FFF773FE70BD93
:105A6000064B03EBC6035968034BD3F89400FFF7CA
:105A7000DBFDECE7AC5501089C4F010834540108EC
:105A800008B5FFF75FFE08BD70B504460D46164623
:105A9000FFF736FE74B100210A4BD3F89400FFF7EC
:105AA000CDFDFFF7F1FDFFF713FE29462046FFF776
:105AB00049FE70BD31B2034BD3F89400FFF7BEFD31
:105AC000EFE700BF9C4F010870B504460D4616462F
:105AD000FFF716FE74B100210A4BD3F89400FFF7CC
