:020000040800F2
:1000000000000320F9AE0008C1A40008C9A400083C
:10001000D1A40008D9A40008E1A400080000000051
:10002000000000000000000000000000516A01080C
:10003000E9A4000800000000A16C0108096D010896
:1000400049AF000849AF000849AF000849AF0008B0
:1000500049AF000849AF000849AF000849AF0008A0
:1000600049AF0008F7A4000849AF000849AF0008ED
:1000700049AF000849AF000849AF000849AF000880
:1000800049AF000849AF000849AF000849AF000870
:1000900049AF000849AF000849AF000849AF000860
:1000A00049AF000805A5000821A5000849AF0008D0
:1000B00049AF000835A5000849AF000849AF00085E
:1000C00049AF000849AF000849AF000849AF000830
:1000D00049AF000849A500085DA5000849AF000820
:1000E00049AF000849AF000849AF000849AF000810
:1000F00071A5000849AF000849AF000849AF0008E2
:1001000049AF000849AF000849AF000849AF0008EF
:1001100049AF000849AF000885A5000899A5000867
:1001200049AF000849AF000849AF000849AF0008CF
:1001300049AF000849AF000849AF000849AF0008BF
:1001400049AF000849AF000849AF000849AF0008AF
:1001500049AF000849AF000849AF000849AF00089F
:1001600049AF000849AF000849AF000849AF00088F
:1001700049AF000849AF000849AF000849AF00087F
:1001800049AF000849AF000849AF000849AF00086F
:1001900049AF000849AF000849AF000849AF00085F
:0C01A000000000000000000049AF000853
:1001B00010B5054C237833B9044B13B10448AFF3A1
:1001C00000800123237010BD3C04002000000000CB
:1001D0003CCF010808B5034B1BB103490348AFF3FB
:1001E000008008BD00000000400400203CCF010852
:1001F00001F0FF01102A2BDB10F0070F08D010F8D8
:10020000013B013A8B422DD010F0070F42B3F6D1DB
:10021000F0B441EA012141EA014122F007047FF0F4
:1002200000070023F0E80256083C85EA010586EA4B
:10023000010685FA47F5A3FA87F586FA47F6A5FA87
:1002400087F68EB9EED1F0BC01F0FF0102F0070293
:1002500032B110F8013B013A83EA010313B1F8D13E
:100260000020704701387047002D06BF354603381F
:10027000073815F0010F07D1013015F4807F02BF58
:10028000013015F4C03F0130F0BC0138704700BFA9
:10029000034613F8012B002AFBD1181A01387047C6
:1002A00081F0004102E000BF83F0004330B54FEA27
:1002B00041044FEA430594EA050F08BF90EA020F94
:1002C0001FBF54EA000C55EA020C7FEA645C7FEA27
:1002D000655C00F0E2804FEA5454D4EB5555B8BF4A
:1002E0006D420CDD2C4480EA020281EA030382EABB
:1002F000000083EA010180EA020281EA0303362D4D
:1003000088BF30BD11F0004F4FEA01314FF4801C1F
:100310004CEA113102D0404261EB410113F0004F31
:100320004FEA03334CEA133302D0524263EB4303E8
:1003300094EA050F00F0A780A4F10104D5F1200E86
:100340000DDB02FA0EFC22FA05F2801841F10001E1
:1003500003FA0EF2801843FA05F359410EE0A5F1B5
:1003600020050EF1200E012A03FA0EFC28BF4CF0E6
:10037000020C43FA05F3C01851EBE37101F000459C
:1003800007D54FF0000EDCF1000C7EEB00006EEBA9
:100390000101B1F5801F1BD3B1F5001F0CD3490833
:1003A0005FEA30004FEA3C0C04F101044FEA44528A
:1003B00012F5800F80F09A80BCF1004F08BF5FEA11
:1003C000500C50F1000041EB045141EA050130BDF1
:1003D0005FEA4C0C404141EB0101013C28BFB1F503
:1003E000801FE9D291F0000F04BF01460020B1FA4E
:1003F00081F308BF2033A3F10B03B3F120020CDA21
:100400000C3208DD02F1140CC2F10C0201FA0CF0FE
:1004100021FA02F10CE002F11402D8BFC2F1200C63
:1004200001FA02F120FA0CFCDCBF41EA0C01904019
:10043000E41AA2BF01EB0451294330BD6FEA040462
:100440001F3C1CDA0C340EDC04F11404C4F120024D
:1004500020FA04F001FA02F340EA030021FA04F35F
:1004600045EA030130BDC4F10C04C4F1200220FAB6
:1004700002F001FA04F340EA0300294630BD21FAF4
:1004800004F0294630BD94F0000F83F4801306BFBA
:1004900081F480110134013D4EE77FEA645C18BFAE
:1004A0007FEA655C29D094EA050F08BF90EA020F45
:1004B00005D054EA000C04BF1946104630BD91EA3D
:1004C000030F1EBF0021002030BD5FEA545C05D140
:1004D0004000494128BF41F0004130BD14F580047F
:1004E0003CBF01F5801130BD01F0004545F0FE41F3
:1004F00041F470014FF0000030BD7FEA645C1ABF28
:10050000194610467FEA655C1CBF0B46024650EA5E
:10051000013406BF52EA033591EA030F41F400218A
:1005200030BD00BF90F0000F04BF0021704730B510
:100530004FF4806404F132044FF000054FF00001E5
:1005400050E700BF90F0000F04BF0021704730B5A6
:100550004FF4806404F1320410F0004548BF40427B
:100560004FF000013EE700BF42004FEAE2014FEAD0
:1005700031014FEA02701FBF12F07F4393F07F4FAB
:1005800081F06051704732F07F4208BF704793F0AE
:100590007F4F04BF41F40021704730B54FF46074C1
:1005A00001F0004521F000411CE700BF50EA0102C4
:1005B00008BF704730B54FF000050AE050EA01026D
:1005C00008BF704730B511F0004502D5404261EBDD
:1005D00041014FF4806404F132045FEA915C3FF41E
:1005E000D8AE4FF003025FEADC0C18BF03325FEABB
:1005F000DC0C18BF033202EBDC02C2F1200300FA6C
:1006000003FC20FA02F001FA03FE40EA0E0021FA90
:1006100002F11444BDE600BF70B54FF0FF0C4CF47E
:10062000E06C1CEA11541DBF1CEA135594EA0C0F30
:1006300095EA0C0F00F0DEF82C4481EA030621EA6B
:100640004C5123EA4C5350EA013518BF52EA0335A6
:1006500041F4801143F4801338D0A0FB02CE4FF058
:100660000005E1FB02E506F00042E0FB03E54FF088
:100670000006E1FB03569CF0000F18BF4EF0010E80
:10068000A4F1FF04B6F5007F64F5407404D25FEA7C
:100690004E0E6D4146EB060642EAC62141EA55512F
:1006A0004FEAC52040EA5E504FEACE2EB4F1FD0C71
:1006B00088BFBCF5E06F1ED8BEF1004F08BF5FEAEF
:1006C000500E50F1000041EB045170BD06F00046A1
:1006D00046EA010140EA020081EA0301B4EB5C044E
:1006E000C2BFD4EB0C0541EA045170BD41F4801146
:1006F0004FF0000E013C00F3AB8014F1360FDEBF6B
:10070000002001F0004170BDC4F10004203C35DA46
:100710000C341BDC04F11404C4F1200500FA05F3C9
:1007200020FA04F001FA05F240EA020001F000426A
:1007300021F0004110EBD37021FA04F642EB0601E0
:100740005EEA430E08BF20EAD37070BDC4F10C040A
:10075000C4F1200500FA04F320FA05F001FA04F2CE
:1007600040EA020001F0004110EBD37041F10001BA
:100770005EEA430E08BF20EAD37070BDC4F12005C5
:1007800000FA05F24EEA020E20FA04F301FA05F22D
:1007900043EA020321FA04F001F0004121FA04F2D5
:1007A00020EA020000EBD3705EEA430E08BF20EAA5
:1007B000D37070BD94F0000F0FD101F000464000DF
:1007C00041EB010111F4801F08BF013CF7D041EA61
:1007D000060195F0000F18BF704703F00046520065
:1007E00043EB030313F4801F08BF013DF7D043EA36
:1007F0000603704794EA0C0F0CEA135518BF95EAEC
:100800000C0F0CD050EA410618BF52EA4306D1D172
:1008100081EA030101F000414FF0000070BD50EA91
:10082000410606BF1046194652EA430619D094EA1B
:100830000C0F02D150EA013613D195EA0C0F05D105
:1008400052EA03361CBF104619460AD181EA030159
:1008500001F0004141F0FE4141F470014FF0000011
:1008600070BD41F0FE4141F4780170BD70B54FF0AC
:10087000FF0C4CF4E06C1CEA11541DBF1CEA13552C
:1008800094EA0C0F95EA0C0F00F0A7F8A4EB05040E
:1008900081EA030E52EA03354FEA013100F0888005
:1008A0004FEA03334FF0805545EA131343EA1263CE
:1008B0004FEA022245EA111545EA10654FEA002683
:1008C0000EF000419D4208BF964244F1FD0404F53C
:1008D000407402D25B084FEA3202B61A65EB030598
:1008E0005B084FEA32024FF480104FF4002CB6EB55
:1008F000020E75EB030E22BFB61A754640EA0C00D5
:100900005B084FEA3202B6EB020E75EB030E22BF14
:10091000B61A754640EA5C005B084FEA3202B6EB55
:10092000020E75EB030E22BFB61A754640EA9C0014
:100930005B084FEA3202B6EB020E75EB030E22BFE4
:10094000B61A754640EADC0055EA060E18D04FEAA2
:10095000051545EA16754FEA06164FEAC30343EA42
:1009600052734FEAC2025FEA1C1CC0D111F4801F0F
:100970000BD141EA00014FF000004FF0004CB6E708
:1009800011F4801F04BF01430020B4F1FD0C88BFA7
:10099000BCF5E06F3FF6AFAEB5EB030C04BFB6EBB2
:1009A000020C5FEA500C50F1000041EB045170BDA5
:1009B0000EF0004E4EEA113114EB5C04C2BFD4EBD2
:1009C0000C0541EA045170BD41F480114FF0000E56
:1009D000013C90E645EA060E8DE60CEA135594EAD2
:1009E0000C0F08BF95EA0C0F3FF43BAF94EA0C0FD5
:1009F0000AD150EA01347FF434AF95EA0C0F7FF44A
:100A000025AF104619462CE795EA0C0F06D152EA9D
:100A100003353FF4FDAE1046194622E750EA410681
:100A200018BF52EA43067FF4C5AE50EA41047FF492
:100A30000DAF52EA43057FF4EBAE12E74FF0FF3CF7
:100A400006E000BF4FF0010C02E000BF4FF0010CC8
:100A50004DF804CD4FEA410C7FEA6C5C4FEA430C41
:100A600018BF7FEA6C5C1BD001B050EA410C0CBF90
:100A700052EA430C91EA030F02BF90EA020F0020F2
:100A8000704710F1000F91EA030F58BF994208BF59
:100A900090422CBFD8176FEAE37040F00100704716
:100AA0004FEA410C7FEA6C5C02D150EA013C07D16D
:100AB0004FEA430C7FEA6C5CD6D152EA033CD3D0B8
:100AC0005DF8040B704700BF8446104662468C46B2
:100AD0001946634600E000BF01B5FFF7B7FF0028E5
:100AE00048BF10F1000F01BD4DF808EDFFF7F4FF0E
:100AF0000CBF012000205DF808FB00BF4DF808ED99
:100B0000FFF7EAFF34BF012000205DF808FB00BFBB
:100B10004DF808EDFFF7E0FF94BF012000205DF8DD
:100B200008FB00BF4DF808EDFFF7CEFF94BF012092
:100B300000205DF808FB00BF4DF808EDFFF7C4FF8B
:100B400034BF012000205DF808FB00BF4FEA410CD4
:100B50007FEA6C5C02D150EA013C0AD14FEA430CB7
:100B60007FEA6C5C02D152EA033C02D14FF00000F4
:100B700070474FF0010070474FEA410212F5001232
:100B800015D211D56FF47873B3EB625212D94FEAD4
:100B9000C12343F0004343EA505311F0004F23FABE
:100BA00002F018BF404270474FF00000704750EA13
:100BB000013005D111F0004008BF6FF000407047D0
:100BC0004FF00000704700BF4A0011D212F500122A
:100BD00011D20DD56FF47873B3EB62520ED44FEA95
:100BE000C12343F0004343EA505323FA02F0704715
:100BF0004FF00000704750EA013002D14FF0FF3053
:100C000070474FF0000070474FEA4102B2F1E043F5
:100C100024BFB3F5001CDCF1FE5C0DD901F0004CE3
:100C20004FEAC0024CEA5070B2F1004F40EB830033
:100C300008BF20F00100704711F0804F21D113F15F
:100C40003872BCBF01F00040704741F480114FEA98
:100C50005252C2F11802C2F1200C10FA0CF320FA21
:100C600002F018BF40F001004FEAC1234FEAD3233E
:100C700003FA0CFC40EA0C0023FA02F34FEA4303A8
:100C8000CCE77FEA625307D150EA01331EBF4FF031
:100C9000FE4040F44000704701F0004040F0FE404C
:100CA00040F40000704700BF53B94AB9002908BF9B
:100CB00000281CBF4FF0FF314FF0FF3000F0BEB9ED
:100CC000ADF1080C6DE904CE00F03CF8DDF804E06D
:100CD000DDE9022304B0704738B500220023044642
:100CE0000D46FFF70BFF28B920462946BDE83840DE
:100CF00000F00AB8204605F1004100F005F8404236
:100D000061EB410138BD00BFD0B50C4B0022064657
:100D10000F46FFF781FCFFF757FF0446FFF702FC81
:100D2000074B0022FFF778FC02460B463046394657
:100D3000FFF7BAFAFFF748FF2146D0BD0000F03DAB
:100D40000000F0412DE9F047089D0F4604468C460F
:100D5000002B48D18A42164661D9B2FA82F34BB1D0
:100D6000C3F1200201FA03FC20FA02F29E4042EA9B
:100D70000C0C9C404FEA164EB7B2BCFBFEF1220CA5
:100D80000EFB11CC42EA0C4201FB07F0904209D95C
:100D9000B21801F1FF3C80F0EE80904240F2EB800F
:100DA00002393244121AA4B2B2FBFEF00EFB10223A
:100DB00044EA024400FB07F7A74209D9341900F1BD
:100DC000FF3280F0DA80A74240F2D7803444023804
:100DD00040EA0140E41B00211DB1DC400023C5E9CD
:100DE0000043BDE8F0878B4206D90DB1C5E900018B
:100DF00000210846BDE8F087B3FA83F1002948D105
:100E0000BB4202D3824200F20781841A67EB0302DD
:100E100001209446002DE4D0C5E9004CE1E7002A0A
:100E200000F09280B2FA82F3002B40F0A8808A1A78
:100E30004FEA164E1FFA86FC0121200CB2FBFEF78A
:100E40000EFB172240EA02420CFB07F0904207D942
:100E5000B21807F1FF3802D2904200F2E280474612
:100E6000121AA4B2B2FBFEF00EFB102244EA0244B6
:100E70000CFB00FCA44507D9341900F1FF3202D263
:100E8000A44500F2CB801046A4EB0C0440EA0740D6
:100E9000A2E7C1F120068B4022FA06FC4CEA030CC3
:100EA00007FA01F420FA06F3F7404FEA1C492343FE
:100EB00000FA01F81FFA8CFEB7FBF9F01C0C09FBD5
:100EC000107744EA074400FB0EF7A74202FA01F24A
:100ED0000AD91CEB040400F1FF3A80F09B80A74282
:100EE00040F2988002386444E41B9FB2B4FBF9F3EB
:100EF00009FB134447EA044403FB0EFEA64509D947
:100F00001CEB040403F1FF3780F08280A6457FD9F3
:100F1000023B644443EA0040A4EB0E04A0FB02E75A
:100F2000BC427346B94663D360D05DB1B8EB0302EF
:100F300064EB090404FA06F622FA01F31E43CC40DE
:100F4000C5E9006400214CE76208480842EAC17123
:100F50000B0C43EA00438AB242EA0342B3FBF6F1C8
:100F6000E407B4463746B6461F23B0FBF6F0D21B63
:100F700041EA004161E7614614E7104628E7C3F102
:100F8000200120FA01F29E4027FA01F19F403A43E6
:100F90004FEA164E1FFA86FCB1FBFEF70EFB171048
:100FA000110C41EA004107FB0CF8884504FA03F4F0
:100FB0003AD9711807F1FF3001D288451FD8A1EB4B
:100FC0000801B1FBFEF808FB0CF70EFB181192B2FA
:100FD00042EA0142BA422FD2B21808F1FF31C6D21A
:100FE000BA42C4D2A8F102013244C0E7F0459CD213
:100FF000BEEB020367EB0C070138B94695E7A6EB99
:1010000008084144B81EB1FBFEF808FB0CF7DCE70A
:101010003B467FE7504667E70846FBE63444023824
:1010200032E7023F32441BE7A1EB08013846B1FB2F
:10103000FEF808FB0CF7C8E7414698E7704700BF89
:1010400080B596B002AF00224FF40071012014F079
:10105000B9F803469E4A13609D4B1B68002B01D1D3
:101060000023B9E100224FF48061012014F0AAF8B6
:101070000346984A1360974B1B68002B01D100234D
:10108000AAE1082014F0CFFC0346934A1360934B67
:101090001B68002B0BD14FF0500383F31188BFF373
:1010A0006F8FBFF34F8FBB6400BF00BFFDE78C4B5A
:1010B0001B68002B0BD14FF0500383F31188BFF353
:1010C0006F8FBFF34F8F7B6400BF00BFFDE7854B81
:1010D0001B68002B0BD14FF0500383F31188BFF333
:1010E0006F8FBFF34F8F3B6400BF00BFFDE77E4BA8
:1010F0001B68002B0BD14FF0500383F31188BFF313
:101100006F8FBFF34F8FFB6300BF00BFFDE7774BCF
:101110001B68002B0BD14FF0500383F31188BFF3F2
:101120006F8FBFF34F8FBB6300BF00BFFDE7704BF6
:101130001B68002B0BD14FF0500383F31188BFF3D2
:101140006F8FBFF34F8F7B6300BF00BFFDE7694B1D
:101150001B68002B0BD14FF0500383F31188BFF3B2
:101160006F8FBFF34F8F3B6300BF00BFFDE7624B44
:101170001B68002B0BD14FF0500383F31188BFF392
:101180006F8FBFF34F8FFB6200BF00BFFDE75B4B6C
:101190001B68002B0BD14FF0500383F31188BFF372
:1011A0006F8FBFF34F8FBB6200BF00BFFDE7544B93
:1011B0001B68002B0BD14FF0500383F31188BFF352
:1011C0006F8FBFF34F8F7B6200BF00BFFDE74D4BBA
:1011D0001B68002B0BD14FF0500383F31188BFF332
:1011E0006F8FBFF34F8F3B6200BF00BFFDE7464BE1
:1011F0001B68002B0BD14FF0500383F31188BFF312
:101200006F8FBFF34F8FFB6100BF00BFFDE73F4B08
:101210001B68002B0BD14FF0500383F31188BFF3F1
:101220006F8FBFF34F8FBB6100BF00BFFDE7384B2F
:101230001B68002B0BD14FF0500383F31188BFF3D1
:101240006F8FBFF34F8F7B6100BF00BFFDE7314B56
:101250001B68002B0BD14FF0500383F31188BFF3B1
:101260006F8FBFF34F8F3B6100BF00BFFDE72A4B7D
:101270001B68002B0BD14FF0500383F31188BFF391
:101280006F8FBFF34F8FFB6000BF00BFFDE7234BA5
:101290001B68002B0BD14FF0500383F31188BFF371
:1012A0006F8FBFF34F8FBB6000BF00BFFDE71C4BCC
:1012B0001B68002B36D14FF0500383F31188BFF326
:1012C0006F8FBFF34F8F7B6000BF00BFFDE700BF94
:1012D000600C0020640C0020680C0020000F00202F
:1012E000040F0020080F00200C0F0020980E002093
:1012F0009C0E0020CC0E0020D00E00204C0E0020B2
:10130000500E0020400F0020440F00203C10002011
:1013100040100020740F0020780F002010100020D3
:10132000141000202E4B1B682E4A126811461846D6
:1013300014F088FB2C4B1B682A4A12681146184689
:1013400014F080FB294B1B68264A12681146184688
:1013500014F078FB264B1B68224A12681146184687
:1013600014F070FB234B1B681E4A12681146184686
:1013700014F068FB204B1B681A4A12681146184685
:1013800014F060FB1D4B1B68164A12681146184684
:1013900014F058FB1A4B1B68124A12681146184683
:1013A00014F050FB174B1B680E4A12681146184682
:1013B00014F048FB144B01930023009300234FF4D7
:1013C00080721249124814F02CFCF864FB6C012B5B
:1013D00001D0002300E0012318465037BD4680BDF0
:1013E000600C0020680C0020040F00209C0E0020E0
:1013F000780F0020D00E0020500E0020440F002057
:1014000040100020141000205C0C002058CF010870
:101410001514000880B584B000AF786005F03EFC7C
:101420005B4B1B684FF0FF31184614F02CFBF86043
:10143000584B1B68FA689A420DD1564B1B68002224
:101440005549184614F0F0F80346012BE8D15248EC
:1014500000F0C4F8E4E7514B1B68FA689A420DD1DA
:101460004E4B1B6800224E49184614F0DDF8034627
:10147000012BD5D14A4802F0B1FFD1E7494B1B6897
:10148000FA689A420DD1474B1B680022464918461C
:1014900014F0CAF80346012BC2D1434803F01CF8EC
:1014A000BEE7424B1B68FA689A420DD13F4B1B685E
:1014B00000223F49184614F0B7F80346012BAFD17C
:1014C0003B4803F089F8ABE73A4B1B68FA689A424D
:1014D0000DD1384B1B6800223749184614F0A4F888
:1014E0000346012B9CD1344803F056F998E7334B5F
:1014F0001B68FA689A420DD1304B1B6800223049B4
:10150000184614F091F80346012B89D12C4803F0BA
:10151000A5FA85E72B4B1B68FA689A420ED1294B36
:101520001B6800222849184614F07EF80346012B58
:101530007FF476AF244803F011FA71E7234B1B6860
:10154000FA689A420ED1214B1B68002220491846A6
:1015500014F06AF80346012B7FF462AF1C4803F0D5
:10156000EBFB5DE71B4B1B68FA689A427FF458AFB0
:10157000184B1B6800221849184614F055F803460A
:10158000012B7FF44DAF144803F0EEFC48E700BF99
:10159000680C0020600C002058080020040F002078
:1015A0009C0C00209C0E0020E40C0020780F0020F2
:1015B000D00D0020D00E0020740D0020500E002011
:1015C000180D0020440F00204C0D0020401000207A
:1015D000C00C002014100020280E0020B0B59CB0D4
:1015E00004AF78609E4A9F49786805F02BFA03465D
:1015F00087F85F309B48FEF74BFE03469BB2013BEA
:101600009AB2994B1A80984B1B884FF6FF729342FF
:1016100002D0954B1B8800E00023934A1380924B25
:101620001B8819468F4816F01BFE0346012B42F01B
:10163000BE8697F85F30002B42F0B9868A4B1B8834
:101640001D468A4B5C68894B5B681846FEF720FE96
:10165000034600220292864A0192864A009222465E
:101660002946804817F069FA0346012B42F0968616
:101670007D4B1B881D467D4BDC687C4BDB68184628
:10168000FEF706FE0346002202927B4A01927B4A45
:10169000009222462946734817F04FFA0346012B61
:1016A00042F07486754B1B680A227549184618F07B
:1016B000FDF80346734A1360734B1B8823EAE372F9
:1016C000704B1B689A42B4BF01230023DBB219465A
:1016D0006D4B1B884FF6FF7293420CBF0123002312
:1016E000DAB2684B1B68002B0CBF01230023DBB26E
:1016F0001340DBB20B43002B02F04086614B1B68AA
:101700009AB2624B1A80614B1A885F4B1A80594B10
:101710001B685F4AD2F8F410554A1268184618F050
:1017200083FE0346002B40F0BD805A4B1E221A70E8
:10173000564B1A88574B1A814B4B1B88194600236E
:1017400002934D4B01934D4B00931023524A454851
:1017500017F0F3F90346012B74D1484B1B684F4A2D
:101760005168454A1268184618F05EFE0346002B81
:101770000DD1484B002283F82920494B18680023DB
:101780004FF0FF32434913F07BFD02F018BE3B4B94
:101790001B68424A5169384A1268184618F044FEDC
:1017A0000346002B0DD13B4B022283F829203C4BF2
:1017B000186800234FF0FF32364913F061FD02F044
:1017C000FEBD2E4B1B68354AD1692B4A126818465C
:1017D00018F02AFE0346002B0DD12E4B032283F86E
:1017E00029202F4B186800234FF0FF32294913F0AE
:1017F00047FD02F0E4BD214B1B68284AD1681E4A10
:101800001268184618F010FE0346002B0DD1214B2C
:10181000012283F82920224B186800234FF0FF3261
:101820001C4913F02DFD02F0CABD1A4B032283F8A8
:101830002820184B092283F82A20164802F0CCFEF3
:1018400002F0BDBD134B032283F82820114B082260
:1018500083F82A200F4802F0BFFE02F0B0BD00BF9F
:10186000440E002058040020580C0020E0E001083D
:10187000700C00206C0C0020780C0020740C0020F0
:10188000400E0020800C0020840C00207C0C0020E6
:1018900000DE0108880D002064CF0108C0E00108C7
:1018A000740F0020B44B1B68B44AD2F82411B44A18
:1018B0001268184618F0B8FD0346002B1BD1B14B37
:1018C00024221A70B04B1A88AE4B1A81AD4B0022FD
:1018D00083F82820AB4B002283F82A20A94802F085
:1018E0007BFE4FF4FA700AF0CFFD05F03FFB0BF0E2
:1018F0001CFB02F064BDA04B1B68A04AD2F8141276
:101900009F4A1268184618F08FFD0346002B3ED1FF
:1019100005F0F4F90346002B2ED005F0D9FA034662
:10192000002B02D1012005F0BDFA05F0C5F90346F0
:1019300087F8593097F85930012B0AD1924B198802
:101940000023009301230122422003F08FF902F0CB
:1019500036BD97F85930002B42F031858A4B1C88F0
:1019600005F04AFA03460093002300222146422054
:1019700003F07CF902F023BD834B19880023009308
:1019800010230422422003F071F902F018BD7A4BB3
:101990001B687A4AD2F81C12794A1268184618F065
:1019A00043FD0346002B62D1784B1B881946002368
:1019B0000293774B0193774B00931023764A774835
:1019C00017F0BBF80346012B46D1724B1B68744AD3
:1019D000D1686F4A1268184618F026FD0346002B9E
:1019E00011D105F08BF90346002B01D105F092F9D6
:1019F000624B93F81802644B19880023002203F00D
:101A0000F9F802F0DCBC634B1B68654A5168604A18
:101A10001268184618F008FD0346002B11D105F096
:101A20006DF90346012B01D105F0B2F9534B93F840
:101A30001802554B19880023002203F0DBF802F04E
:101A4000BEBC4E4B93F818024F4B19880923032252
:101A500003F0D0F802F0B3BC484B93F818024A4B9D
:101A600019880823032203F0C5F802F0A8BC05F08A
:101A700039F90346002B0AD0434B19880023009301
:101A80000F230522422003F0F1F802F098BC3A4BF4
:101A90001B683A4AD2F82412394A1268184618F0DC
:101AA000C3FC0346002B7DD105F028F90346002B2B
:101AB00023D105F0EBFA05F0F5FA304B93F820321C
:101AC000314A12881146184605F092FB05F04AFB90
:101AD00000220021002006F05BFC05F0FBFA05F077
:101AE00059FB05F0BDFA044605F0C4FA0346194651
:101AF000204603F09FFA02F062BC05F0FFF80346AF
:101B0000012B23D105F0C2FA05F0CCFA1B4B93F858
:101B100020321D4A12881146184605F069FB05F06F
:101B200021FB01220021002006F032FC05F0D2FA50
:101B300005F030FB05F094FA044605F09BFA0346E5
:101B40001946204603F076FA02F039BC0B4B93F8A5
:101B500020020D4B19880923032203F04BF805F0EE
:101B60007FFA044605F086FA03461946204603F03C
:101B700061FA02F024BC00BF6C0C002000DE0108FA
:101B8000700C0020880D00207C0C0020580C0020D8
:101B9000780C0020740C002064CF01085804002049
:101BA000F0DD0108A54B1B68A54A5168A54A1268DB
:101BB000184618F039FC0346002B3ED1A24B0022F8
:101BC0001A70A24B1A88A04B1A81A14B1B88194688
:101BD000002302939F4B01939F4B009310239F4A36
:101BE0009F4816F0AAFF0346012B18D19A4B1B6899
:101BF00007F154010A22184617F058FE0346A7F8C9
:101C00005A30914AB7F85A305381964B18680023DE
:101C10004FF0FF328C4913F033FB02F0D0BB8A4BFC
:101C200000225A81884B03221A74874B08225A7467
:101C3000854802F0D3FB02F0C2BB804B1B68804A90
:101C4000D168804A1268184618F0EEFB0346002B54
:101C500010D17D4B01221A707C4B1A887A4B1A8165
:101C6000804B186800234FF0FF32774913F008FBD0
:101C700002F0A5BB714B1B68714A5169714A126829
:101C8000184618F0D1FB0346002B10D16E4B0222F0
:101C90001A706E4B1A886C4B1A81724B18680023AD
:101CA0004FF0FF32684913F0EBFA02F088BB634B48
:101CB0001B68634AD169634A1268184618F0B4FB7E
:101CC0000346002B10D1604B03221A705F4B1A8819
:101CD0005D4B1A81634B186800234FF0FF325A495D
:101CE00013F0CEFA02F06BBB544B1B68544A516A96
:101CF000544A1268184618F097FB0346002B40F030
:101D0000ED80534B1B88194600230293514B0193DE
:101D1000514B00931623544A514816F00EFF0346C8
:101D2000012B40F0C3804C4B1B68504A5168494A14
:101D30001268184618F078FB0346002B40F09E808E
:101D4000434B1B88194600230293424B0193424B9D
:101D500000931023414A424816F0EFFE0346012B40
:101D600053D1434B04221A70384B1A88404B1A81C6
:101D70003F4B00229A72384B1B683E4A5168354AE5
:101D80001268184618F050FB0346002B0CD1384B54
:101D90000022DA72384B186800234FF0FF323449C2
:101DA00013F06EFA02F00BBB2B4B1B68314AD16863
:101DB000284A1268184618F037FB0346002B0CD14E
:101DC0002B4B0122DA722C4B186800234FF0FF32A4
:101DD000274913F055FA02F0F2BA254B04221A7083
:101DE0001A4B1A88224B1A81214B00229A72204BDF
:101DF00003229A731E4B0922DA731D4B00229A812B
:101E00001B4802F099FF02F0DABA194B04221A704B
:101E10000E4B1A88164B1A81154B00229A72144BDE
:101E200003229A73124B0822DA73114B00229A8113
:101E30000F4802F081FF02F0C2BA00BF6C0C002014
:101E400000DE0108700C0020880C00207C0C0020B3
:101E5000580C0020780C0020740C002064CF01087E
:101E600058040020000F002078CF010810E201087C
:101E7000B00C002070E201083C100020934B0422BB
:101E80001A70934B1A88914B1A81904B00229A72C8
:101E90008E4B03229A738D4B0722DA738B4B0022F1
:101EA0009A818A4802F048FF02F089BA874B0422DF
:101EB0001A70874B1A88854B1A81844B00229A72BC
:101EC000824B03229A73814B0722DA737F4B0022E5
:101ED0009A817E4802F030FF02F071BA7D4B1B6898
:101EE0007D4AD16A7D4A1268184618F09DFA034669
:101EF000002B60D17A4B1B88194600230293794B43
:101F00000193794B00931623784A794816F015FE11
:101F10000346012B37D1744B1B68764A5168714ACE
:101F20001268184618F080FA0346002B13D1674B4D
:101F300005221A70664B1A88644B1A81634B002283
:101F40009A726D4B186800234FF0FF325F4913F00F
:101F500097F902F034BA5D4B05221A705C4B1A886F
:101F60005A4B1A81594B00229A72584B03229A738A
:101F7000564B0722DA73554B00229A81534802F0E0
:101F8000DBFE02F01CBA514B05221A70504B1A8826
:101F90004E4B1A814D4B00229A724C4B03229A737E
:101FA0004A4B0822DA73494B00229A81474802F0D3
:101FB000C3FE02F004BA474B1B68474A516B474ABD
:101FC0001268184618F030FA0346002B60D1444BD3
:101FD0001B88194600230293424B0193424B009306
:101FE0001623424A424816F0A8FD0346012B37D17A
:101FF0003D4B1B683F4A51683A4A1268184618F030
:1020000013FA0346002B13D1304B06221A70304BC3
:102010001A882E4B1A812D4B00229A72364B186863
:1020200000234FF0FF32294913F02AF902F0C7B913
:10203000264B06221A70264B1A88244B1A81234BF2
:1020400000229A72214B03229A73204B0722DA73E3
:102050001E4B00229A811D4802F06EFE02F0AFB9BD
:102060001A4B06221A701A4B1A88184B1A81174BF2
:1020700000229A72154B03229A73144B0822DA73CA
:10208000124B00229A81114802F056FE02F097B9D5
:10209000104B1B68104AD16B104A1268184618F092
:1020A000C3F90346002B29D1084B07221A70084BAD
:1020B0001A88064B1A81104B186800234FF0FF3224
:1020C000024913F0DDF802F07AB900BFB00C00202D
:1020D0007C0C00206C0C002000DE0108700C00203D
:1020E000580C0020780C0020740C002078CF0108D8
:1020F0005804002010E201083C100020964B1B6899
:10210000964AD2F88C10964A1268184618F08CF944
:102110000346002B3BD1934B11221A70924B1A8825
:10212000904B1A81914B1B88194600230293904BC8
:102130000193904B009310238F4A904816F0FDFCBA
:102140000346012B18D18B4B1B6807F150010A2263
:10215000184617F0ABFB0346A7F85C30814AB7F886
:102160005C305381864B186800234FF0FF327D4965
:1021700013F086F802F023B97A4B03229A74794B54
:102180000822DA74774802F007FB02F018B9724BA4
:102190001B68724AD2F89410714A1268184618F0F7
:1021A00043F90346002B10D16E4B12221A706E4B6E
:1021B0001A886C4B1A81724B186800234FF0FF325B
:1021C000684913F05DF802F0FAB8634B1B68634A84
:1021D000D2F89C10624A1268184618F025F9034696
:1021E000002B10D15F4B13221A705F4B1A885D4B86
:1021F0001A81634B186800234FF0FF32594913F0DE
:102200003FF802F0DCB8544B1B68544AD2F8A410D3
:10221000534A1268184618F007F90346002B10D1EC
:10222000504B14221A70504B1A884E4B1A81544B43
:10223000186800234FF0FF324A4913F021F802F0EA
:10224000BEB8454B1B68454AD2F8AC10444A1268E8
:10225000184618F0E9F80346002B5FD1434B1B8862
:10226000194600230293424B0193424B00931023E3
:10227000414A424816F061FC0346012B43D1394BD9
:1022800015221A70384B1A88364B1A81394B1B6845
:102290003C4A5168364A1268184618F0C5F8034699
:1022A000002B0CD12F4B00221A73354B18680023DA
:1022B0004FF0FF322B4912F0E3FF02F080B82D4BB4
:1022C0001B68304AD1682A4A1268184618F0ACF8E0
:1022D0000346002B0CD1234B01221A73284B18689C
:1022E00000234FF0FF321F4912F0CAFF02F067B817
:1022F0001C4B03229A741B4B0922DA74194802F012
:102300004BFA02F05CB8174B03229A74154B082263
:10231000DA74144802F040FA02F051B80E4B1B6810
:102320000E4AD2F8B4100E4A1268184618F07CF81B
:102330000346002B28D10B4B16221A700A4B1A8821
:10234000084B1A810E4B186800234FF0FF320549E5
:1023500012F096FF02F033B86C0C002000DE01088A
:10236000700C0020600D00207C0C0020580C002018
:10237000780C0020740C002064CF01085804002061
:10238000CC0E002060E20108A44B1B68A44AD2F8DE
:10239000BC10A44A1268184618F046F80346002BF1
:1023A0003ED1A14B17221A70A04B1A889E4B1A815E
:1023B0009F4B1B881946002302939E4B01939E4B13
:1023C000009310239D4A9E4816F0B7FB0346012B4D
:1023D00018D1994B1B6807F14C010A22184617F0D7
:1023E00065FA034687F85E308F4A97F85E3053737C
:1023F000944B186800234FF0FF328B4912F040FFD6
:1024000001F0DDBF884B00225A73874B03229A7478
:10241000854B0822DA74844802F0BEF901F0CFBF80
:102420007E4B1B687E4AD2F8C4107E4A126818465A
:1024300017F0FAFF0346002B10D17B4B18221A70BD
:102440007A4B1A88784B1A817E4B186800234FF01C
:10245000FF32754912F014FF01F0B1BF6F4B1B68DA
:102460006F4A516C6F4A1268184617F0DDFF034639
:10247000002B5FD1744B08221A706C4B1A88724B78
:102480001A816B4B1B88194600230293694B0193F9
:10249000694B00931023694A694816F04EFB0346C6
:1024A000012B3CD1644B1B68684A5168614A126831
:1024B000184617F0B9FF0346002B0CD1624B0022DF
:1024C0009A72634B186800234FF0FF325E4912F096
:1024D000D7FE01F074BF584B1B685C4AD168554A5F
:1024E0001268184617F0A0FF0346002B0CD1564B7C
:1024F00001229A72564B186800234FF0FF3252495E
:1025000012F0BEFE01F05BBF4F4B03221A744E4B1C
:1025100009225A744C4801F0DFFF01F050BF4A4BCA
:1025200003221A74484B08225A74474801F0D4FF1A
:1025300001F045BF394B1B68394AD16C394A1268E2
:10254000184617F071FF0346002B10D13E4B0922AD
:102550001A70364B1A883C4B1A813D4B1868002381
:102560004FF0FF32384912F08BFE01F028BF2B4BA1
:102570001B682B4A516D2B4A1268184617F054FFFE
:102580000346002B10D1304B0A221A70274B1A88B1
:102590002D4B1A812E4B186800234FF0FF322A4929
:1025A00012F06EFE01F00BBF1C4B1B681C4AD16D74
:1025B0001C4A1268184617F037FF0346002B10D14B
:1025C000214B0B221A70194B1A881F4B1A81204B72
:1025D000186800234FF0FF321B4912F051FE01F042
:1025E000EEBE0E4B1B680E4A516E0E4A126818461C
:1025F00017F01AFF0346002B30D1164B0C221A702D
:102600000A4B1A88134B1A81134B186800234FF09A
:10261000FF32104912F034FE01F0D1BE6C0C0020E4
:1026200000DE0108700C0020600D00207C0C0020F2
:10263000580C0020780C0020740C002064CF010896
:1026400058040020CC0E0020D00C002060E20108CD
:10265000980E0020F80C00204C0E0020A44B1B68A4
:10266000A44AD16EA44A1268184617F0DDFE03464C
:10267000002B40F09880A14B0D221A70A04B1A88B5
:102680009E4B1A819F4B1B881946002302939E4B39
:1026900001939E4B009316239D4A9E4816F04DFAD7
:1026A0000346012B71D1994B1B689B4A516A964A8C
:1026B0001268184617F0B8FE0346002B0CD18F4B5A
:1026C00003229A72954B186800234FF0FF328B4912
:1026D00012F0D6FD01F073BE8C4B1B688E4AD16A96
:1026E000894A1268184617F09FFE0346002B0CD14A
:1026F000824B02229A72894B186800234FF0FF32F6
:102700007E4912F0BDFD01F05ABE804B1B68824A23
:10271000516B7D4A1268184617F086FE0346002B5F
:102720000CD1764B01229A727C4B186800234FF033
:10273000FF32724912F0A4FD01F041BE734B1B68D9
:10274000754AD16B704A1268184617F06DFE034641
:10275000002B0CD1694B00229A72704B1868002331
:102760004FF0FF32654912F08BFD01F028BE634B3C
:1027700000229A81614B03221A74604B07225A741B
:102780005E4802F0EBF801F01ABE5C4B00229A8121
:102790005A4B03221A74594B08225A74574802F0B4
:1027A000DDF801F00CBE524B1B68524A516F524A81
:1027B0001268184617F038FE0346002B40F0B08030
:1027C0004E4B0E221A704E4B1A884C4B1A814D4BB1
:1027D0001B881946002302934B4B01934B4B0093EC
:1027E00016234B4A4B4816F0A8F90346012B71D12A
:1027F000464B1B68484A516A434A1268184617F00C
:1028000013FE0346002B0CD13C4B03229A72434B20
:10281000186800234FF0FF32384912F031FD01F003
:10282000CEBD3A4B1B683C4AD16A374A12681846FB
:1028300017F0FAFD0346002B0CD1304B02229A729E
:10284000364B186800234FF0FF322C4912F018FD68
:1028500001F0B5BD2D4B1B682F4A516B2A4A1268F7
:10286000184617F0E1FD0346002B0CD1234B012243
:102870009A722A4B186800234FF0FF321F4912F05A
:10288000FFFC01F09CBD214B1B68234AD16B1E4A03
:102890001268184617F0C8FD0346002B0CD1174BE1
:1028A00000229A721D4B186800234FF0FF32134923
:1028B00012F0E6FC01F083BD104B0022DA810F4BD1
:1028C00003221A740D4B07225A740C4802F046F882
:1028D00001F075BD094B0022DA81084B03221A74FE
:1028E000064B08225A74054802F038F801F067BD1B
:1028F0006C0C002000DE0108700C0020380D002058
:102900007C0C0020580C0020780C0020740C002057
:1029100078CF010858040020E0E00108400F0020B3
:10292000A44B1B68A44AD16FA44A1268184617F03A
:102930007BFD0346002B62D1A14B1B881946002367
:102940000293A04B0193A04B009310239F4AA048F1
:1029500016F0F3F80346012B46D19E4B0F221A7056
:102960009D4B1A889B4B1A819A4B02229A72964B66
:102970001B689A4A5168934A1268184617F054FD2A
:102980000346002B0CD1934B0022DA72944B18684B
:1029900000234FF0FF328F4912F072FC01F00FBD9F
:1029A000894B1B688D4AD168864A1268184617F011
:1029B0003BFD0346002B0CD1864B0122DA72884B7B
:1029C000186800234FF0FF32824912F059FC01F0E1
:1029D000F6BC804B03221A747E4B09225A747D4840
:1029E00001F0BCFF01F0EBBC7A4B03221A74794B67
:1029F00008225A74774801F0B1FF01F0E0BC6D4B3A
:102A00001B686D4AD2F884106C4A1268184617F099
:102A10000BFD0346002B10D16E4B10221A706E4B2B
:102A20001A886C4B1A816E4B186800234FF0FF32E6
:102A3000684912F025FC01F0C2BC5E4B1B685E4A7F
:102A4000D2F8D4105D4A1268184617F0EDFC034620
:102A5000002B13D1634B1A221A705F4B1A88614BFB
:102A60001A81604B02229A725F4B186800234FF064
:102A7000FF325C4912F004FC01F0A1BC4D4B1B6815
:102A80004D4AD2F8CC104D4A1268184617F0CCFCCB
:102A90000346002B10D1534B19221A704E4B1A8843
:102AA000504B1A81504B186800234FF0FF324D49AC
:102AB00012F0E6FB01F083BC3E4B1B683E4AD2F8A5
:102AC000DC103E4A1268184617F0AEFC0346002B95
:102AD00013D1444B1B221A703F4B1A88414B1A8169
:102AE000404B03229A72404B186800234FF0FF328C
:102AF0003C4912F0C5FB01F062BC2E4B1B682E4A0C
:102B0000D2F8E4102D4A1268184617F08DFC0346DF
:102B1000002B10D1334B1C221A702F4B1A88314BCB
:102B20001A81314B186800234FF0FF322D4912F003
:102B3000A7FB01F044BC1F4B1B681F4AD2F8EC10E6
:102B40001E4A1268184617F06FFC0346002B13D17B
:102B5000244B1D221A70204B1A88224B1A81214BBC
:102B600004229A72204B186800234FF0FF321D494F
:102B700012F086FB01F023BC0E4B1B680E4AD2F804
:102B8000FC100E4A1268184617F04EFC0346002B44
:102B900030D1164B1F221A700F4B1A88134B1A8113
:102BA000134B186800234FF0FF32104912F068FBF6
:102BB00001F005BC6C0C002000DE0108700C002048
:102BC000580C0020780C0020740C002064CF010801
:102BD00058040020380D00207C0C002060E2010821
:102BE000400F0020F80C00204C0E0020880D002023
:102BF000740F0020A94B1B68A94AD2F80C11A94AEE
:102C00001268184617F010FC0346002B10D1A64B93
:102C100021221A70A54B1A88A34B1A81A44B18685D
:102C200000234FF0FF32A04912F02AFB01F0C7BB8E
:102C30009A4B1B689A4AD2F804119A4A12681846AD
:102C400017F0F2FB0346002B48D1974B20221A7055
:102C5000964B1A88944B1A81964B1B881946002371
:102C60000293954B0193954B00931023944A9548FA
:102C700015F063FF0346012B23D18F4B1B680F2BED
:102C800012D88E4B19688C4B1B6801331A468E483C
:102C900017F0B6FB864B186800234FF0FF328249CD
:102CA00012F0EEFA01F08BBB7F4B032283F8282051
:102CB0007D4B092283F82A207B4801F08DFC01F02E
:102CC0007EBB794B032283F82820774B082283F8B8
:102CD0002A20754801F080FC01F071BB6F4B1B6826
:102CE0006F4AD2F814116F4A1268184617F09CFB0D
:102CF0000346002B10D16C4B22221A706B4B1A88A2
:102D0000694B1A816A4B186800234FF0FF326649FD
:102D100012F0B6FA01F053BB604B1B68604AD2F860
:102D20001C11604A1268184617F07EFB0346002B00
:102D300010D15D4B23221A705C4B1A885A4B1A81B2
:102D40005B4B186800234FF0FF32574912F098FA96
:102D500001F035BB514B1B68514AD2F82C11514A36
:102D60001268184617F060FB0346002B5CD103F095
:102D700013FD0346022B04D1012011F0B7FE01F030
:102D80001EBB03F009FD0346002B27D103F0C8FC4E
:102D90000346002B16D1012003F0E8FC07F10803DD
:102DA000184603F0BDFD002387F848303F4B1988D3
:102DB00007F10803009300230022252001F089FF7A
:102DC00001F0FDBA002003F0D1FC384B1988022332
:102DD0000422252001F00EFF01F0F1BA03F0DCFC23
:102DE0000346012B41F0EB8203F01EFD0346002B4E
:102DF0000ED1022003F0BAFC2C4B198800230022CC
:102E0000252001F0F7FE314803F0C0FD01F0D7BAEC
:102E1000002003F0ABFC254B198802230422252057
:102E200001F0E8FE01F0CBBA1C4B1B681D4A12688A
:102E30002749184617F0F8FA0346002B0DD103F086
:102E400051FD002003F092FC184B1988002300224A
:102E5000252001F0CFFE01F0B2BA104B1B68104ADA
:102E6000D2F844110F4A1268184617F0DDFA0346EB
:102E7000002B56D11049114802F008F90346002BE7
:102E800028D00A4B1B8819460023009308230322ED
:102E9000282001F0CFFF01F092BA00BF6C0C002097
:102EA00000DE0108700C0020880D00207C0C002042
:102EB000740F0020580C0020780C0020740C0020A7
:102EC00064CF010858040020A00D002000001E0857
:102ED00090CF0108AD4B1B68AD4A126811461846E9
:102EE00004F08EF80346184605F06AFB0346002BF3
:102EF0000BD0A84B1B8819460023009309230322FB
:102F0000282001F097FF01F05ABAA24B1B881946FE
:102F10000023009300230022282001F08BFF01F002
:102F20004EBA9D4B1B689D4AD2F84C119C4A1268C0
:102F3000184617F079FA0346002B15D105F026FE46
:102F400003461A46974B53F82230974A1360914B29
:102F50001B881946944B1B680093002300222920EC
:102F600001F068FF01F02BBA8B4B1B688B4AD2F83B
:102F70000C128B4A1268184617F056FA0346002BBB
:102F80000BD1844B1B881946002300930023002299
:102F9000412001F04FFF01F012BA7F4B1B687F4ABE
:102FA000D2F854117E4A1268184617F03DFA0346CB
:102FB000002B39D17649754802F068F80346002B9A
:102FC0000BD0744B1B88194600230093082303225F
:102FD0002A2001F02FFF01F0F2B96C4B1B686C4AFC
:102FE00012681146184603F0DBFF0346184605F049
:102FF00027FB0346002B0BD0664B1B88194600238A
:103000000093092303222A2001F014FF01F0D7B90D
:10301000604B1B88194600230093002300222A20BE
:1030200001F008FF01F0CBB95B4B1B685B4AD2F89B
:103030005C115B4A1268184617F0F6F90346002B3C
:1030400015D105F0AFFD03461A46584B53F8223010
:10305000554A13604F4B1B881946534B1B6800930E
:10306000002300222B2001F0E5FE01F0A8B94A4B15
:103070001B684A4AD2F86411494A1268184617F088
:10308000D3F90346002B3ED14149404801F0FEFFF1
:103090000346002B0BD03F4B1B881946002300939F
:1030A000082303222C2001F0C5FE01F088B9374B1C
:1030B0001B683F49184616F073FB53EC102B104663
:1030C0001946FDF7A1FD034600EE103A05F012FB8C
:1030D0000346002B0BD02F4B1B881946002300936F
:1030E000092303222C2001F0A5FE01F068B9294B29
:1030F0001B88194600230093002300222C2001F096
:1031000099FE01F05CB9244B1B68244AD2F86C117B
:10311000234A1268184617F087F90346002B13D18B
:1031200005F04CFDF0EE407A1F4BC3ED007A194BD1
:103130001B8819461C4B1B680093002300222D207E
:1031400001F078FE01F03BB9134B1B68134AD2F82B
:103150007411134A1268184617F066F90346002BDB
:1031600040F08E800A49094801F0B4FF0346002B65
:1031700020D0084B1B881946002300930823032204
:103180002E2001F057FE01F01AB900BF740C002088
:10319000780C00207C0C00206C0C002000DE010864
:1031A000700C002020000020380E002014000020A9
:1031B000400E0020B34B1B68B34A126811461846F4
:1031C00003F0EEFE03461A46B04B1A70AF4B93F96C
:1031D0000030B3F1FF3F04D0AC4B93F90030002B2B
:1031E0000BD1AB4B1B881946002300930723032206
:1031F0002E2001F01FFE01F0D9B8A349A14801F02B
:1032000045FF0346002B0BD0A14B1B88194600231A
:103210000093082303222E2001F00CFE01F0CFB80A
:103220009A4B93F90040974B1B689A49184616F041
:10323000B7FA53EC102B10461946FDF7E5FC034690
:1032400000EE103A204605F07DFA0346002B0BD025
:103250008F4B1B88194600230093092303222E203D
:1032600001F0E8FD01F0ABB8894B1B88194600233B
:103270000093002300222E2001F0DCFD01F09FB816
:10328000854B1B68854AD2F87C11854A126818461E
:1032900017F0CAF80346002B4DD17B49794801F05D
:1032A00019FF0346002B0BD0794B1B8819460023CE
:1032B0000093082303222F2001F0BCFD01F07FB80A
:1032C000704B1B68704A12681146184603F068FE7E
:1032D00003461A466D4B1A706C4B93F90030B3F1EC
:1032E000FF3F04D0694B93F90030002B0BD1684BA2
:1032F0001B88194600230093072303222F2001F087
:1033000099FD01F053B8614B93F90030184605F070
:1033100091FCF0EE407A634BC3ED007A5C4B1B8866
:103320001946604B1B680093002300222F2001F0F8
:1033300081FD01F044B8584B1B68584AD2F88411FB
:10334000574A1268184617F06FF80346002B78D1D9
:103350004D494C4801F0BEFE0346002B0BD04C4BB0
:103360001B8819460023009308230322302001F014
:1033700061FD01F024B8434B1B68434A12681146B3
:10338000184603F00DFE03461A46404B1A703F4B99
:1033900093F90030B3F1FF3F04D03C4B93F9003078
:1033A000002B0BD13A4B1B881946002300930723AF
:1033B0000322302001F03EFD00F0F8BF32493148D1
:1033C00001F064FE0346002B0BD0314B1B881946DD
:1033D0000023009308230322302001F02BFD00F08E
:1033E000EEBF2A4B93F90040264B1B68294918462B
:1033F00016F0D6F953EC102B10461946FDF704FCD5
:10340000034600EE103A204605F0E4F90346002B8F
:103410000BD01F4B1B88194600230093092303225E
:10342000302001F007FD00F0CABF194B1B88194678
:103430000023009300230022302001F0FBFC00F069
:10344000BEBF154B1B68154AD2F88C11144A12687E
:10345000184616F0E9FF0346002B60D10A490948D7
:1034600001F038FE0346002B1ED0094B1B8819467D
:103470000023009308230322312001F0DBFC00F03D
:103480009EBF00BF740C0020780C00203C0E002072
:103490007C0C0020400E00206C0C002000DE010897
:1034A000700C0020380E0020AF4B1B68AF4A12682A
:1034B0001146184603F074FD03461A46AC4B1A70C9
:1034C000AB4B93F90030B3F1FF3F04D0A84B93F915
:1034D0000030002B0BD1A74B1B881946002300930B
:1034E00007230322312001F0A5FC00F05FBFA04BB1
:1034F00093F90030184605F0C1FBF0EE407A9E4B80
:10350000C3ED007A9B4B1B8819469B4B1B680093AD
:1035100000230022312001F08DFC00F050BF974BBA
:103520001B68974AD2F89411964A1268184616F00A
:103530007BFF0346002B78D18C498B4801F0CAFDF4
:103540000346002B0BD08B4B1B881946002300939E
:1035500008230322322001F06DFC00F030BF824BC3
:103560001B68824A12681146184603F019FD03468B
:103570001A467F4B1A707E4B93F90030B3F1FF3F30
:1035800004D07B4B93F90030002B0BD1794B1B8877
:1035900019460023009307230322322001F04AFC3E
:1035A00000F004BF7149704801F070FD0346002B24
:1035B0000BD0704B1B88194600230093082303226D
:1035C000322001F037FC00F0FABE694B93F900405D
:1035D000654B1B686C49184616F0E2F853EC102B4B
:1035E00010461946FDF710FB034600EE103A204640
:1035F00005F038F90346002B0BD05E4B1B881946AB
:103600000023009309230322322001F013FC00F071
:10361000D6BE584B1B881946002300930023002276
:10362000322001F007FC00F0CABE544B1B68544A1C
:10363000D2F89C11534A1268184616F0F5FE03465C
:10364000002B4DD14949484801F044FD0346002B69
:103650000BD0484B1B8819460023009308230322F4
:10366000332001F0E7FB00F0AABE3F4B1B683F4A46
:1036700012681146184603F093FC03461A463C4B69
:103680001A703B4B93F90030B3F1FF3F04D0384B35
:1036900093F90030002B0BD1364B1B8819460023C1
:1036A000009307230322332001F0C4FB00F07EBE09
:1036B0002F4B93F90030184605F004FBF0EE407AEA
:1036C0002D4BC3ED007A2B4B1B8819462A4B1B68E8
:1036D000009300230022332001F0ACFB00F06FBE0A
:1036E000264B1B68264AD2F8A411264A12681846AF
:1036F00016F09AFE0346002B40F08B801B491A48B7
:1037000001F0E8FC0346002B0BD01A4B1B8819462E
:103710000023009308230322342001F08BFB00F0E8
:103720004EBE114B1B68114A12681146184603F031
:1037300037FC03461A460E4B1A700D4B93F90030B6
:10374000B3F1FF3F04D00A4B93F90030002B1DD199
:10375000084B1B88194600230093072303223420BB
:1037600001F068FB00F022BE740C0020780C0020F1
:103770003C0E00207C0C0020380E00206C0C002039
:1037800000DE0108700C0020400E0020B349B44850
:1037900001F07CFC0346002B0BD0B24B1B88194672
:1037A0000023009308230322342001F043FB00F0A0
:1037B00006BEAD4B93F90040A94B1B68AB491846B8
:1037C00015F0EEFF53EC102B10461946FDF71CFACE
:1037D000034600EE103A204605F08CF80346002B15
:1037E0000BD0A04B1B88194600230093092303220A
:1037F000342001F01FFB00F0E2BD9A4B1B881946F4
:103800000023009300230022342001F013FB00F07A
:10381000D6BD974B1B68974AD2F8AC11964A1268EE
:10382000184616F001FE0346002B4DD18B498C48FB
:1038300001F050FC0346002B0BD08A4B1B88194625
:103840000023009308230322352001F0F3FA00F04F
:10385000B6BD834B1B68814A12681146184603F0B7
:103860009FFB03461A46804B1A707F4B93F900303A
:10387000B3F1FF3F04D07C4B93F90030002B0BD108
:10388000784B1B8819460023009307230322352019
:1038900001F0D0FA00F08ABD734B93F9003018465E
:1038A00005F034FAF0EE407A744BC3ED007A6D4BBC
:1038B0001B881946714B1B6800930023002235209A
:1038C00001F0B8FA00F07BBD694B1B68694AD2F879
:1038D000B411694A1268184616F0A6FD0346002B7B
:1038E00078D15E495E4801F0F5FB0346002B0BD012
:1038F0005C4B1B88194600230093082303223620C3
:1039000001F098FA00F05BBD554B1B68534A1268F2
:103910001146184603F044FB03461A46524B1A70F0
:10392000514B93F90030B3F1FF3F04D04E4B93F964
:103930000030002B0BD14B4B1B8819460023009302
:1039400007230322362001F075FA00F02FBD43490A
:10395000434801F09BFB0346002B0BD0414B1B88D7
:1039600019460023009308230322362001F062FA4F
:1039700000F025BD3C4B93F90040394B1B683B4997
:10398000184615F00DFF53EC102B10461946FDF7A5
:103990003BF9034600EE103A204605F089F803464D
:1039A000002B0BD02F4B1B881946002300930923B3
:1039B0000322362001F03EFA00F001BD294B1B889E
:1039C00019460023009300230022362001F032FA2A
:1039D00000F0F5BC264B1B68264AD2F8BC11264ADB
:1039E0001268184616F020FD0346002B60D11B49D3
:1039F0001B4801F06FFB0346002B0BD0194B1B88B3
:103A000019460023009308230322372001F012FAFD
:103A100000F0D5BC124B1B68104A126811461846BC
:103A200003F0BEFA03461A460F4B1A700E4B93F979
:103A30000030B3F1FF3F04D00B4B93F90030002B63
:103A40001ED1084B1B88194600230093072303222D
:103A5000372001F0EFF900F0A9BC00BF780C00207E
:103A6000740C00207C0C00203C0E0020400E002036
:103A70006C0C002000DE0108700C0020380E0020C5
:103A8000B54B93F90030184605F0A4F9F0EE407AF2
:103A9000B24BC3ED007AB24B1B881946AF4B1B6883
:103AA000009300230022372001F0C4F900F087BC06
:103AB000AC4B1B68AC4AD2F8C411AC4A1268184629
:103AC00016F0B2FC0346002B78D1A949A94801F0B1
:103AD00001FB0346002B0BD0A14B1B88194600238A
:103AE000009308230322382001F0A4F900F067BCFA
:103AF000A04B1B689E4A12681146184603F050FA04
:103B000003461A46944B1A70934B93F90030B3F165
:103B1000FF3F04D0904B93F90030002B0BD1904B1A
:103B20001B8819460023009307230322382001F045
:103B300081F900F03BBC8E498E4801F0A7FA03469C
:103B4000002B0BD0864B1B881946002300930823BB
:103B50000322382001F06EF900F031BC7E4B93F95E
:103B60000040844B1B680A228349184615F09EFECC
:103B700007EE900AF8EEE77AFCEEE77A17EE901A75
:103B8000204604F0FDFE0346002B0BD0744B1B882F
:103B900019460023009309230322382001F04AF933
:103BA00000F00DBC6E4B1B881946002300930023C8
:103BB0000022382001F03EF900F001BC694B1B687F
:103BC000694AD2F8CC11694A1268184616F02CFCE2
:103BD0000346002B49D16649664801F07BFA03464B
:103BE000002B0AD05E4B1B88194600230093082344
:103BF0000322392001F01EF9E1E35E4B1B685C4AA9
:103C000012681146184603F0CBF903461A46524B88
:103C10001A70514B93F90030B3F1FF3F04D04E4B73
:103C200093F90030002B0AD14D4B1B881946002315
:103C3000009307230322392001F0FCF8B6E3464B3A
:103C400093F90030184605F085F803461A46434BB1
:103C50001A60434B1B881946404B1B680093002396
:103C60000022392001F0E6F8A9E33E4B1B683E4AEA
:103C7000D2F8D4113D4A1268184616F0D5FB034617
:103C8000002B40F086803A493A4801F023FA034677
:103C9000002B0AD0324B1B881946002300930823BF
:103CA00003223A2001F0C6F889E3324B1B68304A00
:103CB00012681146184603F073F903461A46264B5C
:103CC0001A70254B93F90030B3F1FF3F04D0224B1B
:103CD00093F90030002B0AD1214B1B881946002391
:103CE0000093072303223A2001F0A4F85EE3204961
:103CF000204801F0CBF90346002B0AD0184B1B8853
:103D0000194600230093082303223A2001F092F879
:103D100055E3114B93F90040164B1B680A221649D4
:103D2000184615F0C3FD07EE900AF8EEE77AFCEEB0
:103D3000E77A17EE901A204604F080FE0346002B27
:103D40001CD0074B1B88194600230093092303222C
:103D50003A2001F06FF832E33C0E0020380E0020CC
:103D60007C0C00206C0C002000DE0108700C002090
:103D7000780C0020740C0020400E00209C4B1B8807
:103D8000194600230093002300223A2001F052F844
:103D900015E3984B1B68984AD2F8DC11974A1268D1
:103DA000184616F041FB0346002B49D1944995482B
:103DB00001F090F90346002B0AD08D4B1B88194661
:103DC00000230093082303223B2001F033F8F6E29E
:103DD0008C4B1B688A4A12681146184603F0E0F8BB
:103DE00003461A46884B1A70874B93F90030B3F19B
:103DF000FF3F04D0844B93F90030002B0AD17C4B59
:103E00001B88194600230093072303223B2001F05F
:103E100011F8CBE27C4B93F90030184604F0BAFF5E
:103E200003461A46794B1A60714B1B881946774B2B
:103E30001B680093002300223B2000F0FBFFBEE242
:103E40006C4B1B686C4AD2F8E4116C4A1268184635
:103E500016F0EAFA0346002B0FD16D4B3C221A7084
:103E6000634B1A886A4B1A816A4B186800234FF01B
:103E7000FF32674911F004FAA1E25E4B1B685E4A0B
:103E8000D2F8EC115D4A1268184616F0CDFA0346D6
:103E9000002B40F05A81604B1B8819460023029387
:103EA000574B0193574B009310235C4A5C4814F026
:103EB00044FE0346012B40F00F81524B1B68594AC8
:103EC00051684F4A1268184616F0AEFA0346002BA6
:103ED00011D14F4B3D221A704D4B00229A72444B28
:103EE0001A884B4B1A814B4B186800234FF0FF3256
:103EF000474911F0C5F9434B1B684A4AD168404A0B
:103F00001268184616F090FA0346002B12D1404B67
:103F10003D221A703E4B01229A72354B1A883C4B57
:103F20001A813C4B186800234FF0FF32384911F0DA
:103F3000A7F944E2334B1B683A4A5169304A126888
:103F4000184616F071FA0346002B12D1304B3D2271
:103F50001A702F4B02229A72254B1A882C4B1A8109
:103F60002C4B186800234FF0FF32294911F088F9D3
:103F700025E2244B1B682B4AD169214A1268184656
:103F800016F052FA0346002B12D1214B3D221A7033
:103F90001F4B03229A72164B1A881D4B1A811D4B18
:103FA000186800234FF0FF32194911F069F906E251
:103FB000144B1B681B4A516A114A1268184616F0C6
:103FC00033FA0346002B2FD1114B3D221A70104BB0
:103FD00004229A72064B1A880D4B1A810D4B1868F1
:103FE00000234FF0FF320A4911F04AF9E7E100BF20
:103FF0007C0C00206C0C002000DE0108700C0020FE
:10400000780C0020740C00203C0E0020380E00209C
:10401000180E002010100020580C002064CF01085A
:104020005804002030E20108A64B1B68A64AD16A5A
:10403000A64A1268184616F0F7F90346002B12D16B
:10404000A34B3D221A70A24B05229A72A14B1A88EB
:104050009F4B1A81A04B186800234FF0FF329C49F8
:1040600011F00EF9ABE103F011F803F01BF89B4BD4
:1040700093F8E831974A12881146184603F0B8F8C9
:1040800003F070F8964B93F848301946032004F07B
:104090006DF903F01FF803F07DF802F0E1FF04462C
:1040A00002F0E8FF034619468E4B8F4A204602F085
:1040B0007DFC8C4B1B689BB21A468B49012010F08B
:1040C0003DFD00BF012010F049FE0346212BF9D031
:1040D000012010F00BFD72E102F0D8FF02F0E2FFC8
:1040E0007E4B93F8E8317B4A12881146184603F05C
:1040F0007FF803F037F87A4B93F8403019460320E5
:1041000004F034F902F0E6FF03F044F802F0A8FFEF
:10411000044602F0AFFF03461946724B724A20462E
:1041200002F044FC6F4B1B689BB21A466E4901209B
:1041300010F004FD00BF012010F010FE0346212BFB
:10414000F9D0012010F0D2FC39E1684B1B68634ABA
:10415000D2F8F411664A1268184616F065F903465B
:10416000002B0FD15A4B3E221A705A4B1A88584BCB
:104170001A81594B186800234FF0FF32544911F04F
:104180007FF81CE1594B1B68544AD2F8FC11584A7D
:104190001268184616F048F90346002B73D14B49B4
:1041A000484800F097FF0346002B0AD0494B1B8874
:1041B000194600230093082303223F2000F03AFE13
:1041C000FDE0404B1B68414A12681146184602F058
:1041D000E7FE03461A46474B1A70464B93F90030E8
:1041E000B3F1FF3F04D0434B93F90030002B0AD1C9
:1041F000384B1B88194600230093072303223F20D6
:1042000000F018FED2E031492E4800F03FFF03468F
:10421000002B0AD02F4B1B8819460023009308233C
:1042200003223F2000F006FEC9E0324B93F9004024
:10423000244B1B680A223049184615F037FB07EE5D
:10424000900AF8EEE77AFCEEE77A17EE901A20462D
:1042500004F074FC0346002B0AD01E4B1B88194641
:1042600000230093092303223F2000F0E3FDA6E092
:10427000184B1B88194600230093002300223F207F
:1042800000F0D8FD9BE0194B1B68144AD2F80412C9
:10429000174A1268184616F0C7F80346002B65D176
:1042A0000A49084800F016FF0346002B26D0094BA8
:1042B0001B8819460023009308230322402000F0A6
:1042C000B9FD7CE0740C002030E20108780C00207D
:1042D000180E00207C0C00201010002000DE0108C9
:1042E00078E10108440E0020580400206C0C0020E6
:1042F000700C00203C0E0020400E0020324B1B684A
:10430000324A12681146184602F04AFE03461A461F
:104310002F4B1A702E4B93F90030B3F1FF3F04D0AE
:104320002B4B93F90030002B0AD12A4B1B881946DE
:104330000023009307230322402000F07BFD35E09B
:10434000234B93F90030184604F068FD03461A46E3
:10435000214B1A601F4B1B8819461F4B1B6800938B
:1043600000230022402000F065FD28E0194B198849
:1043700005230322262000F03DFC20E0154B198880
:1043800006230422272000F035FC18E0114B198881
:1043900004230222272000F02DFC10E00D4B198889
:1043A00004230222272000F025FC08E007E0094B47
:1043B000198804230222272000F01CFC00E000BF23
:1043C00000BF6037BD46B0BD740C0020780C0020E3
:1043D0003C0E00207C0C0020380E002090B583B0ED
:1043E00000AF786002F052FE02F05CFE7B681B7842
:1043F000002B12D1364B1B78364A128911461846CB
:1044000002F0F6FE02F0AEFE7B681A7C7B685B7CF5
:104410001946104602F03AFF47E07B681B78012BF3
:1044200014D12B4B1B7A2B4A12891146184602F0E5
:10443000DFFE02F097FE7B68187C7B68597C7B6806
:10444000B3F90A301A4602F033FF2EE07B681B787E
:10445000022B14D11E4B1B7C1E4A12891146184692
:1044600002F0C6FE02F07EFE7B68187C7B68597CF9
:104470007B68B3F90E301A4602F04AFF15E07B68FC
:104480001B78032B11D1124B1B7E124A1289114645
:10449000184602F0ADFE02F065FE7B681A7C7B6870
:1044A0005B7C1946104602F063FF02F013FE02F037
:1044B00071FE02F0D5FD044602F0DCFD034619460C
:1044C000204600F0B7FD00BF0C37BD4690BD00BFD1
:1044D00000DE0108880C002090B583B000AF786042
:1044E00002F0D4FD02F0DEFD7B681B78082B13D1AF
:1044F000384B93F840207B681B891946104602F020
:1045000077FE02F02FFE7B681A7C7B685B7C194685
:10451000104602F0C9FF4BE07B681B78092B14D1D1
:104520002C4B93F848207B681B891946104602F0F3
:104530005FFE02F017FE7B68187C7B68597C7B6805
:104540009B7A1A4602F0C2FF32E07B681B780A2B86
:1045500015D1204B93F850207B681B8919461046D3
:1045600002F046FE02F0FEFD7B68187C7B68597CF9
:104570007B68B3F90C301A4602F0DEFF18E07B6866
:104580001B780B2B14D1134B93F858207B681B8995
:104590001946104602F02CFE02F0E4FD7B68187C00
:1045A0007B68597C7B68B3F90E301A4602F0F4FF41
:1045B00002F090FD02F0EEFD02F052FD044602F022
:1045C00059FD03461946204600F034FD00BF0C3764
:1045D000BD4690BD00DE0108F0B589B006AF786039
:1045E00002F054FD02F05EFD7B681B781E2B15D196
:1045F000674B93F8F030674A12881146184602F06C
:10460000F7FD02F0AFFD7B6893F828207B6893F8F4
:104610002A301946104603F09DFBA7E07B681B7803
:104620001F2B20D15A4B93F8F8305A4A1288114662
:10463000184602F0DDFD02F095FD7B6893F828C076
:104640007B6893F82AE07E686D4606F134040FCC4F
:104650000FC523682B8006F12C030CCB71466046F6
:1046600003F0AEFA82E07B681B78212B16D1484B11
:1046700093F80831474A12881146184602F0B8FDEF
:1046800002F070FD7B6893F828007B6893F82A108D
:104690007B6818331A4603F081FB67E07B681B7860
:1046A000202B15D13A4B93F800313A4A1288114623
:1046B000184602F09DFD02F055FD7B6893F8282016
:1046C0007B6893F82A301946104603F055FB4DE0FD
:1046D0007B681B78222B15D12D4B93F810312D4A76
:1046E00012881146184602F083FD02F03BFD7B68FC
:1046F00093F828207B6893F82A301946104603F077
:104700007BFB33E07B681B78232B16D1204B93F87F
:104710001831204A12881146184602F069FD02F04D
:1047200021FD7B6893F828007B6893F82A107B684A
:104730000C331A4603F0A8FB18E07B681B78242B87
:1047400014D1134B93F81831124A128811461846A7
:1047500002F04EFD02F006FD7B6893F828207B688E
:1047600093F82A301946104603F028FD02F0B2FCF7
:1047700002F010FD02F074FC044602F07BFC0346DC
:104780001946204600F056FC00BF0C37BD46F0BD70
:1047900000DE01087C0C002090B583B000AF78608B
:1047A00002F074FC02F07EFC7B681B78112B13D1A5
:1047B000694B93F888207B681B891946104602F0E4
:1047C00017FD02F0CFFC7B689A7C7B68DB7C194686
:1047D000104602F0E9FFADE07B681B78122B14D184
:1047E0005D4B93F890207B681B891946104602F0B8
:1047F000FFFC02F0B7FC7B68987C7B68D97C7B6807
:104800005B891A4602F0E2FF94E07B681B78132B69
:1048100015D1514B93F898207B681B891946104697
:1048200002F0E6FC02F09EFC7B68987C7B68D97CF9
:104830007B68B3F90E301A4602F0F8FF7AE07B6825
:104840001B78142B15D1444B93F8A0207B681B894F
:104850001946104602F0CCFC02F084FC7B68987C80
:104860007B68D97C7B68B3F910301A4603F00EF8E8
:1048700060E07B681B78152B13D1374B93F8A82089
:104880007B681B891946104602F0B2FC02F06AFCF4
:104890007B689A7C7B68DB7C1946104603F08EFCB3
:1048A00048E07B681B78162B14D12B4B93F8B02073
:1048B0007B681B891946104602F09AFC02F052FCF4
:1048C0007B68987C7B68D97C7B681B7B1A4603F0ED
:1048D0000DF82FE07B681B78172B13D11E4B93F834
:1048E000B8207B681B891946104602F081FC02F053
:1048F00039FC7B689A7C7B68DB7C1946104602F0A9
:1049000053FF17E07B681B78182B13D1124B93F8D9
:10491000C0207B681B891946104602F069FC02F032
:1049200021FC7B68987C7B68D97C7B685B7B1A4622
:1049300002F04CFF02F0CEFB02F02CFC02F090FBE8
:10494000044602F097FB03461946204600F072FB2E
:1049500000BF0C37BD4690BD00DE010890B583B0A6
:1049600000AF786002F092FB02F09CFB7B681B7842
:104970000D2B15D1384B93F868207B681B8919469D
:10498000104602F035FC02F0EDFB7B68187C7B687A
:10499000597C7B68B3F90C301A4602F05DFE49E0A1
:1049A0007B681B780E2B15D12B4B93F870207B68FE
:1049B0001B891946104602F01BFC02F0D3FB7B68F2
:1049C000187C7B68597C7B68B3F90E301A4602F07C
:1049D00073FE2FE07B681B780F2B13D11E4B93F8CF
:1049E00078207B681B891946104602F001FC02F012
:1049F000B9FB7B681A7C7B685B7C1946104602F029
:104A00008BFE17E07B681B78102B13D1124B93F8A9
:104A100080207B681B891946104602F0E9FB02F0F2
:104A2000A1FB7B68187C7B68597C7B68DB7A1A4623
:104A300002F084FE02F04EFB02F0ACFB02F010FB31
:104A4000044602F017FB03461946204600F0F2FA2E
:104A500000BF0C37BD4690BD00DE0108F0B587B041
:104A600004AF786002F012FB02F01CFB7B681B783D
:104A70000C2B14D15E4B93F860207B681B89194680
:104A8000104602F0B5FB02F06DFB7B68987F7B68F7
:104A9000D97F7B689B7B1A4602F0AEFD96E07B686F
:104AA0001B781A2B15D1524B93F8D0207B681B89A9
:104AB0001946104602F09CFB02F054FB7B68987F7D
:104AC0007B68D97F7B68B3F90C301A4602F072FF1D
:104AD0007CE07B681B781B2B15D1454B93F8D820C5
:104AE0007B681B891946104602F082FB02F03AFBF4
:104AF0007B68987F7B68D97F7B68B3F90C301A4656
:104B000002F088FF62E07B681B781D2B15D1384BC3
:104B100093F8E8207B681B891946104602F068FB71
:104B200002F020FB7B68987F7B68D97F7B68B3F9B4
:104B30000C301A4602F09EFF48E07B681B78192B68
:104B400015D12B4B93F8C8207B681B89194610465A
:104B500002F04EFB02F006FB7B68987F7B68D97FF2
:104B60007B68B3F910301A4602F0F4FE2EE07B6841
:104B70001B781C2B2AD11E4B93F8E0207B681B89E5
:104B80001946104602F034FB02F0ECFA7B689C7F79
:104B90007B68DD7F7B68B3F912607B68B3F914C072
:104BA0007B68B3F916307A68B2F918207968B1F9E0
:104BB0001A107868B0F91C000390029101920093DA
:104BC000634632462946204602F084FF02F082FA0C
:104BD00002F0E0FA02F044FA044602F04BFA03460F
:104BE0001946204600F026FA00BF0C37BD46F0BD3E
:104BF00000DE010890B583B000AF044608461146B8
:104C00001A462346FB710346BB800B46BB71134615
:104C1000FB7002F03BFA02F045FAFB78042B05D159
:104C2000FB790021184602F0E3FA05E0BA88FB7927
:104C30001146184602F0DCFA02F094FAFA78BB79D1
:104C40001146184603F0BAFA02F044FA02F0A2FA4A
:104C500002F006FA044602F00DFA03461946204611
:104C600000F0E8F900BF0C37BD4690BD90B583B0A9
:104C700000AF0446084611461A462346FB71034618
:104C8000BB800B46BB711346FB7002F0FFF902F0CC
:104C900009FABA88FB791146184602F0A9FA02F01F
:104CA00061FAF978BB79BA69184603F099FA02F00B
:104CB00011FA02F06FFA02F0D3F9044602F0DAF9C1
:104CC00003461946204600F0B5F900BF0C37BD4633
:104CD00090BD90B583B000AF0446084611461A4611
:104CE0002346FB710346BB800B46BB711346FB702A
:104CF00002F0CCF902F0D6F9BA88FB7911461846D1
:104D000002F076FA02F02EFAF978BB79BA69184601
:104D100003F094FA02F0DEF902F03CFA02F0A0F996
:104D2000044602F0A7F903461946204600F082F92E
:104D300000BF0C37BD4690BD90B583B000AF786022
:104D400002F0A4F902F0AEF97B681B78072B13D1AF
:104D5000374B93F838207B681B891946104602F0C0
:104D600047FA02F0FFF97B689A7B7B68DB7B194688
:104D7000104602F00FFB49E07B681B78042B13D12F
:104D80002B4B93F820207B681B891946104602F0B4
:104D90002FFA02F0E7F97B689A7B7B68DB7B194688
:104DA000104602F009FB31E07B681B78052B14D11B
:104DB0001F4B93F828207B681B891946104602F088
:104DC00017FA02F0CFF97B68987B7B68D97B7B6808
:104DD000DB7A1A4602F002FB18E07B681B78062B90
:104DE00014D1134B93F830207B681B891946104669
:104DF00002F0FEF902F0B6F97B68987B7B68D97BFC
:104E00007B68B3F90C301A4602F01EFB02F062F91F
:104E100002F0C0F902F024F9044602F02BF903462F
:104E20001946204600F006F900BF0C37BD4690BD7C
:104E300000DE010890B587B000AF396011461A4610
:104E40000346FB710B46BB7113467B7102F01EF9E2
:104E500002F028F9FB79434A12F833303A6892B2EB
:104E60001146184602F0C4F902F07CF9FB79412B97
:104E70005EDC2D2B04DA292B41D02B2B3FD057E0C1
:104E80002D3B012202FA03F340F255521A40002A48
:104E900014BF01220022D2B2002A37D103F4052226
:104EA000002A14BF01220022D2B2002A39D103F411
:104EB0008013002B14BF01230023DBB2002B37D05B
:104EC00003F098FE87ED050A03F086FE87ED040ADD
:104ED00003F09EFE87ED030A03F0A3FE87ED020AAE
:104EE0007A79BB79D7ED021A97ED031AD7ED050A47
:104EF00097ED040A1146184603F0EEF81FE0BA6A6F
:104F00007979BB79184603F0B9F818E0D7ED0A7A39
:104F10007A79BB79B0EE670A1146184603F04EF86D
:104F20000DE0BA6A7979BB79184603F079F806E0A2
:104F30007A79BB791146184603F02EF900BF02F0CA
:104F4000C9F802F027F902F08BF8044602F092F853
:104F500003461946204600F06DF800BF1C37BD46D9
:104F600090BD00BF00DE010890B583B000AF78604F
:104F700002F08CF802F096F87B681B783C2B14D179
:104F80002B4B93F8E0217B681B891946104602F0F1
:104F90002FF902F0E7F87B68187B7B68597B7B6808
:104FA000DB7A1A4603F076F92FE07B681B783D2BFD
:104FB00013D11F4B93F8E8217B681B8919461046D3
:104FC00002F016F902F0CEF87B681A7B7B685B7BF7
:104FD0001946104603F0CAF917E07B681B783E2B90
:104FE00013D1134B93F8F0217B681B8919461046A7
:104FF00002F0FEF802F0B6F87B68187B7B68597BFC
:105000007B689B7A1A4603F07BF902F063F802F0A2
:10501000C1F802F025F8044602F02CF803461946C0
:10502000204600F007F800BF0C37BD4690BD00BF1A
:1050300000DE010880B584B000AF78600B467B804D
:105040000023FB60798807F10C030F4A786801F0B0
:10505000ADFCFB689BB21A460B4901200FF06EFDB8
:1050600000BF01200FF07AFE0346212BF9D04FF448
:1050700080620021044815F0BBF901200FF036FDD5
:1050800000BF1037BD4680BD5804002080B586B0F3
:1050900004AF786039600C4B1B88194600230293DB
:1050A0003B6801937B6800931023084A084813F07B
:1050B00044FD0346012B14BF01230023DBB2184635
:1050C0000837BD4680BD00BF580C002064CF0108E2
:1050D0005804002080B586B004AF786039600C4B6E
:1050E0001B881946002302933B6801937B68009359
:1050F0001623084A084813F020FD0346012B14BF6D
:1051000001230023DBB218460837BD4680BD00BF2F
:10511000580C002078CF01085804002080B584B0D6
:1051200002AF00222021012010F04CF80346164A5D
:105130001360154B1B68002B01D100231FE00022D8
:105140002021012010F03EF80346104A13600F4B57
:105150001B68002B01D1002311E00D4B01930023AC
:10516000009300234FF480720A490B4810F059FD58
:1051700078607B68012B01D0002300E001231846F2
:105180000837BD4680BD00BF4C0E0020500E0020E9
:10519000480E0020A4CF01089D51000880B58AB0B8
:1051A00000AF78600FF09CF80FF03EF9774B1B686A
:1051B000FA227749184610F037FA0346012BF5D149
:1051C000734B1B7887F8273097F827300C2B1DD1AD
:1051D000002387F8243007F1240318460DF076FEEB
:1051E0000346002B05D001220321694800F0F0F8A6
:1051F00009E000220021664800F0EAF897F8243020
:10520000184600F023F900F065F9CFE797F827304A
:105210001A2B07D097F827301B2B03D097F827308D
:105220001D2B38D15A4B9B7A184600F0B3F8034631
:10523000012B05D107220321554800F0C9F827E0CA
:1052400000237B84524B9B7A07F1220211461846B9
:105250000FF056F8034687F8253097F82530002BD5
:105260000CD097F827301D2B01D10E2300E00D2321
:105270001A460421464800F0ABF804E00022002161
:10528000434800F0A5F8B7F92230184600F0CEF8F0
:1052900000F020F979E097F82730192B20D100236E
:1052A0003B8407F1200318460EF0B2FE0346012BA3
:1052B00009D111220421364800F08AF84FF0FF305E
:1052C00000F0A4F809E000220021314800F080F845
:1052D000B7F92030184600F099F800F0FBF865E7C0
:1052E00097F827301C2B7FF461AF07F114030022DD
:1052F0001A605A609A6007F1080300221A605A6027
:105300009A60002387F8263007F1140318460FF03F
:10531000B3F8034687F8263007F1080318460FF064
:10532000BFF803461A4697F82630134387F826300D
:1053300097F82630002B0FD00E220421144800F0DD
:1053400047F800220021002000F090F80022002100
:10535000002000F0A5F816E0002200210C4800F023
:1053600037F87B691BB2BA6911B2FA6912B21846F2
:1053700000F07CF8BB681BB2FA6811B23A6912B24D
:10538000184600F08DF800F0A5F80FE74C0E00204D
:10539000540E002080B483B000AF0346FB71FB794C
:1053A000002B0BD0FB79012B08D0FB79022B05D009
:1053B000FB79042B02D0FB79032B01D1002300E001
:1053C000012318460C37BD465DF8047B704700008A
:1053D00080B483B000AF78600B46FB701346BB709F
:1053E0007B681A78084B1A707B681A89064B1A81F9
:1053F000054AFB789377044ABB78D37700BF0C3714
:10540000BD465DF8047B7047740E002080B483B005
:1054100000AF0346FB80044AFB88138200BF0C37B1
:10542000BD465DF8047B7047740E002080B483B0E5
:1054300000AF0346FB80044AFB88938100BF0C3712
:10544000BD465DF8047B7047740E002080B483B0C5
:1054500000AF0346FB71044AFB79937300BF0C371E
:10546000BD465DF8047B7047740E002080B483B0A5
:1054700000AF0346FB800B46BB8013467B80074A88
:10548000FB885382054ABB889382044A7B88D38277
:1054900000BF0C37BD465DF8047B7047740E0020DA
:1054A00080B483B000AF0346FB800B46BB8013463D
:1054B0007B80074AFB881383054ABB885383044AD1
:1054C0007B88938300BF0C37BD465DF8047B704733
:1054D000740E002080B500AF044B186800234FF015
:1054E000FF3203490FF0CCFE00BF80BD500E0020FC
:1054F000740E002080B584B002AF0DF00DFD0022C7
:10550000142101200FF05EFE0346154A1360144B70
:105510001B68002B01D100231EE000221421012072
:105520000FF050FE03460F4A13600E4B1B68002B12
:1055300001D1002310E00C4B0193002300930023C2
:1055400080220A490A4810F06CFB78607B68012BC6
:1055500001D0002300E0012318460837BD4680BD76
:10556000980E00209C0E0020940E0020A8CF010869
:105570007555000880B584B000AF7860374B1B6864
:10558000FA223749184610F04FF80346012BF5D19F
:10559000334B1B78FB73FB7B082B15D1304B9B7A6D
:1055A00018460DF0C5FC0346012B05D1012203214D
:1055B0002B4800F057F804E000220021284800F0B2
:1055C00051F800F09DF8D9E7FB7B092B0FD10DF0C6
:1055D000DBFC0346FB7200220021214800F042F868
:1055E000FB7A184600F05CF800F08AF8C6E7FB7B0F
:1055F0000A2B10D10DF0D4FC0346BB810022002100
:10560000174800F02FF8B7F90C30184600F058F89A
:1056100000F076F8B2E7FB7B0B2BAFD100233B8188
:1056200007F10803194600200EF06AFE0346BB731B
:10563000BB7B002B05D00E220421094800F012F894
:1056400004E000220021064800F00CF8B7F9083009
:10565000184600F045F800F053F88FE7980E002048
:10566000A00E002080B483B000AF78600B46FB70C2
:105670001346BB707B681A78084B1A707B681A89CE
:10568000064B1A81054AFB781374044ABB7853749D
:1056900000BF0C37BD465DF8047B7047B40E002098
:1056A00080B483B000AF0346FB71044AFB79937268
:1056B00000BF0C37BD465DF8047B7047B40E002078
:1056C00080B483B000AF0346FB80044AFB8893811B
:1056D00000BF0C37BD465DF8047B7047B40E002058
:1056E00080B483B000AF0346FB80044AFB88D381BB
:1056F00000BF0C37BD465DF8047B7047B40E002038
:1057000080B500AF044B186800234FF0FF32034907
:105710000FF0B6FD00BF80BD9C0E0020B40E00202F
:1057200080B584B002AF0022142101200FF04AFDA1
:105730000346154A1360144B1B68002B01D100234C
:105740001EE00022142101200FF03CFD03460F4A09
:1057500013600E4B1B68002B01D1002310E00C4B93
:10576000019300230093002380220A490A4810F085
:1057700058FA78607B68012B01D0002300E00123F8
:1057800018460837BD4680BDCC0E0020D00E002044
:10579000C80E0020B0CF01089D57000880B584B026
:1057A00000AF78600DF05CFB684B1B68FA2268491B
:1057B00018460FF039FF0346012BF5D1644B1B78D7
:1057C000FB73FB7B112B15D1614B5B8918460DF0E8
:1057D000C7FC0346002B05D00B2203215C4800F0D8
:1057E000BBF804E000220021594800F0B5F800F0B1
:1057F00001F9D9E7FB7B122B0DD10022002154487F
:1058000000F0AAF80DF008FD0346184600F0C2F8B3
:1058100000F0F0F8C8E7FB7B132B0DD1002200212C
:105820004B4800F099F80DF003FD0346184600F0D0
:10583000C1F800F0DFF8B7E7FB7B142B1FD1002382
:10584000BB8107F10C03194601200EF059FD0346F8
:10585000BB73BB7B002B05D00D2204213C4800F01C
:105860007BF804E000220021394800F075F8B7F910
:105870000C30184600F0AEF800F0BCF894E7FB7B63
:10588000152B21D1324B1B7B002B08D164200DF04E
:10589000F7FA002200212E4800F05EF811E02C4BB0
:1058A0001B7B012B08D100200DF0EAFA0022002119
:1058B000274800F051F804E00A220421244800F0AF
:1058C0004BF800F097F86FE7FB7B162B12D1002204
:1058D00000211F4800F040F80DF0EAFA0346002BC3
:1058E0000CBF01230023DBB21A46194B1A7300F0D8
:1058F00081F859E7FB7B172B16D1154B5B7B642B8B
:1059000005D909220321124800F026F809E0104BBE
:105910005B7B18460DF0B4FA002200210C4800F021
:105920001BF800F067F83FE7FB7B182B7FF43CAFD8
:105930000DF0BEFA03461A46064B5A7300220021A8
:10594000034800F009F800F055F82DE7CC0E0020D0
:10595000D40E0020E80E002080B483B000AF786041
:105960000B46FB701346BB707B681A78084B1A70A5
:105970007B681A89064B1A81054AFB789374044A9E
:10598000BB78D37400BF0C37BD465DF8047B70470D
:10599000E80E002080B483B000AF0346FB80044AC9
:1059A000FB88538100BF0C37BD465DF8047B704710
:1059B000E80E002080B483B000AF0346FB80044AA9
:1059C000FB88D38100BF0C37BD465DF8047B704770
:1059D000E80E002080B483B000AF0346FB80044A89
:1059E000FB88138200BF0C37BD465DF8047B70470F
:1059F000E80E002080B500AF044B186800234FF07C
:105A0000FF3203490FF03CFC00BF80BDD00E0020E8
:105A1000E80E002080B584B000AF7860642010F0FC
:105A20004FFA0EF02FFB654B1B684FF0FF326449B5
:105A300018460FF0F9FD0346012BF4D1604B1B789B
:105A4000FB73FB7B032B22D10EF01CFB0346002BC8
:105A50000ED00E2304225A495A4800F03FF95A4BFF
:105A6000186800234FF0FF3256490FF009FCDAE7BF
:105A7000002300225249534800F030F9524B186875
:105A800000234FF0FF324F490FF0FAFBCBE7FB7BCF
:105A9000002B53D14A4BB3F90A30184600F0F8F8FE
:105AA0000346012B0ED10B2303224549454800F044
:105AB00015F9454B186800234FF0FF3241490FF0AC
:105AC000DFFBB0E73E4BB3F90A3018460EF0F0FAB0
:105AD00003461A463D4B1A703C4B1B78002B19D0DD
